:10000000FAC0000029C1000027C1000025C100007E
:1000100023C1000021C100001FC100001DC100005C
:100020001BC1000019C1000017C1000015C100006C
:1000300013C1000011C100000FC100000DC100007C
:100040000BC1000009C1000007C1000005C100008C
:1000500003C1000001C10000FFC000000C94CE2AC3
:10006000FBC000000C94DA2D0C94102EF5C000009B
:10007000F3C00000F1C00000EFC00000EDC00000C0
:10008000EBC00000E9C00000E7C00000E5C00000D0
:100090000C94662E0C949C2EDFC00000BBC40000A4
:1000A000DBC00000D9C00000D7C00000D5C00000F0
:1000B000D3C00000D1C00000CFC00000CDC0000000
:1000C000CBC00000C9C000000C942B280C94F22E69
:1000D0000C94282FC1C000000C947E2F0C94B42FD8
:1000E000BBC0000000000A0B02090C0D0E0807033C
:1000F00004010000000000000000000000000000FB
:1001000000000000000000000000000000000000EF
:1001100012111000000000000000000000000000AC
:100120000000000000000000000001021020200874
:100130000810204010204080020102010804020142
:1001400001020408102040808040201008040201B1
:10015000800402018040201008040201080402010A
:100160000102040810204080010204081020408091
:1001700005050505070508080808020202020A0A23
:100180000808040404040101010101010101030341
:10019000030303030303040707070C0C0C0C0C0CEC
:1001A0000C0C0202020206060606060606060B0BE9
:1001B0000B0B0B0B0B0B00002200250028002B0063
:1001C0002E003100340002010000050108010B017E
:1001D00000002100240027002A002D0030003300F9
:1001E00001010000040107010A0178023108392EDB
:1001F000C52E512FDD2F11241FBECFEFD1E2DEBF60
:10020000CDBF00E00CBF12E0A0E0B2E0E2E4F1E616
:1002100000E00BBF02C007900D92A03EB107D9F7D6
:1002200028E0A0EEB2E001C01D92A934B207E1F7C8
:1002300010E0CBEFD0E000E006C021970109802F4D
:10024000FE010E946E30C53FD10780E00807A9F784
:100250000E9420290C949F30D3CE90E080E0089536
:100260008091140390911503891B990B0895909127
:100270001503809114032FEF3FEF981748F4E92FEF
:10028000F0E0EA5EFC4F208130E09F5F9093150321
:10029000C9010895E091150380911403E81730F423
:1002A000F0E0EA5EFC4F808190E008958FEF9FEFD1
:1002B00008950895CF93DF93EC01E091EC02F09163
:1002C000ED023097F1F09091150380911403981787
:1002D000C0F090E0292F30E02617370754F4DE01F4
:1002E000A20FB31F4C912A5E3C4FD9014C939F5FE4
:1002F000F1CF1092150360931403CB01DF91CF91DE
:100300001994DF91CF910895E091EE02F091EF0200
:10031000309729F01092F2021092F1021994089588
:10032000CF93DF931F92CDB7DEB769832091F002A0
:100330002223F9F02091F102203258F021E030E040
:10034000FC013383228390E080E00F90DF91CF9116
:1003500008958091F202E82FF0E0ED50FD4F998171
:1003600090838F5F8093F2028093F10281E090E0AE
:10037000ECCF61E0CE010196F7D0F8CFCF92DF92BB
:10038000EF92FF920F931F93CF93DF937C01CB01EA
:100390008A012091F002222389F0EB016B01C40E47
:1003A000D51ECC15DD0561F06991D701ED91FC9169
:1003B0000190F081E02DC7011995F3CF642FD4D0BF
:1003C000C801DF91CF911F910F91FF90EF90DF90C7
:1003D000CF90089510921503109214031092F20218
:1003E0001092F10296D084E891E0EAD08AE591E09B
:1003F000E2C081E08093F002609313031092F20256
:100400001092F10208950F93062F21E04091F1021E
:1004100063EF72E080911303D5D11092F202109233
:10042000F1021092F0020F9108954F925F926F9235
:100430007F92AF92BF92CF92EF92FF920F931F9352
:10044000CF93DF935C01F62ED42F28013901EE20E3
:1004500009F1CFDFCE2DC43008F0C3E0C150B8F0B1
:1004600028E0C29FC0011124A301920104C0569547
:100470004795379527958A95D2F7B901D501ED9122
:10048000FC910190F081E02DC5011995E7CF60E066
:10049000C501B9DF4D2FD13208F040E22C2D66E1C5
:1004A00073E08F2DACD01092150380931403DF916D
:1004B000CF911F910F91FF90EF90CF90BF90AF9091
:1004C0007F906F905F904F900895CF92EF920F932F
:1004D0001F93C22EE12C00E010E09801A6DF1F91CF
:1004E0000F91EF90CF90089521E0EFCF61E08BCF97
:1004F000E0EEF2E01382128288EE93E0A0E0B0E03A
:1005000084839583A683B78387E292E09183808377
:1005100008951092A90381E08093A7031092A60387
:1005200061E084E10E94832C61E085E10E94832CDC
:10053000E9EBF0E080818E7F808380818D7F8083F6
:1005400088E48093B80085E48093BC000895ECEBC8
:10055000F0E080818A7B808360E084E10E94832CCC
:1005600060E085E10C94832C20915803260F3327FB
:10057000331F21323105ECF42091A903FC0190E0F6
:1005800080E0243069F082E00895A0915803219121
:10059000AC01465A5C4FA40FB52FB11D2C930196A8
:1005A000861798F380915803680F6093580380E092
:1005B000089581E0089590939D0380939C0308958E
:1005C00090939F0380939E03089585EC8093BC00D5
:1005D0001092A9030895CF93DF9391E09093A10324
:1005E000882351F0C091B800D091BA00B0DF91DFFC
:1005F000D093BA00C093B800DF91CF9108954F9285
:100600005F926F927F928F929F92AF92BF92CF92A2
:10061000DF92EF92FF920F931F93CF93DF93D82F28
:10062000162F072FC42FB22E413208F0A2C00E940D
:10063000242B6B017C018091A903811176C081E09C
:100640008093A903B092A7039FEF90933603109273
:100650007B039C0F90937A038093A8038091A80357
:10066000DD0FD82BD093A8038091A603813009F029
:1006700082C01092A6030E94242B6B017C01809102
:10068000A8038093BB008091A2039091A303A09143
:10069000A403B091A503892B8A2B8B2BA1F00E9478
:1006A000242B8090A2039090A303A090A403B09069
:1006B000A5036C197D098E099F0986169706A80661
:1006C000B90608F453C08091BC0083FDD8CF85ECF7
:1006D0008093BC000E94242B6B017C018091A903B4
:1006E000813009F44AC080917B038C1710F4C091CB
:1006F0007B03ACE7B3E0912FE12FF02F8E2F891B06
:100700008C1708F45CC08C2FDF91CF911F910F9153
:10071000FF90EF90DF90CF90BF90AF909F908F9021
:100720007F906F905F904F9008958091A203909179
:10073000A303A091A403B091A503892B8A2B8B2B33
:1007400009F479CF0E94242B4090A2035090A30378
:100750006090A4037090A5036C197D098E099F0910
:10076000461657066806790608F065CF8091A00303
:1007700032DFC0E0C8CF85EEABCF8091A20390916D
:10078000A303A091A403B091A503892B8A2B8B2BE3
:1007900009F4A4CF0E94242B8090A2039090A3037D
:1007A000A090A403B090A5036C197D098E099F0940
:1007B00086169706A806B90608F090CFD7CF8D9178
:1007C00081939CCF4F925F926F927F928F929F9274
:1007D000AF92BF92EF92FF920F931F93CF93DF934D
:1007E000413208F0D8C0F22ED42FE72E162FC82F92
:1007F0000E94242B4B015C018091A903811170C0E0
:1008000082E08093A9030093A7038FEF80933603C0
:1008100010927B03D0937A03912FACE7B3E0E12FE2
:10082000FE2D8E2F891B8D1708F48EC01092A80301
:100830008091A803CC0FC82BC093A8038091A60376
:10084000813009F084C01092A6030E94242B4B0132
:100850005C018091A8038093BB008091A2039091DA
:10086000A303A091A403B091A503892B8A2B8B2B02
:10087000A1F00E94242B0091A2031091A3032091C8
:10088000A4033091A503681979098A099B09061701
:1008900017072807390708F444C08091BC0083FD7E
:1008A000D8CF85EC8093BC000E94242B4B015C01C7
:1008B000FF2029F08091A903823009F44AC0809179
:1008C00036038F3F09F469C080913603803209F402
:1008D00066C080913603803309F463C084E025C08C
:1008E0008091A2039091A303A091A403B091A503CA
:1008F000892B8A2B8B2B09F47FCF0E94242B4090CD
:10090000A2035090A3036090A4037090A5036819FC
:1009100079098A099B09461657066806790608F080
:100920006BCF8091A00357DE85E0DF91CF911F91BF
:100930000F91FF90EF90BF90AF909F908F907F901E
:100940006F905F904F90089581918D936ACF85EE5F
:10095000A9CF8091A2039091A303A091A403B09189
:10096000A503892B8A2B8B2B09F4A2CF0E94242B61
:100970000091A2031091A3032091A4033091A50339
:10098000681979098A099B09061717072807390783
:1009900008F08ECFC6CF81E0C8CF80E0C6CF82E01E
:1009A000C4CF83E0C2CF85ED8093BC008091A203C9
:1009B0009091A303A091A403B091A5030796A11D54
:1009C000B11D23E0B695A795979587952A95D1F700
:1009D0002091BC0024FD03C01092A903089540910A
:1009E000A2035091A3036091A4037091A503452B2A
:1009F000462B472B69F30097A105B10541F025E38C
:100A00002A95F1F700000197A109B109E1CF809182
:100A1000A003E1CD1F920F920FB60F9211240BB6D7
:100A20000F922F933F934F935F936F937F938F9387
:100A30009F93AF93BF93EF93FF938091B900887F0B
:100A4000803609F44CC008F03FC0883209F4A8C0D1
:100A500028F5803109F49CC0C8F4882309F4F8C053
:100A6000883009F495C0FF91EF91BF91AF919F91AC
:100A70008F917F916F915F914F913F912F910F9047
:100A80000BBE0F900FBE0F901F901895883109F480
:100A900087C0803241F78093360314C0803409F454
:100AA0009CC040F48033B9F38833E9F68093360371
:100AB0008CDDD9CF803509F484C0883509F495C020
:100AC000883489F670DFCFCF883909F48CC038F5C7
:100AD000883729F050F4883611F0803721F683E00A
:100AE0008093A9031092370357C0883809F47BC05C
:100AF000803919F0803809F0B6CF80913703803201
:100B000008F071C0E091370381E08E0F80933703C6
:100B10008091BB00F0E0E85CFC4F80833DC0803BEF
:100B200039F0E0F4803A09F479C0883A09F09BCFB3
:100B300084E08093A9031092590310925803E09126
:100B40009E03F0919F0319958091580381110FC066
:100B500081E08093580310925A0309C0803C09F445
:100B600075C0883C09F472C0883B09F07CCFE091E5
:100B7000590381E08E0F80935903F0E0E65AFC4F51
:100B800080818093BB00909159038091580329C0C4
:100B90008091A8038093BB0085EC8093BC0063CF59
:100BA00090917B0380917A03981758F5E0917B032D
:100BB00081E08E0F80937B03F0E0E458FC4F80814E
:100BC000E9CFE0917B0381E08E0F80937B038091DE
:100BD000BB00F0E0E458FC4F808390917B03809150
:100BE0007A039817C8F285E8D8CFE0917B0381E0BB
:100BF0008E0F80937B038091BB00F0E0E458FC4FA4
:100C000080838091A70381115DCF81E08093A6034B
:100C100084EA8093BC001092A90325CFD6DC809192
:100C20003703803230F4E0913703F0E0E85CFC4FAA
:100C300010826091370370E0E0919C03F0919D0376
:100C400088E393E01995109237030DCF85ECE1CF3F
:100C50001092360337CFFF920F931F93CF93DF93FA
:100C6000C62F042FF22E132F682F80EE92E0C1DBE7
:100C70006C2F80EE92E054DBCF2DD12F0C0F1D2F67
:100C8000111DC017D10729F0699180EE92E048DB71
:100C9000F8CF80EE92E02ADC91E0811190E0892F7C
:100CA000DF91CF911F910F91FF900895CF93DF9324
:100CB0001F92CDB7DEB749839E012F5F3F4F41E0C2
:100CC000CADF0F90DF91CF9108952F923F924F92FC
:100CD0005F926F927F928F929F92AF92BF92CF92CC
:100CE000DF92EF92FF920F931F93CF93DF9300D089
:100CF000CDB7DEB7E82E69834B8369010E94182BBC
:100D00004B015C01F12C1A822B81222E312C2801FF
:100D1000712C612C8B81F81608F044C06E2D80EE8A
:100D200092E067DB698180EE92E0FADA80EE92E091
:100D3000DDDB6E2D80EE92E05CDBA1014F195109E5
:100D40004132510514F040E250E06E2D80EE92E009
:100D5000CBDB80EE92E084DA892BD9F00115110506
:100D600069F480EE92E083DAF6019A81E90FF11DD1
:100D700097FDFA9580839F5F9A83EBCF0E94182B93
:100D8000681979098A099B0964157505860597050F
:100D900040F380EE92E0AADB8B81813208F080E2A2
:100DA000F80EB8CF01151105C1F00E94182B681973
:100DB00079098A099B0930E020E0601771078207F2
:100DC000930758F02A81822F220F990B2B81281725
:100DD000190619F014F08FEF8A838A810F900F9013
:100DE0000F90DF91CF911F910F91FF90EF90DF90C7
:100DF000CF90BF90AF909F908F907F906F905F90BB
:100E00004F903F902F9008950F931F9389019A015F
:100E100041E05BDF1F910F910895EF92FF920F93D6
:100E20001F93CF93DF931F92CDB7DEB7182F062FF6
:100E3000E42EF22E2091000230910102AE014F5FAC
:100E40005F4FE2DF81E090E001C0880FEA94EAF7AB
:100E50004981FF2069F0482B4983602F812F26DFCD
:100E60000F90DF91CF911F910F91FF90EF90089518
:100E700080954823F1CFDF92EF92FF920F931F935B
:100E8000CF93DF931F92CDB7DEB7F82EE62E142F47
:100E9000D22E2091000230910102AE014F5F5F4FD0
:100EA000B3DF882351F1812F8D19990BAC014F5F6E
:100EB0005F4F81E090E002C0880F991FDA94E2F75B
:100EC0000197042E01C0880F0A94EAF701C0000FB1
:100ED0004A95EAF7482F4095998149238023482B6A
:100EE00049836E2D8F2DE2DE0F90DF91CF911F9100
:100EF0000F91FF90EF90DF90089580E0F5CF28E606
:100F0000FC01208308950F93062F23E042E06AE15D
:100F1000FC018081B0DF0F9108950F93062F22E02E
:100F200044E06BE1FC018081A6DF0F9108950F93EF
:100F3000062F22E044E06CE1FC0180819CDF0F91F0
:100F400008950F931F93CF93DF93EC01009100025C
:100F5000109101029C012F5F3F4F42E063E48881C2
:100F6000B4DE89819A81982789279827DF91CF91CC
:100F70001F910F9108950F931F93CF93DF93EC016F
:100F800000910002109101029C012F5F3F4F42E04F
:100F900065E488819ADE89819A8198278927982734
:100FA000DF91CF911F910F9108950F931F93CF93CE
:100FB000DF93EC0100910002109101029C012F5F70
:100FC0003F4F42E067E4888180DE89819A819827DB
:100FD00089279827DF91CF911F910F910895262F90
:100FE00046E06BE6FC01808118CF0F93062F23E0CB
:100FF00042E06BE6FC0180813EDF0F910895CF93C4
:10100000DF93EC0161E0F1DF60E0CE0186DF60E0BC
:10101000CE018DDF60E0CE01DF91CF91E0CFCF93A5
:10102000C82F80EE92E0D6D96C2F8AEA93E06BDF6E
:101030008AEA93E0CF91E3CFCF93DF93EC018AEA82
:1010400093E07FDF998388838AEA93E094DF9B8330
:101050008A838AEA93E0A9DF9D838C83DF91CF9115
:1010600008958AEA93E04BCF90E080E008950F93D3
:101070001F93009709F488C06115710509F484C0B5
:101080000091060210910702209108023091090296
:101090000E3F1F4F2F4F3F4F09F068C0DB014D91AE
:1010A0005D916D917C91409306025093070260938D
:1010B0000802709309024091060250910702609164
:1010C000080270910902DC011296ED91FC91808179
:1010D0009181A281B3818093B4049093B504A093CD
:1010E000B604B093B70484819581A681B7818093BB
:1010F000B0049093B104A093B204B093B30480857C
:101100009185A285B3858093AC049093AD04A093A0
:10111000AE04B093AF0484859585A685B78580938A
:10112000A8049093A904A093AA04B093AB041092CE
:10113000A4041092A5041092A6041092A7048ED4C1
:1011400083E59DE09093BA038093B9039093BC0329
:101150008093BB0372D3009731F421E030E03093E9
:10116000B9042093B8041F910F91089500910602CD
:10117000109107022091080230910902FB010083BF
:1011800011832283338397CF8FEF9FEFECCF8F9222
:101190009F92AF92BF92CF92DF92EF92FF921F93F6
:1011A000CF93DF934B015C011091BB0482E090E090
:1011B0009093B9048093B80481149104A104B104FC
:1011C00041F48091BB04811104C08091BA04C1E054
:1011D0008111C0E0C12CD12C76018091BB0481111A
:1011E00006C08091BA04811102C0CC23D1F083E003
:1011F00090E09093B9048093B804CC2371F1CCE9CA
:10120000DFEF111101C0B4D7CE01DF91CF911F9153
:10121000FF90EF90DF90CF90BF90AF909F908F9016
:1012200008956AE070E080E090E00E94492B80E140
:10123000C80E87E2D81EE11CF11C8FEF88169806B5
:10124000A806B80631F0C1E08C149D04AE04BF04BA
:1012500008F0C0E080E025D3C0CFD0E0C0E0D1CF1F
:10126000CF92DF92EF92FF920F931F93CF93DF9372
:101270008F3F910511F008F050C02091B8043091D3
:10128000B9042330310539F02091B8043091B90404
:101290002130310531F424E030E03093B90420935B
:1012A000B8046A017B01EC0182309105A0F011E0E5
:1012B000AE01C701B601C0D2AB01BC01CE01112302
:1012C000F9F0DF91CF911F910F91FF90EF90DF9098
:1012D000CF900C94DD128C01000F111F07541C4F8E
:1012E000D8018D919C91892B11F30E94E7120297EE
:1012F000F1F6D801ED91FC91CE011995182FD8CFB8
:101300000E94FF1290E080E0DF91CF911F910F913A
:10131000FF90EF90DF90CF9008958FEF9FEFF4CF85
:1013200080E0BFC2CF93DF9386E090E09093B90452
:101330008093B8040FD3EC01E9EBF3E084E0DF0124
:101340001D928A95E9F7ACD61092B9041092B804B0
:10135000CE01DF91CF9108958091BA0408958091D4
:10136000A304089560930602709307028093080215
:101370009093090290E080E008950F931F93CF931C
:10138000DF9300D000D0CDB7DEB780914208815006
:101390008230A8F583E080934208CE0101964CDEAE
:1013A00069817A81072E000C880B990B0E94B7295E
:1013B00060934308709344088093450890934608CF
:1013C000E0917D04F0917E042091020230910302AD
:1013D0004091040250910502608171818281938164
:1013E0000E94162A18168CF480914208882349F02E
:1013F000833009F45EC0082E000C990B04C080E015
:10140000CACF82E090E080934208409172045091EC
:101410007304609174047091750481E090E020DFA2
:1014200060916A0470916B0480916C0490916D04DA
:101430006F5F7F4F8F4F9F4F60936A0470936B0471
:1014400080936C0490936D0400917D0410917E0450
:101450000E94B5299B01AC0160916E0470916F04EC
:1014600080917004909171040E941A2AF80160839F
:101470007183828393838091720490917304A0910D
:101480007404B09175040196A11DB11D809372047E
:1014900090937304A0937404B093750426960FB6CA
:1014A000F894DEBF0FBECDBFDF91CF911F910F919A
:1014B000089581E090E0A7CF0F931F93CF93DF9320
:1014C000EFECF3E088EBDF011D928A95E9F78AE7FC
:1014D00094E097838683CDE7D4E0D0931004C09343
:1014E0000F040EE614E0158B048BF0933A04E0939E
:1014F0003904F583E48321E030E0DC012D933C9353
:1015000085E392E0938782878FE794E099838883CD
:1015100040E050E060E87FEB40937604509377041E
:1015200060937804709379044AE057ED63E27CE3BA
:10153000D8014D935D936D937C931397C8E5D4E0E8
:101540008BE393E9A8E5B6ED88839983AA83BB83EF
:1015500086E191E1ADEFB9EC80935C0490935D047A
:10156000A0935E04B0935F048EEE92E2A5EEB6EF18
:101570008093600490936104A0936204B093630429
:1015800088E090E0ABE4B3EF80936404909365044B
:10159000A0936604B0936704A3ECB3E0B383A28383
:1015A000EDEBF3E01196FC93EE9387E492E09183E8
:1015B00080839383828382E498E09583848388E6A2
:1015C00094E015969C938E9314971396DC93CE9388
:1015D00012974FEF5FEFBA0118964D935D936D939D
:1015E0007C931B97E3E4F8E084E0DF011D928A9589
:1015F000E9F7CAE3D8E089E0FE0111928A95E9F79C
:1016000081E090E0A0E0B0E089839A83AB83BC8363
:1016100090E080E004DD81E08D83DF91CF911F9128
:101620000F91089580913A08811103C081E0809361
:101630003A0808954F925F926F927F928F929F9295
:10164000AF92BF92CF92DF92EF92FF920F931F93D0
:10165000F894409093045090940460909504709096
:101660009604C0908704D0908804E0908904F0909C
:101670008A044130510509F0A4C09B01AC01241932
:1016800035094609570929013A0100918F04109143
:101690009004209191043091920448015901840CE6
:1016A000951CA61CB71C80169106A206B306A0F4D2
:1016B00000918B0410918C0420918D0430918E0444
:1016C0000F5F1F4F2F4F3F4F00938B0410938C04DD
:1016D00020938D0430938E0480928F049092900416
:1016E000A0929104B092920400918B0410918C040A
:1016F00020918D0430918E048092970490929804EA
:10170000A0929904B0929A0400939B0410939C04B5
:1017100020939D0430939E046093930470939404EB
:101720008093950490939604A0E1B7E2A3019201FF
:101730000E9476306C0D7D1D8E1D9F1D6093870469
:10174000709388048093890490938A040091060220
:101750001091070220910802309109020F3F1F4F9C
:101760002F4F3F4FF1F00091060210910702209198
:101770000802309109020E3F1F4F2F4F3F4F89F053
:10178000C0900602D0900702E0900802F090090293
:1017900021E08C149D04AE04BF0408F420E02093E3
:1017A000A30478941F910F91FF90EF90DF90CF905A
:1017B000BF90AF909F908F907F906F905F904F9071
:1017C00008954B015C0184189508A608B708A30189
:1017D0009201261B370B480B590B641575058605BE
:1017E0009705D0F082169306A406B50640F420E0D3
:1017F00030E0A90181149104A104B10491F4A0E1A5
:10180000B7E20E947630A7019601261B370B480BE2
:10181000590BCA01B901C5CF82169306A406B506B5
:1018200070F7A0E1B7E2A50194010E9476306C0D3B
:101830007D1D8E1D9F1DB5CFFDCECF93DF9300D0B4
:101840001F92CDB7DEB71C821B821A8219821092BA
:101850009F041092A0041092A1041092A204BE0151
:101860006F5F7F4FCE0103960E94B92769817A810D
:101870008B819C810E940C22009761F4BE016F5FF6
:101880007F4FCE0103960E94C52769817A818B81A3
:101890009C812BD50F900F900F900F90DF91CF91DF
:1018A0000895FF920F931F93CF93DF93082F60E06B
:1018B00070E0CB010E94492BFF24F3940E94F52095
:1018C000EC01892B89F010E0CE3F8FEFD80769F04B
:1018D000002361F160E070E0CB010E94492B81E0C0
:1018E00090E0892B59F322C011E022D5EC01892B1D
:1018F00021F0CE3F8FEFD80759F711111EC011E02C
:10190000229609F410E00E94A520EC01892B21F019
:10191000CE3F8FEFD807E1F6111111C011E0CE3F95
:101920008FEFD80709F410E001110BC0CE01DF9151
:10193000CF911F910F91FF90089511E0E4CF11E036
:10194000F3CF60E070E0CB010E94492B1F25812F6F
:1019500090E0C7CFCF93DF938091A304882321F039
:1019600060E070E0CB0149D632D6D0E0C0E0892BF0
:1019700071F06AE070E080E090E00E94492B81E025
:1019800090DF25D62196C03727E1D20781F724D6EC
:101990000E9460221092BB041092BA041092B40408
:1019A0001092B5041092B6041092B7041092B004CD
:1019B0001092B1041092B2041092B3041092AC04CD
:1019C0001092AD041092AE041092AF041092A804CD
:1019D0001092A9041092AA041092AB041092A404CD
:1019E0001092A5041092A6041092A7044EEF5FEF88
:1019F0006FEF7FEF40930602509307026093080257
:101A0000709309021092A304E7E9F4E028E0DF01F3
:101A10001D922A95E9F71092930410929404109263
:101A200095041092960410928F04109290041092D4
:101A300091041092920410928B0410928C041092D4
:101A40008D0410928E0410928704109288041092D4
:101A5000890410928A04DF91CF9108951092C704EF
:101A60001092C8041092C9041092CA041092C604BD
:101A70008091CF049091D0049093C5048093C404C6
:101A80001092C3041092C2041092BE041092BF04BC
:101A90001092C0041092C1041092CC041092CB0496
:101AA00090E080E00895CF92DF92EF92FF920F9343
:101AB0001F93CF938C01019709F055C02091CF045B
:101AC0003091D0048091C4049091C5044091CF041A
:101AD0005091D0045093C5044093C404281739078B
:101AE00081F01092C3041092C2041092BE041092AE
:101AF000BF041092C0041092C1041092CC04109242
:101B0000CB048091CF049091D004019761F580912E
:101B1000CB049091CC04892B21F480910A0281118D
:101B200012C08091CB049091CC040197E1F4809194
:101B3000BE049091BF04A091C004B091C10401976C
:101B4000A105B10581F41092BE041092BF04109259
:101B5000C0041092C10410920A0282E090E09093B7
:101B6000CC048093CB048091CF049091D004019752
:101B700009F01CC18091E5049091E604801791075B
:101B800009F014C18091E1049091E204A091E30472
:101B9000B091E404009709F409C12091E0042111F7
:101BA0000DC04091E1045091E2046091E304709112
:101BB000E404452B462B472B09F4F8C02091CB04B5
:101BC0003091CC042230310509F0F0C02091C204DC
:101BD0002111ECC0FC01C080D180E280F3808091B3
:101BE000C604882309F4D3C08091D2049091D30411
:101BF000892B09F4FEC02091D2043091D30481E0F6
:101C00002230310509F080E02091D2043091D304D4
:101C1000C1E02130310549F02091D2043091D30444
:101C2000C1E02230310509F0C0E0882309F456C034
:101C30002091DC043091DD044091DE045091DF04FA
:101C4000C701B6010E94162A87FD14C02091DC044A
:101C50003091DD044091DE045091DF046091C704AF
:101C60007091C8048091C9049091CA040E94B1295E
:101C700087FD22C02091DC043091DD044091DE0418
:101C80005091DF04C701B6010E94162A181634F5D8
:101C90002091DC043091DD044091DE045091DF049A
:101CA0006091C7047091C8048091C9049091CA04DE
:101CB0000E94B129811112C08091D4049091D50461
:101CC000A091D604B091D704892B8A2B8B2B19F4C1
:101CD00081E08093C30481E08093C204CC2309F4A3
:101CE00056C02091DC043091DD044091DE04509117
:101CF000DF04C701B6010E94B12987FF14C02091FB
:101D0000DC043091DD044091DE045091DF046091E9
:101D1000C7047091C8048091C9049091CA040E94BC
:101D2000162A87FF22C02091DC043091DD04409107
:101D3000DE045091DF04C701B6010E94B129811170
:101D400026C02091DC043091DD044091DE045091E6
:101D5000DF046091C7047091C8048091C904909118
:101D6000CA040E94162A181694F48091D404909103
:101D7000D504A091D604B091D704892B8A2B8B2B44
:101D800019F481E08093C30481E08093C20481E070
:101D90009091C204911180E08093C604C092C70460
:101DA000D092C804E092C904F092CA04013011052F
:101DB00009F067C18091CB049091CC04892BD9F4B0
:101DC0001092D1041092C20480910A02882379F003
:101DD00082E090E09093CC048093CB0410920A02AE
:101DE0002091CF043091D00481E0232BE9F080E0F2
:101DF0001BC081E009CF10920A028091D104882390
:101E000049F01092C3041092CC041092CB041092AB
:101E1000D104EDCF8091CF049091D004892BE1F0D3
:101E20008091C2041092C2042091CB043091CC0462
:101E30002230310509F45EC088F42115310509F41A
:101E400048C02130310509F4F3C01092C304109248
:101E5000C2041092D10438C081E0E6CF23303105AE
:101E600009F4B1C02430310581F74091BE0450918E
:101E7000BF046091C0047091C10441155105610512
:101E8000710561F041505109610971094093BE0427
:101E90005093BF046093C0047093C1044091BE048A
:101EA0005091BF046091C0047091C104452B462B32
:101EB000472BD9F42091CD043091CE042130310547
:101EC00009F046C01092C3041092CC041092CB04C7
:101ED0000CC080910A02882341F082E090E0909348
:101EE000CC048093CB0410920A021092BC0480911F
:101EF000C304CEC08823C9F38091D4049091D50443
:101F0000A091D604B091D704181619061A061B061C
:101F10000CF07DC08091CF049091D004019709F01E
:101F200076C08091D4049091D504A091D604B0914C
:101F3000D7048093BE049093BF04A093C004B093D1
:101F4000C10483E090E09093CC048093CB04CDCF88
:101F50004091D8045091D9046091DA047091DB0467
:101F6000452B462B472BA9F01092C3048091D8042F
:101F70009091D904A091DA04B091DB048093BE045F
:101F80009093BF04A093C004B093C10481E090E09B
:101F9000DACF882399F080910B0290910C02A091E6
:101FA0000D02B0910E028093BE049093BF04A093E3
:101FB000C004B093C10484E090E0C5CF1092C30484
:101FC00082E090E0C0CF8091BE049091BF04A091C8
:101FD000C004B091C1040097A105B10559F0019763
:101FE000A109B1098093BE049093BF04A093C004DB
:101FF000B093C1048091BE049091BF04A091C0042D
:10200000B091C104892B8A2B8B2B09F06ECF809164
:102010000B0290910C02A0910D02B0910E02892B3F
:102020008A2B8B2B09F44ECF81E08093C304B3CF6E
:102030004091BE045091BF046091C0047091C104EE
:10204000411551056105710561F041505109610962
:1020500071094093BE045093BF046093C004709311
:10206000C1044091BE045091BF046091C0047091BE
:10207000C104452B462B472B09F037CF8111C7CF21
:102080009FCF8091BC04882309F431CF8091BD0497
:10209000CF911F910F91FF90EF90DF90CF90089517
:1020A0001092C7041092C8041092C9041092CA0476
:1020B0001092C6041092CC041092CB041092C50466
:1020C0001092C4041092E6041092E5041092C30426
:1020D0001092C2041092BE041092BF041092C00469
:1020E0001092C1041092BD041092BC041092E1043D
:1020F0001092E2041092E3041092E4041092E004BF
:102100001092DC041092DD041092DE041092DF04C1
:1021100088EE93E0A0E0B0E080930B0290930C0275
:10212000A0930D02B0930E021092D8041092D9041D
:102130001092DA041092DB041092D4041092D504A9
:102140001092D6041092D7041092D3041092D204A5
:1021500081E080930A021092D1041092D004109270
:10216000CF041092CE041092CD0490E080E0089548
:102170008091CF049091D004892BE1F480910A02E0
:10218000882351F08091D104811106C081E08093B1
:10219000BD048093BC0408958091D104882341F04C
:1021A00080910A02811104C01092BD0481E0F1CF38
:1021B0001092BC04089582E090E0FA01918380833C
:1021C0008FEF9FEF0895CF93DF93EA01009711F00F
:1021D0000E94DA221982188290E080E0DF91CF918C
:1021E0000895DB01009719F48FEF8C9308952EEF7B
:1021F0002C93FC017096E031F10508F037C0882778
:10220000EB5FFE4E8F4F0C946E3034113211301153
:102210002E112C112A1126112811241122112011FE
:102220001D11191115111B11361180E311968C9394
:10223000089589E2FBCF82E2F9CF11961C920895AE
:1022400083E2F4CF81E2F2CF81E1F0CF87E2EECFFB
:102250008AE2ECCF80E1EACF84E2E8CF88E2E6CF01
:1022600086E2E4CF81E3E2CF83E3E0CF80E2DECF1A
:102270008091F3049091F40408959093F404809372
:10228000F30408958091F20408959091F204892B4B
:102290008093F2040895982F90958091F2048923F9
:1022A0008093F20408958091F10408958091EF04E1
:1022B0009091F00408956115710559F0FB0130E02B
:1022C00020E070E060E02417350719F06115710512
:1022D00011F0CB010895A081B181A817B90709F4C5
:1022E000BF012F5F3F4F3696EECF8091F5048111ED
:1022F0001CC060D266D29093E8048093E7040E94E9
:102300007E1B0E94901B9093EC048093EB040E9430
:102310000D200E9414209093EA048093E90481E048
:102320008093F50490E080E0089584EF9FEF089596
:102330008F929F92AF92BF92CF92DF92EF92FF92D5
:102340000F931F93CF93DF9300D000D000D01F9244
:10235000CDB7DEB71A86198618861F821E821D82A7
:102360001C821B821A8219828091F50407EF1FEFED
:10237000882309F49CC08E010D5F1F4F9E012B5FC7
:102380003F4FAE01495F5F4FBE01675F7F4F90E0F7
:1023900080E00E9491218C01009721F00596029720
:1023A00008F0DBC029853A852115310509F402C101
:1023B000ED80FE804B815C81B701640F751F8F81BA
:1023C00098858617970708F4F5C0E20EF31ED7012B
:1023D0009C91903C09F07FC04230510508F47BC0CD
:1023E00011968C914091F3045091F404452B09F41B
:1023F0009CC0913F08F071C02CE1290F2D3008F4EA
:102400008BC02DE2290F203108F489C0903C21F4C3
:102410008150823008F483C088E3890F8B3008F440
:1024200081C091EFC92E90E1D92EEBEDF0E16D81E5
:102430007E81AE014F5F5F4F89859A8519955C015A
:10244000C114D104A1F189809A808114910479F199
:102450008B819C818815990508F487C010E000E005
:102460004B815C8170E060E0C7010E9498300115EB
:102470001105E9F449815A8169857A858D819E81AA
:10248000680F791FC501F6011995E980FA800D8161
:102490001E812F81388549855A856FEF7FEF81E056
:1024A00090E00E942C218C01892B09F056C0C801B4
:1024B0002A960FB6F894DEBF0FBECDBFDF91CF9145
:1024C0001F910F91FF90EF90DF90CF90BF90AF9052
:1024D0009F908F90089580E085CF30E020E0220F1C
:1024E000331FF901E951FB4F0190F081E02D309746
:1024F00009F497CF892F90E01995009709F491CFAF
:10250000DC011296ED91FC9113971496CD90DC901E
:10251000309709F08CCF1FC021E030E0E0CF22E0FF
:1025200030E0DDCF23E030E0DACFD12CC12CE3EE78
:10253000F0E19F3F09F07BCFE091E704F091E804E0
:10254000309721F4C90104EF1FEF0CC08FEF90E02A
:1025500019950097A9F604EF1FEF89859A850097D2
:1025600009F4A5CF0E94DA22A2CF0E945B228C013F
:1025700089859A850E94DA2270E060E0C4010E9499
:10258000F42198878F830E9429219E838D836F81F8
:1025900078856115710559F0C8010E94FD239A875D
:1025A000898706EF1FEF892B09F058CF59CF08EF25
:1025B0001FEF56CF08EF1FEFD0CF2091F504222355
:1025C00019F020E00C94951B87EF9FEF0895809100
:1025D000F3049091F40408950E9419200E94731F3F
:1025E000F5D0E7EEF4E088E0DF011D928A95E9F787
:1025F0001092F50490E080E008950C94D11D21E044
:1026000040E050E0BA010C94951B86E090E0FA019E
:102610009183808390E080E0089547E050E06AE491
:1026200072E049CEDF92EF92FF920F931F93CF9308
:10263000DF938A01EC01C60FD71FE090F904F090F8
:10264000FA04D9800E944322D816190678F082E055
:1026500090E0F801918380838EEF9FEFDF91CF911F
:102660001F910F91FF90EF90DF900895EF2841F4B4
:1026700082E090E0F8019183808384EF9FEFEECFBA
:1026800089818093F80490E00196F801918380831A
:1026900090E080E0E3CFCF93DF93EA010E94821EB7
:1026A000882321F00E9450220E94831E82E090E045
:1026B000998388838BEF9FEFDF91CF910895CF931C
:1026C000DF93EB0186E0FB0111928A95E9F78FEF2A
:1026D0008883D8DD8983E7DD8A83E8DD9D838C8369
:1026E000DF91CF910895CF93DF93EA010E94851E79
:1026F000811109C082E090E09983888385EF9FEF84
:10270000DF91CF91089590E080E0B7DD81E090E027
:102710009983888390E080E0F3CF0F931F93CF934A
:10272000DF93EA018C01060F171F0E94851E81119D
:102730000BC082E090E09983888385EF9FEFDF9163
:10274000CF911F910F910895F8018181823038F067
:1027500082E090E0998388838EEF9FEFF0CF81E055
:1027600090E08BDD88E090E09983888390E080E0C2
:10277000E6CFCF93DF930097D1F4EB01FB013296C4
:1027800086E0DF011D928A95E9F78FEF888385E067
:1027900089831A820E9443228B830E9442229D8356
:1027A0008C8381E08E838F83DF91CF910895DF91B9
:1027B000CF9117CD8DE093E19093F7048093F604C9
:1027C00008958091F6049091F70408951092F7040B
:1027D0001092F60408958091F9049091FA040895F6
:1027E000411105C0611571058105910561F0609386
:1027F000F9047093FA048093FB049093FC044093D3
:10280000FD0481E0089580E00895FF920F931F93E7
:10281000CF93DF938A01EC01C60FD71FF9800E9486
:102820004322F816190668F082E090E0F8019183DF
:1028300080838EEF9FEFDF91CF911F910F91FF90DB
:1028400008956C817D818E819F814B81C9DF8111CB
:1028500008C082E090E0F8019183808384EF9FEFCD
:10286000EACF89818093F80490E00196F801918382
:10287000808390E080E0DFCFCF93DF93EA01FC011B
:10288000E60FF71F64817581868197814381A8DFF8
:10289000811109C082E090E09983888384EF9FEFE3
:1028A000DF91CF91089581E090E09983888390E053
:1028B00080E0F6CFE9EFF4E04081518162817381DD
:1028C000480F511D611D711D4083518362837383C5
:1028D0000895CF93C091F8044C2F50E06091F90413
:1028E0007091FA0401960E948F308C2FE3DF1092D2
:1028F000F804CF910895009799F48091F90490918C
:10290000FA042FEFFB012083892B59F02091F80462
:1029100030E02F5F3F4F2417350719F4CB01D9CF93
:1029200060CC0895009799F48091F9049091FA048D
:102930002FEFFB012083892B59F02091F80430E020
:102940002F5F3F4F2417350719F4CB01C2CF49CC75
:10295000089523E1AC01249FC001259F900D11240F
:10296000E0910205F0910305E80FF91F23813481FE
:102970002250310981E02230310508F080E00895CD
:102980000F931F93CF93DF930091040510910505DA
:10299000D0E0C0E080E00C171D0749F491E0811100
:1029A00090E0892FDF91CF911F910F9108958111B0
:1029B000F5CFCE01CEDF2196EECFA0910205B091EA
:1029C0000305109729F12091040530910505821720
:1029D0009307F0F453E1589F9001599F300D112453
:1029E000A20FB31FED91FC911197309789F01296C9
:1029F0008C91681768F48DE0689FE00DF11D11243B
:102A000080819181892B21F081E09281491708F022
:102A100080E008959C0143E1429FC001439F900DD7
:102A20001124E0910205F0910305E80FF91F838559
:102A3000823091F481E090E06581768140910F02CF
:102A4000509110026417750711F490E080E0892B13
:102A500019F081E0232B09F080E00895FC01A081AA
:102A6000B1818DE0689FA00DB11D112413964D9189
:102A70005C9185859685489F9001499F300D589FB0
:102A8000300D1124C9010196611103C0478144FD35
:102A900004960895EF92FF920F931F93CF93DF93C5
:102AA000EA01FC01E60FF71F02811381E480F58043
:102AB0004F2D6E2DC80181DF81110DC082E090E0A5
:102AC000998388838EEF9FEFDF91CF911F910F91B4
:102AD000FF90EF900895C8013CDF882339F082E031
:102AE00090E09983888388EF9FEFEECF10931602D2
:102AF00000931502E0921702F092180281E090E034
:102B00009983888390E080E0DFCFCF92DF92EF92CD
:102B1000FF920F931F93CF93DF937A01EC01C60FBF
:102B2000D71FC0901502D090160200911702109185
:102B30001802412F602FC60140DF811110C082E0D2
:102B400090E0F701918380838AEF9FEFDF91CF912F
:102B50001F910F91FF90EF90DF90CF900895C601E5
:102B6000F8DE882341F082E090E0F70191838083D2
:102B700088EF9FEFEBCF4C815D816E817F819A81E1
:102B800089818F3F41F082E090E0F701918380835B
:102B90008EEF9FEFDBCFE3E1EC9D9001ED9D300DDB
:102BA0001124E0910205F0910305E20FF31F01905B
:102BB000F081E02D2DE0029FE00DF11D1124019028
:102BC000F081E02D27E0129FE00DF11D112480839C
:102BD00091838B81828343835483658376831F5FD4
:102BE0001093180281E090E0F7019183808390E0D8
:102BF00080E0ACCFEF92FF920F931F93CF93DF93C0
:102C00007A018C01060F171FC0910205D0910305B0
:102C1000209781F021E030E0F8018281938140919A
:102C20000405509105058417950710F030E020E069
:102C3000232B71F482E090E0F701918380838EEF83
:102C40009FEFDF91CF911F910F91FF90EF9008952B
:102C500043E1489F9001499F300D1124C20FD31FBB
:102C600078DE882341F082E090E0F7019183808351
:102C700088EF9FEFE6CFF8012481358120383105B8
:102C8000C8F687818111D6CF4181842F90E08F7E55
:102C9000009741F082E090E0F7019183808386EF16
:102CA0009FEFCFCF4F833E832D83268128871986C0
:102CB000223010F421E0288721E030E0F701318351
:102CC0002083BFCF88E090E0FA019183808390E079
:102CD00080E00895FB018FEF808381E181838FEF96
:102CE0009FEF9383828380E890E0958384831682AC
:102CF00017820895FB018FEF808391E09183828397
:102D00009383848384E3858381E090E09783868343
:102D1000089582E090E0FA019183808380EF9FEF35
:102D20000895DF92EF92FF920F931F93CF93DF935B
:102D3000EA01FC01E60FF71F8181813071F082E02A
:102D400090E0998388838FEF9FEFDF91CF911F9160
:102D50000F91FF90EF90DF90089582819381D4804E
:102D60002581E680F7800091020510910305011589
:102D7000110539F482E090E0998388838CEF9FEF0E
:102D8000E4CF40910405509105058417950738F06C
:102D900082E090E0998388838EEF9FEFD6CF892BD6
:102DA00039F082E090E09983888386EF9FEFCDCF62
:102DB0008D2D8D7FB1F72130A1F781E0D11006C0B4
:102DC00091E0E916F10431F080E004C0E2E0EE1693
:102DD000F104D0F3882329F390E080E0BADD882362
:102DE00039F082E090E09983888388EF9FEFADCF40
:102DF000F801D38681E08487F686E586108A1786F7
:102E000081E090E09983888390E080E09ECF4DE060
:102E100050E064E772E04FCA8F929F92BF92CF92C8
:102E2000DF92EF92FF920F931F93CF93DF93EA010C
:102E3000FC01E60FF71F828193810481B580E09148
:102E40000205F0910305309791F482E090E09983B8
:102E500088838CEF9FEFDF91CF911F910F91FF90AF
:102E6000EF90DF90CF90BF909F908F90089520912A
:102E70000405309105058217930738F082E090E051
:102E8000998388838EEF9FEFE6CF23E1289F60012F
:102E9000299FD00C1124EC0DFD1DE080F180E11480
:102EA000F10499F28281081748F78DE0089F8001AC
:102EB0001124E00EF11EF70180819181892B29F602
:102EC000BB20E1F2F7E0BF9E40011124C4010E9443
:102ED000D722F70191838083E0910205F0910305E9
:102EE000EC0DFD1D0190F081E02DE00FF11F8081C0
:102EF0009181009739F482E090E0998388838DEF87
:102F00009FEFA9CFA40170E060E00E94983080910B
:102F1000020590910305C80ED91EF60180819181AA
:102F2000080F191FF801B28281E090E0998388832D
:102F300090E080E090CFAF92BF92CF92DF92FF926D
:102F40000F931F93CF93DF93EA01FC01E60FF71F66
:102F500082819381F480009102051091030501158F
:102F6000110581F482E090E0998388838CEF9FEFD4
:102F7000DF91CF911F910F91FF90DF90CF90BF9085
:102F8000AF900895209104053091050582179307AD
:102F900038F082E090E0998388838EEF9FEFE8CF4E
:102FA0002FEF2F0D2C3FA8F723E1289F6001299FC9
:102FB000D00C11240C0D1D1DF80180819181892BED
:102FC00089F6FDE0FF9E50011124C5010E94D72221
:102FD000F80191838083E0910205F0910305EC0DE7
:102FE000FD1D80819181009739F482E090E0998302
:102FF00088838DEF9FEFBCCFA50170E060E00E9459
:103000009830E0910205F0910305EC0DFD1DF28270
:1030100081E090E09983888390E080E0A9CFCF920F
:10302000DF92EF92FF920F931F93CF93DF93860F60
:10303000971FFC0102811381809102059091030585
:10304000892B81F082E090E0FA01918380838CEFFC
:103050009FEFDF91CF911F910F91FF90EF90DF9045
:10306000CF900895C801B0E0A0E00197A109B1098F
:103070008F3F9F4FA105B10540F082E090E0FA013B
:10308000918380838EEF9FEFE4CF7A0183E1809F6D
:103090006001819FD00C1124C6010E94D722EC014F
:1030A000009741F482E090E0F701918380838DEFF7
:1030B0009FEFCFCFA60170E060E00E949830D093E0
:1030C0000305C0930205109305050093040590E0E5
:1030D00080E02FEF3FEF41E061E070E08017910763
:1030E00041F481E090E0F7019183808390E080E0FB
:1030F000B0CF3A8B298B1B864C877E876D87188AC9
:103100001F8601966396EACFEF92FF921F93CF93AB
:10311000DF93EC0110E0F12CE12C6A811617B0F07E
:1031200083E0689FB0011124AE014F5E5F4FC7017D
:103130000E940423009721F02FEF3FEF3A8B298B59
:10314000DF91CF911F91FF90EF900895612FCE01F5
:1031500085DC61E070E00E94F421E816F90608F4CD
:103160007C011F5FDACFF8942091000530910105B2
:1031700081E02115310509F080E0232B09F07894D6
:1031800008952F923F924F925F926F927F928F920B
:103190009F92AF92BF92CF92DF92EF92FF920F93E6
:1031A0001F93CF93DF933C01660E771EF30182815C
:1031B00093814C01B12CA12CC0910205D091030543
:1031C000209769F021E030E06091040570910505D9
:1031D0008617970710F030E020E0232BD1F482E02F
:1031E00090E0FA01918380838EEF9FEFDF91CF9182
:1031F0001F910F91FF90EF90DF90CF90BF90AF9015
:103200009F908F907F906F905F904F903F902F9006
:1032100008958092190290921A02A0921B02B09215
:103220001C0263E1689F9001699F300D1124C20F59
:10323000D31FF3018181833040F082E090E0FA01F6
:103240009183808386EF9FEFD1CF2A012B813C8130
:10325000232BF1F4288139819F8191FF2EC0232BEC
:1032600009F46FC0209107059A81422F490F552715
:10327000551FBA0141E050E06138710514F050E08B
:1032800040E0452B09F45DC02A87920F9093070513
:103290008150823008F481C066DF882309F4D8C0E9
:1032A000F3018181813009F48DC008F47BC0823044
:1032B00009F4C6C090E080E0ADC0232B09F441C002
:1032C000209106059A81E22FE90FFF27FF1F41E0B9
:1032D00050E0ED3FF10514F050E040E0452B89F15E
:1032E0002A87920F90930605D3CFA081B181A20FB8
:1032F000B31F11966C91060F111D0196295F3F4F68
:103300008417950794F38D859E85089F1001099F6A
:10331000300C189F300C1124C114D104D1F48F81CA
:1033200084FF17C00E944222F5E02F0E311C21E0DD
:103330008215930508F420E0A701435F5F4F211138
:103340000EC082E090E0F2019183808387EF9FEFCF
:103350004DCF0E9442222FEF221A320AE8CF8881F5
:103360009981E80EF91EF70114830383FFEFCF1A4A
:10337000DF0A7A018A818C151D0409F00CF48CCFC8
:10338000E881F981EE0DFF1D428150E030E020E040
:1033900010E000E090E080E0B3CFF12CE12CD12CE4
:1033A000C12CE8CF81E090E09C838B83E9DA88230D
:1033B00009F480CF81E090E00E943D1180E40E94FA
:1033C0004B1178CF89899A89019661F083E090E06A
:1033D0009C838B8382E090E00E943D1180E40E94F8
:1033E000451168CF8D819E8120910F02309110028E
:1033F00082179307D1F46091130270911402AE0109
:103400004F5E5F4F80911102909112020E94BC2387
:103410000097E1F2789422E030E0F20131832083DA
:10342000892B99F08DEF9FEFE1CE89288A288B2890
:1034300069F6029758F6CE0167DE188A1F86E8CF34
:1034400082E090E09C838B8335CF90E080E0CECE0D
:1034500082E090E0F2019183808385EF9FEFC6CEFA
:103460008F929F92AF92BF92CF92DF92EF92FF9294
:103470000F931F93CF93DF93EA018C01060F171F61
:10348000F8018181833098F082E090E0998388830D
:1034900086EF9FEFDF91CF911F910F91FF90EF90FB
:1034A000DF90CF90BF90AF909F908F9008958091C4
:1034B000020590910305892B61F081E090E0209155
:1034C000040530910505232B11F490E080E0892B51
:1034D00039F482E090E0998388838EEF9FEFDACF12
:1034E00042DE882309F4E0C0F8018181813009F4CB
:1034F00096C0E8F0823099F42091040530910505DA
:10350000E0910205F091030590E080E041E050E099
:103510002817390709F0BEC033DA811117C0789433
:1035200081E090E09983888390E080E0B3CF2091A0
:10353000040530910505E0910205F091030590E046
:1035400080E041E050E02817390741F481E090E045
:103550000E943D1180E40E944B11E1CF6381748190
:10356000672B11F05483438301967396ECCFE0915F
:103570000205F0910305E00FF11F23813481223011
:103580003105D9F4218932892F3F3F4FB1F425818C
:10359000368140910F02509110022417350761F5D2
:1035A000AF014F5E5F4F60911302709114028091E2
:1035B0001102909112020E94BC23EFEFCE1ADE0A94
:1035C000EE0AFE0A0D5E1F4F40910405509105055D
:1035D00070E060E0C416D506E606F70644F50097ED
:1035E00031F27894892B09F49BCF82E090E09983A3
:1035F00088838DEF9FEF4ECFC114D104E104F10415
:10360000E1F622303105C8F6CF017EDDE0910205FA
:10361000F0910305E00FF11F108A1786CECF10E05E
:1036200000E090E080E0C12CD12C7601CDCF009756
:10363000C1F610E000E0812C912C540183E0E82ECB
:10364000F12C1AC0E0910205F0910305E00FF11F83
:1036500083819481029749F4F482E38282E090E0CE
:103660000E943D1180E40E944511FFEF8F1A9F0ACE
:10367000AF0ABF0A0D5E1F4F8091040590910505AA
:10368000B0E0A0E088169906AA06BB06DCF290E03E
:1036900080E0A7CF638174816230710511F4548397
:1036A00043830196739634CF82E090E099838883B8
:1036B00085EF9FEFEFCE0097B9F48FEFFB0180838A
:1036C0002091190230911A0243E1429FC001439FA9
:1036D000900D1124E0910205F0910305E80FF91F08
:1036E0008285FB01818308950C94F11088E090E0BD
:1036F000FA019183808390E080E0089510920105A3
:1037000010920005E2E0F5E086E0DF011D928A9567
:10371000E9F787E097E19093FF048093FE04089512
:103720008091FE049091FF0408952F923F924F9252
:103730005F926F927F928F929F92AF92BF92CF9241
:10374000DF92EF92FF920F931F93CF93DF93CDB74A
:10375000DEB72F970FB6F894DEBF0FBECDBFF8943B
:10376000E0910005F09101053196F0930105E09399
:1037700000057894409002055090030541145104CF
:1037800009F40CC2E0910405F0910505EF2B09F452
:1037900005C22D8749875A876B877C8798878F83D7
:1037A0001201B12CA12C10E000E080910405909151
:1037B0000505A816B90618F40115110529F1F894A4
:1037C00080910005909101050197909301058093E8
:1037D00000057894C8012F960FB6F894DEBF0FBE8F
:1037E000CDBFDF91CF911F910F91FF90EF90DF90B0
:1037F000CF90BF90AF909F908F907F906F905F9091
:103800004F903F902F9008957101E418F508D10171
:1038100017968C91179781FD54C013968D919C91AA
:103820001497039709F04DC015968D919C91EF81E7
:10383000F8858E179F0709F044C0B50190E080E03D
:103840007FD48A8320910205309103053D832C8328
:103850003D85332309F44CC04C815D81452B09F42F
:103860009AC18091040590910505A816B90608F043
:1038700092C1C501CFD88823E9F06C817D816E0D9E
:103880007F1D7D836C83DB011F968D919C91892B1D
:1038900089F0D12CC12CF12CE12CAC81BD81129688
:1038A0008C9112978E151F0409F094F450961C9277
:1038B0001E921F972A81222321F0B50190E080E01B
:1038C00041D43FEFA31AB30A43E1240E311C6DCF5C
:1038D000AC81BD81ED91FC91EC0DFD1D8581968142
:1038E00069D6BFEFEB1AFB0AEDE0CE0ED11CD5CFA7
:1038F000EC81FD81309709F44EC1809104059091CF
:103900000505A816B90608F046C1EE0DFF1DFF8794
:10391000EE87C5017FD88B83882339F1AE85BF85BB
:103920001F968D919C915097019621E01D964D9187
:103930005C918417950709F020E02E831982712C81
:1039400010E000E0AE85BF8512968C91781608F4E1
:103950005DC0EE85FF8587859089019665857685B2
:103960000E943830908B8787A5CFB1E0BE83E6CF29
:10397000992493946BC01BD6F6019683858382C0ED
:10398000D601ED90FC90B7E06B9EE00CF11C112489
:10399000F7016381748180818F3F61F121E030E024
:1039A00002C0220F331F8A95E2F7C901092E000CCD
:1039B000AA0BBB0BFB01408151816281738184237F
:1039C0009523A623B72321E0892B8A2B8B2B09F47F
:1039D00020E0D4012C93D70111968C91F601238518
:1039E0003485820F932F911D880E991E148613869D
:1039F00063949BC0418150E0C4010E948F30EBCFA3
:103A0000998206EF1FEFC5C01982C3C0F981F11179
:103A1000A0CFEDE07E9E70011124AE85BF85CD90D4
:103A2000DC90CE0CDF1C15D49D838C83BB81BB2323
:103A300009F49ECF81E0EE85FF8527853089232B11
:103A400009F080E0982E882309F458C0672D8E85F0
:103A50009F8504D8D60118969C938E93179761E0A2
:103A600070E0C2D4EE85FF85218932892F3F32076D
:103A700009F481CFBC01C901C0D6D60116969C932A
:103A80008E931597D60115968D919C911697009758
:103A900009F4B6CFEC81FD818E0F9F1F1A969C937F
:103AA0008E931997AE85BF85ED91FC911197EE0E1F
:103AB000FF1EF70121853285148613861A968C9194
:103AC000870DD9018D93711016C0EE85FF85878112
:103AD00084FF11C049855A856B857C85F901418336
:103AE000528363837483F701838594850496A80FBA
:103AF000B91F14861386F701B287A187D6011596E0
:103B00008D919C911697892B09F443C0EE85FF8512
:103B10002581368180910F02909110022817390774
:103B200079F019968D909C90612CD60112968C910B
:103B30001297681608F424CF1A969C928E921997C1
:103B4000BE81BB2309F460CF61E070E0F60187819C
:103B500090854AD4D6011796ED90FC90189715964B
:103B60004D915C91E1E0F0E0BA81BB2311F0F0E00F
:103B7000E0E00C811D819C01B501882799278E1BEF
:103B80009F0B6AD38C01892B21F0F60185819681E8
:103B900011D57394D7CE0FEF1FEF8CCE10E000E05D
:103BA0000ECE2F923F924F925F926F927F928F92A2
:103BB0009F92AF92BF92CF92DF92EF92FF920F93BC
:103BC0001F93CF93DF93809102059091030510E03E
:103BD00000E0892BA9F0C7DA0AEF1FEF882381F0F4
:103BE0002090040530900505C0910205D091030591
:103BF000D12CC12C10E000E02C143D04A9F47894E1
:103C0000C801DF91CF911F910F91FF90EF90DF904E
:103C1000CF90BF90AF909F908F907F906F905F906C
:103C20004F903F902F900895C6010E940A15882357
:103C300009F18B819C810397E9F48F859889892B01
:103C4000C9F0B60190E080E07BD221E030E088232B
:103C500011F030E020E044245524421A530AB12CDC
:103C6000A12C912C812C8A818815190409F038F433
:103C7000188A1F864FEFC41AD40A6396BDCFE88115
:103C8000F981EA0DFB1D85819681892BA1F161E007
:103C900070E087819085A8D33C01DBD28C01E8815C
:103CA000F981EA0DFB1D8185928525813681200FE2
:103CB000311FAC01421B530B9A0147815085421BB7
:103CC000530B70E060E00E949830E881F981EA0DC2
:103CD000FB1DE780F084458156819301B601C20146
:103CE000BBD28C01892B39F0E881F981EA0DFB1DEB
:103CF000858196815FD45FEF851A950A8DE0A80EC5
:103D0000B11CB1CF30CA789408952F923F924F9250
:103D10005F926F927F929F92AF92BF92CF92DF920B
:103D2000EF92FF920F931F93CF93DF9300D000D0B9
:103D3000CDB7DEB700910205109103059924939445
:103D40000115110509F43EC0A0900405B0900505C9
:103D50000ADA982E8823B1F1109203051092020519
:103D600010920505109204051092060510920705A1
:103D70008FEF9FEFDC018093190290931A02A093BA
:103D80001B02B0931C0278947FD31E830D83C12C39
:103D9000D12C7601C501B0E0A0E089839A83AB8382
:103DA000BC8322242A94322C89819A81AB81BC81E4
:103DB000C816D906EA06FB06F4F0C801FBD380E476
:103DC0000E944B11892D26960FB6F894DEBF0FBEC8
:103DD000CDBFDF91CF911F910F91FF90EF90DF90BA
:103DE000CF90BF90AF909F907F906F905F904F90DB
:103DF0003F902F900895AD81BE8115968D919C9135
:103E0000169720910F023091100282179307D1F478
:103E100051968D919C91DFD4ED81FE8180819181BD
:103E2000B12CA12C412C512C3201892B89F5BFEFEB
:103E3000CB1ADB0AEB0AFB0AED81FE817396FE8347
:103E4000ED83B2CFC114D104E104F10429F7029744
:103E500018F7ED81FE81818992898F3F980709F0DB
:103E60005CD4AD81BE8152963C922E925197D4CFB4
:103E70008A0D9B1DDC018D919C91009709F09AD3CE
:103E8000BFEF4B1A5B0A6B0A7B0AEDE0AE0EB11C6A
:103E9000AD81BE818D919C91119712964C9150E00D
:103EA00070E060E044165506660677060CF382D390
:103EB000BECFCF93DF93EA0128DF811109C082E0F2
:103EC00090E09983888385EF9FEFDF91CF910895EC
:103ED00081E090E00E943D1181E090E09983888329
:103EE00090E080E0F2CF11DF1092FF041092FE0408
:103EF000089542E050E062EC72E00C945B11FF9296
:103F00000F931F93CF93DF938A01EC01C60FD71F46
:103F1000F980B9D20897F816190671F068F082E0B6
:103F200090E0F801918380838EEF9FEFDF91CF9136
:103F30001F910F91FF9008956C817D818E819F81EB
:103F40004B810E94F013811108C082E090E0F801DB
:103F50009183808384EF9FEFE9CFF9800E94EB1378
:103F60004F2D50E0BE01685F7F4F0E948F308981E6
:103F70000E945A1481E090E0F8019183808390E0E0
:103F800080E0D4CFDF92EF92FF920F931F93CF93F5
:103F9000DF938A01EC01C60FD71F0E94EB137C014F
:103FA000D98071D2DD2059F0029721E030E0D81697
:103FB000190619F010F030E020E0232B79F482E0AC
:103FC00090E0F801918380838EEF9FEFDF91CF9196
:103FD0001F910F91FF90EF90DF900895EF2841F42B
:103FE00082E090E0F8019183808384EF9FEFEECF31
:103FF000F9800E94EB134F2D50E0BE016E5F7F4FA2
:104000000E948F3089810E945A1481E090E0F8016B
:104010009183808390E080E0D9CF89E79FE19093FE
:104020000905809308050895809108059091090578
:1040300008950895FC01118210829383828308956C
:10404000DB011D921C92DC011296ED91FC911397FD
:104050007183608313967C936E9312970895FC018D
:1040600080819181DB018D939C93A081B181109718
:1040700041F08D919C9191838083892B11F4F3837E
:10408000E2830895FC0180819181DB018D939C93F3
:10409000892B11F473836283718360830895FC011B
:1040A00011821082938382830895CF93DF931F92AE
:1040B0001F92CDB7DEB71A821982F894BE016F5FE6
:1040C0007F4F8FE095E0CBDF89819A81009709F0DF
:1040D00071D289819A81892B89F7BE016F5F7F4FE9
:1040E00083E195E0BCDF89819A81009709F062D273
:1040F00089819A81892B89F778940F900F90DF91AD
:10410000CF910895CF93DF931F921F92CDB7DEB763
:104110001A821982F894BE016F5F7F4F8BE095E0A1
:104120009EDF89819A81009709F044D289819A8122
:10413000892B89F778940F900F90DF91CF91089594
:1041400081E0089590E080E00895EF92FF920F9350
:104150001F93CF93DF931F921F92CDB7DEB71A82C2
:10416000198280910A0507EF1FEF8823A1F1F894C7
:10417000BE016F5F7F4F83E195E071DF78948981A5
:104180009A81EE24E394F12C892B51F4F894BE012A
:104190006F5F7F4F8FE095E062DF7894F12CE12C28
:1041A00089819A810EEF1FEF0097A9F0FC014281EF
:1041B000538164E070E011D58C01892B61F0F89493
:1041C00069817A81C701880F991F880F991F815FC4
:1041D0009A4F58DF7894C8010F900F90DF91CF91DC
:1041E0001F910F91FF90EF9008950F931F93CF931E
:1041F000DF9300D01F92CDB7DEB71C821B821A82DC
:10420000198280910A0507EF1FEF8823C1F0AE01E4
:104210004D5F5F4F64E070E0CE01019651D58C0197
:10422000892B69F4E981FA818B819C819383828354
:10423000F89469817A818BE095E002DF7894C80177
:104240000F900F900F900F90DF91CF911F910F91D2
:10425000089556D6049608958F929F92AF92BF927A
:10426000CF92DF92EF92FF920F931F93CF93DF9342
:104270001F921F92CDB7DEB71A821982BC016F5F01
:104280007F4F6330710598F0AA24AA94BA2CC50117
:104290000F900F90DF91CF911F910F91FF90EF90B2
:1042A000DF90CF90BF90AF909F908F900895411571
:1042B000510551F3480159018A016C01CADF881583
:1042C000990511F7E114F104F9F28E0D9F1DA8165E
:1042D000B906D0F280910A058823F1F0F894B5016F
:1042E000645071099701AE014F5F5F4FC80104969A
:1042F0007CD55C01892B71F489819A81F8019383C3
:104300008283C601880F991F880F991FB801815FAA
:104310009A4F96DE7894BBCF87EFA82EBB24BA9431
:10432000B6CFAF92BF92CF92DF92EF92FF920F93F0
:104330001F93CF93DF931F921F92CDB7DEB71A82E0
:104340001982892B09F047C06115710509F443C032
:104350004115510509F43FC02115310509F43BC051
:1043600001151105C1F180910A058823B9F1790180
:104370006A015B01F894BE016F5F7F4F8BE095E0AF
:104380006EDE789489819A81009759F1DC0112964A
:104390006D917C91A801049641D58C01E981FA8147
:1043A000D501ED93FC93828193810496F60191836C
:1043B00080834FDFD7018D939C93C8010F900F909E
:1043C000DF91CF911F910F91FF90EF90DF90CF90F1
:1043D000BF90AF9008950FEF1FEFEFCF07EF1FEFE4
:1043E000ECCF0EEF1FEFE9CFCF93DF93EC01672BFC
:1043F00071F48FD58C179D0760F082D52496C80F75
:10440000D91F81D58C0F9D1FDF91CF9108957ED547
:10441000F1CF90E080E0F8CF0F931F93CF93DF931D
:1044200020910A0521112BC08B01EC018FE095E052
:1044300001DE83E195E0FEDD8BE095E0FBDD97D0CA
:104440000097C1F466D570E060E0CEDF4DE152E048
:1044500062E070E0D9D0009769F480911D029091DC
:104460001E0269D5B801CE019ED3009719F421E050
:1044700020930A05DF91CF911F910F91089584EF4A
:104480009FEFF8CF43C545C5CF93DF9345D5EC01EA
:10449000892B11F40ADE36DECE01DF91CF9108952B
:1044A000CF93DF9339D5EC01892B09F4FEDDCE01E2
:1044B000DF91CF91089580911D0290911E02089581
:1044C000CF93DF9380910A05D0E0C0E08823D1F03C
:1044D00037D5EC01892BB1F4E8DD14DE80911D02A3
:1044E00090911E021AD1CED1EC01892B59F48FE0A4
:1044F00095E0D5DD83E195E0D2DD8BE095E0CFDD81
:1045000010920A05CE01DF91CF910895EF92FF92AC
:104510000F931F93CF93DF93EC017A018B010F5F11
:104520001F4F0E9DA0010F9D500D1E9D500D11247B
:1045300070E060E00E94983090E080E0F0E0E0E021
:104540002FEFE816F90639F4DF91CF911F910F9103
:10455000FF90EF9008951A8219822883309711F006
:10456000D283C1830196FE01C00FD11FEACFE9E1DA
:10457000F5E085E8DF011D928A95E9F710921805AC
:1045800010921705E5EAF5E0118210821582148277
:10459000138212821782168211861086E1EAF5E0F4
:1045A000118210821382128290E080E0089590E0E0
:1045B00080E00895009739F1DC018E91813041F45B
:1045C000E091A305F091A4053097E9F0CD0119948D
:1045D000811119C0F8948FEF8C938091A50590916B
:1045E000A60512969C938E931197B093A605A0935F
:1045F000A5058091A7059091A80501969093A8051F
:104600008093A70578940895EF92FF920F931F93DC
:10461000CF93DF934115510509F47CC0009709F44D
:1046200079C06115710509F475C0EA01AB01BC01DF
:10463000F8948091A5059091A605892B19F58CE138
:1046400095E08C7F6D5F7F4F6C7F9B012F5F3F4FAD
:10465000249F8001259F100D349F100D112420915F
:10466000AD053091AE052115310509F03CC0E09053
:104670001705F090180522E830E02E193F092017A1
:10468000310730F478942FEF3FEF86EF9FEF22C091
:104690009093A6058093A5055093AA054093A9057C
:1046A0005093A8054093A7057093AC056093AB05A4
:1046B0001093AE050093AD05009709F027DF0E0DAE
:1046C0001F1D1093180500931705789430E020E023
:1046D00090E080E039832883DF91CF911F910F9183
:1046E000FF90EF9008952017310760F29093A60590
:1046F0008093A5055093AA054093A9055093A8055A
:104700004093A7057093AC056093AB050097E9F261
:10471000FDDEDBCF8FEF9FEFDFCF892B51F5F894D4
:104720001092A6051092A5051092AA051092A9054F
:104730001092A8051092A7051092AC051092AB0537
:104740002091AD053091AE052115310571F08091B4
:10475000170590911805821B930B90931805809371
:1047600017051092AE051092AD05789490E080E0A8
:1047700008958FEF9FEF08954115510549F1009776
:1047800039F16115710521F1F8942091A10530915D
:10479000A205232BB9F42091A3053091A405232B66
:1047A00089F49093A2058093A1057093A40560936A
:1047B000A305789421E030E090E080E0FA013183B5
:1047C0002083089578942FEF3FEF86EF9FEFF6CF89
:1047D0008FEF9FEF0895019769F4F8941092A20566
:1047E0001092A1051092A4051092A305789490E070
:1047F00080E008958FEF9FEF08956115710519F41A
:10480000F0E0E0E011C08130910581F4E091A10574
:10481000F091A2053097A1F3CB010196199500976D
:1048200079F3FC0181E08193CF010895892B41F751
:104830008091A5059091A605892B11F38091AB0578
:104840009091AC0586179707D8F2F8948091A70548
:104850009091A805009731F0E091A505F091A6058B
:10486000309711F47894CCCF218132813093A60512
:104870002093A50501979093A8058093A705119211
:104880007894D2CFEEE9F5E083E0DF011D928A95BE
:10489000E9F7E9E1F5E085E8DF011D928A95E9F79E
:1048A0001092180510921705E5EAF5E08AE0DF019D
:1048B0001D928A95E9F7E1EAF5E084E0DF011D92B7
:1048C0008A95E9F790E080E00895CF93DF93C09157
:1048D0001F02D0912002CF3FDC0759F426D49093D9
:1048E000200280931F0297FF09C0D0932002C0933B
:1048F0001F0284EF9FEFDF91CF91089590E080E059
:10490000FACF8230910528F48093AF0590E080E0E3
:1049100008958FEF9FEF08954F925F926F927F926D
:10492000AF92BF92CF92DF92EF92FF920F931F93BD
:10493000CF93DF931F921F92CDB7DEB71A821982F1
:10494000009709F478C06115710509F474C02091CD
:104950001F023091200207EF1FEF2F3F3F4F09F456
:1049600044C06B015C01412C512C3201F12CE12C33
:1049700010E000E09E012F5F3F4FA6014E195F0936
:10498000B5016E0D7F1D80911F02909120022CD4E5
:10499000892B09F04AC089819A81009741F4E1147A
:1049A000F10429F42091AF05222309F441C0E80E57
:1049B000F91EEC14FD04C8F480E8481684E8580693
:1049C0008EE16806710418F560E070E0CB0161D6F5
:1049D0002AE0420E511C611C711C0A3F4FEF140764
:1049E00021F0043F8FEF1807A1F4C8010F900F903A
:1049F000DF91CF911F910F91FF90EF90DF90CF90BB
:104A0000BF90AF907F906F905F904F90089501EFAF
:104A10001FEF81E090E0013F2FEF120711F090E0CF
:104A200080E0892B09F4A6CFE0CF04EF1FEFDDCFA4
:104A30000AEF1FEFDACF0FEF1FEFD7CF4F925F9242
:104A40006F927F92AF92BF92CF92DF92EF92FF92DE
:104A50000F931F93CF93DF931F921F92CDB7DEB7B3
:104A60001A821982009709F478C06115710509F45A
:104A700074C020911F023091200207EF1FEF2F3FDB
:104A80003F4F09F444C06B015C01412C512C3201B1
:104A9000F12CE12C10E000E09E012F5F3F4FA601BA
:104AA0004E195F09B5016E0D7F1D80911F02909117
:104AB000200250D3892B09F04AC089819A8100973E
:104AC00041F4E114F10429F42091AF05222309F403
:104AD00041C0E80EF91EEC14FD04C8F480E4481649
:104AE00082E458068FE06806710418F560E070E013
:104AF000CB01CFD52AE0420E511C611C711C0E3F28
:104B00004FEF140721F0043F8FEF1807A1F4C801FD
:104B10000F900F90DF91CF911F910F91FF90EF9029
:104B2000DF90CF90BF90AF907F906F905F904F904D
:104B3000089502EF1FEF81E090E0023F2FEF120790
:104B400011F090E080E0892B09F4A6CFE0CF04EFCC
:104B50001FEFDDCF0EEF1FEFDACF0FEF1FEFD7CF35
:104B600080911F02909120028F3F980749F0D5D283
:104B7000892B49F48FEF9FEF9093200280931F02BF
:104B800090E080E0089584EF9FEF0895FC01680FA6
:104B9000791F90E080E0E617F70709F40895219166
:104BA000820F911DF8CF2091B005211113C08DDE29
:104BB000009791F41092B6051092B5051092B405C5
:104BC0001092B3051092B2051092B10521E0209326
:104BD000B005089584EF9FEF0895AF92BF92CF92F2
:104BE000DF92EF92FF920F931F93CF93DF93009783
:104BF00009F460C04630510508F45CC02091B0054E
:104C0000C7EFDFEF222309F449C08C01060F171FFD
:104C1000F801C080D180C114D10409F44EC09601BE
:104C20002A5F3F4F4217530708F447C07C01809129
:104C3000B5059091B60593838283B6016C5F7F4F73
:104C40005801A60EB71EC801A1DFF501918380832C
:104C500064E070E0C80160DEEC01892BF9F481E0CA
:104C600090E04FDEB601C801049656DEEC01892BB8
:104C700091F462E070E0C5014FDEEC01892B59F43C
:104C8000C70198DC8091B5059091B6050196909387
:104C9000B6058093B50590E080E033DECE01DF916C
:104CA000CF911F910F91FF90EF90DF90CF90BF9029
:104CB000AF900895CFEFDFEFF1CFC9EFDFEFEECF89
:104CC0006F927F928F929F92AF92BF92CF92DF921C
:104CD000EF92FF920F931F93CF93DF9300D01F9219
:104CE000CDB7DEB7009709F47AC04115510509F434
:104CF00076C02091B00507EF1FEF222309F44DC0C5
:104D00003A017B015C0164E070E0CE01019696DE21
:104D10008C01892B09F041C009811A810115110507
:104D200009F45AC0480186E0880E911CB701680D4D
:104D3000791D80912102909122025FDD6C01009724
:104D400009F450C0A70170E060E00E9498308981AA
:104D50009A81AB81BC81EC0CFD1CF701819391938E
:104D6000A193B1937F0181E090E0CBDDB801C70151
:104D700065DE892B31F562E070E0C701800F911F7D
:104D80005DDE8C01892BE9F490E080E0BADDF5016D
:104D9000D182C082F30191828082C8010F900F906E
:104DA0000F900F90DF91CF911F910F91FF90EF9097
:104DB000DF90CF90BF90AF909F908F907F906F903B
:104DC000089590E080E09DDDF50111821082F301ED
:104DD00011821082C601EEDB09EF1FEFDECF0FEF6D
:104DE0001FEFDBCF06EF1FEFD8CF0097A1F04115E3
:104DF000510589F02115310571F0F90136966E17CC
:104E00007F0748F0DC012D933C93DA01ED93FC938E
:104E100090E080E008958FEF9FEF0895AF92BF92EA
:104E2000CF92DF92EF92FF920F931F93CF93DF9376
:104E3000009709F45FC04115510509F45BC0653066
:104E4000710508F457C02091B005C7EFDFEF2223AA
:104E500091F1DC01CD90DC9011971296ED91FC91CF
:104E600096012A5F3F4FC9EFDFEF2617370719F585
:104E7000C091B105D091B205209749F521E030E00D
:104E80003093B2052093B1057A018C01F093B405FB
:104E9000E093B3055601B4E0AB0EB11CB50176DE6C
:104EA0000A0D1B1DF801208131818217930729F516
:104EB000D701CD92DC92CE01DF91CF911F910F915E
:104EC000FF90EF90DF90CF90BF90AF90089520912A
:104ED000B3053091B4052F5F3F4FCCEFDFEFE21702
:104EE000F30790F2CBEFDFEF2E173F0768F2D0E029
:104EF000C0E0CACFCFEFDFEFDECFC3EFDFEFDBCF16
:104F000084E090E0089582E090E008958CEF9FEFB8
:104F1000089580E290E008951092B6051092B505CC
:104F20001092B4051092B3051092B2051092B1051B
:104F300090E080E0089590932202809321020895EA
:104F40008091B005882391F00BDE009789F41092D0
:104F5000B6051092B5051092B4051092B3051092E3
:104F6000B2051092B1051092B005089590E080E06E
:104F70000895009749F06115710531F0FC01118227
:104F80001082FB01118210820895F3CF089526E06C
:104F900030E040E052EC61E070E090E080E006D06C
:104FA00061E08DE074D460E08DE0ADC41092B8058E
:104FB0001092B7058930910508F03AC0FC018827A6
:104FC000EB51F84D8F4F0C946E30EE27F7270028E9
:104FD0000928122819281C281F28252881E090E07C
:104FE0009093B8058093B70586EC95E083C582E081
:104FF00090E09093B8058093B70583E696E0F6CFEE
:1050000084E090E09093B8058093B70580E097E046
:10501000EDCF88E090E09093B8058093B7058DE9D7
:1050200097E0E4CF80E190E09093B8058093B705D6
:10503000089580E290E0F8CF80E490E0F5CF80E83A
:1050400090E09093B8058093B7058091B705909153
:10505000B8059160E9CF1F920F920FB60F921124FD
:105060000BB60F922F933F934F935F936F937F9362
:105070008F939F93AF93BF93EF93FF938FE89DEF31
:1050800090932501809324018091BB059091BC05EC
:10509000019719F461E08DE036D4B9D0FF91EF911A
:1050A000BF91AF919F918F917F916F915F914F9140
:1050B0003F912F910F900BBE0F900FBE0F901F903E
:1050C00018958FE89DEF9093250180932401A3E725
:1050D000B0E08C918E7F8C93E0E2F1E080818C7F58
:1050E0008083E1E2F1E08081877E8083808184603B
:1050F000808380818C7F80838C9181608C930895E4
:10510000E3E7F0E0808190819E7F90838170089535
:1051100081E008951092B905089568EE73E080E08B
:1051200090E0B7D290E080E0089526E030E040E0E3
:1051300052EC61E070E090E080E038DF86EC95E0D2
:105140000FD4892B21F086EC95E024D4F7CF90E0A2
:1051500080E00895CF92DF92EF92FF920F931F931A
:10516000CF93DF936B017A01E9011982188286ECF3
:1051700095E0F6D3892B69F18601CC24C39482E0B3
:10518000D82E8091B905811110C086EC95E002D42B
:105190000297B9F7C092B905F801D1928F018881C1
:1051A0009981019699838883ECCF888199818E15A6
:1051B0009F0578F486EC95E0EDD38F3F9807A9F32F
:1051C000F80181938F018881998101969983888361
:1051D000ECCF90E080E0DF91CF911F910F91FF9095
:1051E000EF90DF90CF9008950F931F93CF93DF93AD
:1051F000EA01890186EC95E00DD7F801D183C083DF
:1052000090E080E0DF91CF911F910F910895809100
:10521000BA0591E0980F9093BA05882349F021E0F0
:1052200030E03093BC052093BB058093BA05089508
:1052300078940E94BD09F8948091BA058150F5CF09
:105240000F931F93CF93DF93109248081092470853
:1052500056D29DDEC0914802D0914902198218822F
:105260006FEF7FEFCB010E94B20970E060E090E049
:1052700080E00E943408009709F042C00E945C0A56
:10528000F89478948A819B81BC01685F7F4F0E946B
:105290003708892B71F46FEF7FEFCB010E94C708AD
:1052A0000E94AC09882329F081E0FE01E355FF4FFD
:1052B0008083F89406DF0E94AF09882311F080E014
:1052C0000BC00E94AC098111FACF81E0FE01E355C9
:1052D000FF4F90819111F3CF8093470878940E94FB
:1052E00038118C017894C355DF4F809147088111A4
:1052F0000CC00E94120B0E949209F89490E080E08A
:10530000DF91CF911F910F9108950E9490090E9403
:10531000AF098823E1F081E0809348089091480824
:1053200081E0911180E080934708809148088111C5
:10533000E7DE0130110529F40E943811892B09F4A8
:10534000E9DE0E9438118C01E3DE20DECECF0E9420
:10535000AC098111E0CF81E098819111DDCF80E02F
:10536000DBCF40D008F481E00895E89409C097FBB2
:105370003EF490958095709561957F4F8F4F9F4F2C
:105380009923A9F0F92F96E9BB279395F695879570
:1053900077956795B795F111F8CFFAF4BB0F11F433
:1053A00060FF1BC06F5F7F4F8F4F9F4F16C08823DA
:1053B00011F096E911C0772321F09EE8872F762F10
:1053C00005C0662371F096E8862F70E060E02AF051
:1053D0009A95660F771F881FDAF7880F969587953D
:1053E00097F90895990F0008550FAA0BE0E8FEEF12
:1053F00016161706E807F907C0F012161306E40799
:10540000F50798F0621B730B840B950B39F40A2691
:1054100061F0232B242B252B21F408950A2609F46F
:10542000A140A6958FEF811D811D0895DBDF08F453
:105430008FEF08950BD078C069D028F06ED018F0A7
:10544000952309F05AC05FC01124A2C07ED0A0F3FA
:10545000959FD1F3950F50E0551F629FF001729F09
:10546000BB27F00DB11D639FAA27F00DB11DAA1F28
:10547000649F6627B00DA11D661F829F2227B00D75
:10548000A11D621F739FB00DA11D621F839FA00D00
:10549000611D221F749F3327A00D611D231F849F50
:1054A000600D211D822F762F6A2F11249F575040A7
:1054B0008AF0E1F088234AF0EE0FFF1FBB1F661F42
:1054C000771F881F91505040A9F79E3F510570F0FB
:1054D00014C05EC05F3FECF3983EDCF38695779591
:1054E0006795B795F795E7959F5FC1F7FE2B880FF6
:1054F000911D9695879597F9089597F99F6780E88C
:1055000070E060E008959FEF80EC089500240A9415
:105510001616170618060906089500240A9412168E
:105520001306140605060895092E0394000C11F4C1
:10553000882352F0BB0F40F4BF2B11F460FF04C06E
:105540006F5F7F4F8F4F9F4F089557FD9058440FC7
:10555000551F59F05F3F71F04795880F97FB991FD2
:1055600061F09F3F79F0879508951216130614068F
:10557000551FF2CF4695F1DF08C01616170618061C
:10558000991FF1CF86957105610508940895E894F7
:10559000BB2766277727CB0197F908951F920F92B3
:1055A0000FB60F9211242F933F938F939F93AF9336
:1055B000BF938091BE059091BF05A091C005B091A9
:1055C000C1053091BD0523E0230F2D3758F5019615
:1055D000A11DB11D2093BD058093BE059093BF050D
:1055E000A093C005B093C1058091C2059091C305F9
:1055F000A091C405B091C5050196A11DB11D809370
:10560000C2059093C305A093C405B093C505BF918F
:10561000AF919F918F913F912F910F900FBE0F905F
:105620001F90189526E8230F0296A11DB11DD2CF19
:105630002FB7F8946091BE057091BF058091C005A9
:105640009091C1052FBF08953FB7F8948091C2058E
:105650009091C305A091C405B091C50526B5A89B3E
:1056600005C02F3F19F00196A11DB11D3FBFBA2FF4
:10567000A92F982F8827BC01CD01620F711D811DB4
:10568000911D42E0660F771F881F991F4A95D1F739
:1056900008958F929F92AF92BF92CF92DF92EF9236
:1056A000FF926B017C01D0DF4B015C01C114D1047E
:1056B000E104F104D9F0DBD4C7DF681979098A095C
:1056C0009B09683E73408105910580F321E0C21A71
:1056D000D108E108F10888EE880E83E0981EA11C2D
:1056E000B11CC114D104E104F10431F7FF90EF9033
:1056F000DF90CF90BF90AF909F908F900895789457
:1057000084B5826084BD84B5816084BD85B58260C6
:1057100085BD85B5816085BDEEE6F0E08081816064
:105720008083E1E8F0E01082808182608083808164
:1057300081608083E0E8F0E0808181608083E1EB3C
:10574000F0E0808184608083E0EBF0E08081816024
:105750008083E1E9F0E080818260808380818160E4
:105760008083E0E9F0E0808181608083E1EAF0E01D
:10577000808182608083808181608083E0EAF0E0C4
:10578000808181608083E1E2F1E0808182608083BA
:10579000808181608083E0E2F1E0808181608083AC
:1057A000EAE7F0E08081846080838081826080838A
:1057B0008081816080838081806880831092C100B5
:1057C00008958150823108F059C0E82FF0E0882711
:1057D000E451F44D8F4F82C40C2C102CFE2B042C62
:1057E000082C3E2C132C192C1D2C232C272C2B2C55
:1057F000312C352C3E2C392C3F2C432C80918000B1
:105800008F77809380000895809180008F7DF9CFFD
:1058100080918000877FF5CF84B58F7784BD089510
:1058200084B58F7DFBCF8091B0008F778093B000DF
:1058300008958091B0008F7DF9CF809190008F778F
:10584000809390000895809190008F7DF9CF809192
:105850009000877FF5CF8091A0008F778093A00084
:1058600008958091A0008F7DF9CF8091A000877F5F
:10587000F5CF809120018F7780932001089580914A
:1058800020018F7DF9CF80912001877FF5CFCF93C5
:10589000DF9390E0FC01E65DFE4F249180599E4F1E
:1058A000FC0184918823C9F090E0880F991FFC01C6
:1058B000E053FE4FA591B491FC01EA54FE4FC5910F
:1058C000D49161110DC09FB7F8948C9120958223DB
:1058D0008C938881282328839FBFDF91CF910895DF
:1058E000623051F49FB7F8943C91822F80958323C6
:1058F0008C93E8812E2BEFCF8FB7F894EC912E2B61
:105900002C938FBFEACF1F93CF93DF93282F30E0E4
:10591000F901EC51FF4F8491F901E65DFE4FD491FE
:10592000F901E059FE4FC491CC23A1F0162F81114B
:1059300048DFEC2FF0E0EE0FFF1FEA54FE4FA59179
:10594000B4918FB7F894EC91111108C0D095DE2373
:10595000DC938FBFDF91CF911F910895DE2BF8CF9D
:10596000FC01918D228D892F90E0805C9F4F821BDE
:1059700091098F7399270895FC01918D828D981755
:1059800031F0828DE80FF11D858D90E008958FEF45
:105990009FEF0895FC01918D828D981761F0A28D83
:1059A000AE0FBF2FB11D5D968C91928D9F5F9F733F
:1059B000928F90E008958FEF9FEF0895FC01538D33
:1059C000448D252F30E0842F90E0821B930B5417D9
:1059D00010F0CF96089501970895FC01A48DA80FAB
:1059E000B92FB11DA35ABF4F2C91848D90E0019621
:1059F0008F739927848FA689B7892C93A089B18941
:105A00008C91837080648C93938D848D981306C0E1
:105A10000288F389E02D80818F7D80830895CF9364
:105A2000DF93EC01888D8823B1F0AA89BB89E889CE
:105A3000F9898C9185FD03C0808186FD0CC00FB66D
:105A400007FCF7CF8C9185FFF2CF808185FFEDCFEA
:105A5000CE01C3DFEACFDF91CF910895EF92FF929D
:105A60000F931F93CF93DF93EC0181E0888F9B8D81
:105A70008C8D98131AC0E889F989808185FF15C03B
:105A80009FB7F894EE89FF896083E889F98980815E
:105A90008370806480839FBF81E090E0DF91CF912D
:105AA0001F910F91FF90EF900895F62E0B8D10E04F
:105AB0000F5F1F4F0F731127E02E8C8D8E110BC0BF
:105AC0000FB607FCFACFE889F989808185FFF5CF09
:105AD000CE0183DFF2CFEB8DEC0FFD2FF11DE35AEA
