:10000000FAC000000C941E400C9449400C947440BB
:100010000C949F400C94CA400C94F5400C942041E1
:100020000C944B4165C4000006C5000040C50000AB
:1000300013C1000011C100000FC100000DC100007C
:100040000BC1000009C1000007C1000005C100008C
:1000500003C1000001C10000FFC000000C94764104
:10006000FBC000000C9456450C948C45F5C0000074
:10007000F3C00000F1C00000EFC00000EDC00000C0
:10008000EBC00000E9C00000E7C00000E5C00000D0
:100090000C94E2450C941846DFC000000C94710AE1
:1000A000DBC00000D9C00000D7C00000D5C00000F0
:1000B000D3C00000D1C00000CFC00000CDC0000000
:1000C000CBC00000C9C000000C94B83B0C946E4635
:1000D0000C94A446C1C000000C94FA460C9430471E
:1000E000BBC0000000000A0B02090C0D0E0807033C
:1000F00004010000000000000000000000000000FB
:1001000000000000000000000000000000000000EF
:1001100012111000000000000000000000000000AC
:100120000000000000000000000001021020200874
:100130000810204010204080020102010804020142
:1001400001020408102040808040201008040201B1
:10015000800402018040201008040201080402010A
:100160000102040810204080010204081020408091
:1001700005050505070508080808020202020A0A23
:100180000808040404040101010101010101030341
:10019000030303030303040707070C0C0C0C0C0CEC
:1001A0000C0C0202020206060606060606060B0BE9
:1001B0000B0B0B0B0B0B00002200250028002B0063
:1001C0002E003100340002010000050108010B017E
:1001D00000002100240027002A002D0030003300F9
:1001E00001010000040107010A01DF07980DB54570
:1001F0004146CD46594711241FBECFEFD1E2DEBFA5
:10020000CDBF00E00CBF15E0A0E0B2E0E8E3F5E907
:1002100000E00BBF02C007900D92A830B107D9F7DC
:100220002BE0A8E0B5E001C01D92AF34B207E1F7C2
:1002300010E0CBEFD0E000E006C021970109802F4D
:10024000FE010E94F349C53FD10780E00807A9F7E6
:100250000E94C63C0C949A4AD3CE882311F1823076
:1002600071F08330A9F08130E1F426E030E040E025
:1002700052EC61E070E081E090E00C94623B26E09B
:1002800030E040E855E260E070E082E090E0F5CFD9
:1002900026E030E040E855E260E070E083E090E086
:1002A000ECCF08952F923F924F925F926F927F9280
:1002B0008F929F92AF92BF92CF92DF92EF92FF9276
:1002C0000F931F93CF93DF931F92CDB7DEB72B0110
:1002D0003A01D02EE9829C2DCA2CF401EF88F88CCB
:1002E000998C6A8D7B8D4C8D843008F0EBC1823007
:1002F00051F0833009F456C0813049F431E9232E9E
:1003000038E0332E04C0AEE22A2EA9E03A2E30E0C7
:100310002830310511F424E030E0269D5001279D5E
:10032000B00C369DB00C11240AE010E0992351F076
:1003300000E110E0913031F008E010E0923011F06F
:1003400002E010E08111E1C0D11031C061157105EA
:1003500029F050E084EF97E00E948647A501B201A2
:1003600084EF97E00E948647E114F10409F4AAC1E2
:10037000492D50E0B70184EF97E00F90DF91CF91C6
:100380001F910F91FF90EF90DF90CF90BF90AF90B3
:100390009F908F907F906F905F904F903F902F90A5
:1003A0000C9486475BEC252E59E0352EB0CFBF016B
:1003B00084EF97E00E94C2478981873008F082C1AC
:1003C000E82FF0E08827E851FE4F8F4F0C94F34957
:1003D00007021A022E0244025A026E02EF01AC2CEE
:1003E000B12CE1E06E1A710808F46CC1D2014D9194
:1003F0005D916D917D912D01B1E0950184EF97E0C4
:10040000DB1280C00E94AB49ECCF0E949A486A94EC
:10041000AFEF6A1609F456C1F20161912F01F1E0C4
:10042000A80184EF97E0DF12F0CF0E949448EFCF4D
:100430000E94AF486A948FEF681609F443C1D20155
:100440006D917D912D01B1E0A80184EF97E0DB1261
:10045000EFCF0E94AA48EECF0E94BF486A94EFEF08
:100460006E1609F42FC1D2014D915D916D917D9170
:100470002D01B1E0980184EF97E0DB12EDCF0E94EF
:100480008848ECCF0E9468486A94EFEF6E1609F432
:1004900019C1D2016D912D01062E000C770BB1E030
:1004A000A80184EF97E0DB12EDCF0E946248ECCF09
:1004B0000E9468486A94EFEF6E1609F403C1D201F6
:1004C0006D917D912D01B1E0A80184EF97E0DB12E1
:1004D000EFCF0E946248EECF0E9478486A94EFEF17
:1004E0006E1609F4EFC0D2014D915D916D917D9131
:1004F0002D01B1E0980184EF97E0DB12EDCF0E946F
:100500001D48ECCF0E94AC496CCFD11038C06115AA
:10051000710549F050E0D101ED91FC910280F38129
:10052000E02DC1011995D101ED91FC910280F3817B
:10053000E02DA501B201C1011995E114F10409F4FE
:10054000C1C0492D50E0D101ED91FC910280F381B1
:10055000E02DB701C1010F90DF91CF911F910F9155
:10056000FF90EF90DF90CF90BF90AF909F908F90D3
:100570007F906F905F904F903F902F901994BF01A4
:10058000C1010E94C247B981B73008F09BC0EB2F70
:10059000F0E08827E153FD4F8F4F0C94F349ED02B3
:1005A000FF02120327033B034D03D602AC2CB12CF0
:1005B000E1E06E1A710808F485C0D2014D915D9199
:1005C0006D917D912D01B1E09501C101DB1277C0E4
:1005D0000E94AB49EDCF0E949A486A94EFEF6E16E5
:1005E00009F470C0D2016D912D01B1E0A801C101E3
:1005F000DB12F1CF0E949448F0CF0E94AF486A947A
:10060000EFEF6E1609F45EC0D2016D917D912D0160
:10061000B1E0A801C101DB12F0CF0E94AA48EFCFE0
:100620000E94BF486A94EFEF6E1609F44BC0D201E6
:100630004D915D916D917D912D01B1E09801C101C8
:10064000DB12EECF0E948848EDCF0E9468486A9482
:10065000EFEF6E16B9F1D2016D912D01062E000C4F
:10066000770BB1E0A801C101DB12EFCF0E94624815
:10067000EECF0E9468486A94EFEF6E1619F1D2012E
:100680006D917D912D01B1E0A801C101DB12F1CF87
:100690000E946248F0CF0E9478486A94EFEF6E168D
:1006A00089F0D2014D915D916D917D912D01B1E067
:1006B0009801C101DB12EFCF0E941D48EECF0E94CE
:1006C000AC4976CF0F90DF91CF911F910F91FF90A2
:1006D000EF90DF90CF90BF90AF909F908F907F90E2
:1006E0006F905F904F903F902F9008959CB1892F0D
:1006F000807294FF16C0811116C080910C059091F4
:100700000D05A0910E05B0910F050196A11DB11D1B
:1007100080930C0590930D05A0930E05B0930F05E3
:1007200008958111EACF80910C0590910D05A0915B
:100730000E05B0910F050197A109B109E9CF99B153
:10074000892F847093FF16C08823B1F080911A0519
:1007500090911B05A0911C05B0911D050196A11D4E
:10076000B11D80931A0590931B05A0931C05B093AF
:100770001D050895882351F380911A0590911B055A
:10078000A0911C05B0911D050197A109B109E9CF00
:100790008CB190E09C01220F232F221F330B86FF88
:1007A00016C08091280590912905A0912A05B09145
:1007B0002B05232BB9F40196A11DB11D80932805AB
:1007C00090932905A0932A05B0932B050895809155
:1007D000280590912905A0912A05B0912B0521307B
:1007E000310549F30197A109B109E8CF9CB1892FDF
:1007F000807195FF16C08823B1F080910C0590910F
:100800000D05A0910E05B0910F050196A11DB11D1A
:1008100080930C0590930D05A0930E05B0930F05E2
:100820000895882351F380910C0590910D05A091B6
:100830000E05B0910F050197A109B109E9CF99B152
:10084000892F887092FF16C0811116C080911A05F9
:1008500090911B05A0911C05B0911D050196A11D4D
:10086000B11D80931A0590931B05A0931C05B093AE
:100870001D0508958111EACF80911A0590911B05FD
:10088000A0911C05B0911D050197A109B109E9CFFF
:100890008CB190E086FB222720F930E0880F892F69
:1008A000881F990B0197B1F4809128059091290533
:1008B000A0912A05B0912B05232BB1F00196A11D23
:1008C000B11D8093280590932905A0932A05B09324
:1008D0002B0508958091280590912905A0912A055E
:1008E000B0912B05232B51F30197A109B109E9CF51
:1008F0001F920F920FB60F9211242F933F934F9395
:100900005F938F939F93AF93BF9383B121E030E0C8
:10091000982F907285FD02C030E020E080744091F5
:100920004C0550914D054217530709F062C021E074
:1009300030E0811102C030E020E030934B0520937D
:100940004A05882309F1911121C0809144059091B5
:100950004505A0914605B09147050196A11DB11D21
:100960008093440590934505A0934605B0934705B1
:100970008091440590914505A0914605B0914705A9
:100980000196A11DB11D20C09111DFCF80914405BA
:1009900090914505A0914605B09147050197A109A1
:1009A000B1098093440590934505A0934605B09303
:1009B00047058091440590914505A0914605B09169
:1009C00047050197A109B109809344059093450516
:1009D000A0934605B0934705BF91AF919F918F912A
:1009E0005F914F913F912F910F900FBE0F901F90ED
:1009F000189530934D0520934C05992371F0882369
:100A000071F08091440590914505A0914605B09103
:100A100047050196A11DB11DC4CF882391F3809194
:100A2000440590914505A0914605B0914705019771
:100A3000A109B10995CF1F920F920FB60F92112401
:100A40008F939F93AF93BF93809106018170909194
:100A5000030190FF1EC081111EC080913605909148
:100A60003705A0913805B09139050196A11DB11D3A
:100A70008093360590933705A0933805B0933905D8
:100A8000BF91AF919F918F910F900FBE0F901F90CC
:100A900018958111E2CF8091360590913705A0918C
:100AA0003805B09139050197A109B109E1CF1F922D
:100AB0000F920FB60F9211248F939F93AF93BF9312
:100AC0008091030181709091060190FF1EC08823E0
:100AD000F1F08091360590913705A0913805B091DD
:100AE00039050196A11DB11D8093360590933705F8
:100AF000A0933805B0933905BF91AF919F918F9125
:100B00000F900FBE0F901F901895882311F38091BE
:100B1000360590913705A0913805B09139050197B8
:100B2000A109B109E1CF0F931F93CF93DF938C01FC
:100B30008EE0809FE001819FD00D1124C85FDA4FC5
:100B4000798368835B834A838881998160E00E940E
:100B5000C3438A819B8160E00E94C343888199815D
:100B600061E00E94FF438A819B8161E00E94FF4314
:100B70000230110509F487C064F40115110501F173
:100B80000130110509F450C0DF91CF911F910F91F1
:100B900008950330110509F4A5C004301105A1F72B
:100BA0008091680081608093680080916B00806212
:100BB00080936B0080916B00806480936B00E4CF26
:100BC000809108059091090502978431910530F5CF
:100BD000865C9B4FFC018081082E000C990B41E044
:100BE00050E066E773E00E94A43F80910A0590916F
:100BF0000B05029784319105A0F4865C9B4FFC01A4
:100C00008081082E000C990B41E050E066EF73E004
:100C1000DF91CF911F910F910C94A43F8FEF9FEF25
:100C2000DECF8FEF9FEFF0CF8091160590911705E3
:100C300002978431910508F5865C9B4FFC01808109
:100C4000082E000C990B41E050E06FE174E00E9427
:100C5000A43F809118059091190502978431910560
:100C600078F4865C9B4FFC018081082E000C990B68
:100C700041E050E06FE973E0CBCF8FEF9FEFE3CF20
:100C80008FEF9FEFF5CF8091240590912505029776
:100C90008431910508F5865C9B4FFC018081082E0C
:100CA000000C990B41E050E068EC73E00E94A43F17
:100CB000809126059091270502978431910578F45B
:100CC000865C9B4FFC018081082E000C990B41E053
:100CD00050E068E474E09CCF8FEF9FEFE3CF8FEF9D
:100CE0009FEFF5CF809168008460809368008091C9
:100CF000680082608093680080916D0081608093BD
:100D00006D0080916C00826080936C003DCF2EE07E
:100D1000269FF001279FF00D1124E85FFA4F6481B0
:100D2000758186819781089590E080E00895809193
:100D3000820590918305891B990B089590918305F5
:100D4000809182052FEF3FEF981748F4E92FF0E0EC
:100D5000EC57FA4F208130E09F5F90938305C901E3
:100D60000895E091830580918205E81730F4F0E062
:100D7000EC57FA4F808190E008958FEF9FEF089530
:100D80000895CF93DF93EC01E0915A05F0915B0554
:100D90003097F1F090918305809182059817C0F00B
:100DA00090E0292F30E02617370754F4DE01A20F18
:100DB000B31F4C912C573A4FD9014C939F5FF1CF01
:100DC0001092830560938205CB01DF91CF91199436
:100DD000DF91CF910895E0915C05F0915D0530972A
:100DE00029F01092600510925F0519940895CF9331
:100DF000DF931F92CDB7DEB7698320915E05222372
:100E0000F9F020915F05203258F021E030E0FC013C
:100E10003383228390E080E00F90DF91CF9108959B
:100E200080916005E82FF0E0EF59FA4F99819083A7
:100E30008F5F8093600580935F0581E090E0ECCF49
:100E400061E0CE010196F7D0F8CFCF92DF92EF921A
:100E5000FF920F931F93CF93DF937C01CB018A0105
:100E600020915E05222389F0EB016B01C40ED51E93
:100E7000CC15DD0561F06991D701ED91FC910190F0
:100E8000F081E02DC7011995F3CF642FD4D0C801AC
:100E9000DF91CF911F910F91FF90EF90DF90CF9056
:100EA00008951092830510928205109260051092A9
:100EB0005F0596D08BEE96E0EAD081EC96E0E2C03A
:100EC00081E080935E056093810510926005109229
:100ED0005F0508950F93062F21E040915F0561E6BD
:100EE00075E080918105D5D11092600510925F0563
:100EF00010925E050F9108954F925F926F927F92CC
:100F0000AF92BF92CF92EF92FF920F931F93CF9326
:100F1000DF935C01F62ED42F28013901EE2009F170
:100F2000CFDFCE2DC43008F0C3E0C150B8F028E0C8
:100F3000C29FC0011124A301920104C05695479598
:100F4000379527958A95D2F7B901D501ED91FC9196
:100F50000190F081E02DC5011995E7CF60E0C50152
:100F6000B9DF4D2FD13208F040E22C2D64E875E056
:100F70008F2DACD01092830580938205DF91CF91A5
:100F80001F910F91FF90EF90CF90BF90AF907F9007
:100F90006F905F904F900895CF92EF920F931F93B1
:100FA000C22EE12C00E010E09801A6DF1F910F9106
:100FB000EF90CF90089521E0EFCF61E08BCFEEE48A
:100FC000F5E01382128288EE93E0A0E0B0E0848323
:100FD0009583A683B78382E594E091838083089507
:100FE0001092170681E0809315061092140661E0B6
:100FF00084E10E94FF4361E085E10E94FF43E9EB49
:10100000F0E080818E7F808380818D7F808388E483
:101010008093B80085E48093BC000895ECEBF0E089
:1010200080818A7B808360E084E10E94FF4360E0EE
:1010300085E10C94FF432091C605260F3327331F0B
:1010400021323105ECF420911706FC0190E080E09C
:10105000243069F082E00895A091C6052191AC0189
:1010600048535A4FA40FB52FB11D2C9301968617E4
:1010700098F38091C605680F6093C60580E00895D7
:1010800081E0089590930B0680930A06089590934B
:101090000D0680930C06089585EC8093BC00109299
:1010A00017060895CF93DF9391E090930F0688235E
:1010B00051F0C091B800D091BA00B0DF91DFD09369
:1010C000BA00C093B800DF91CF9108954F925F921C
:1010D0006F927F928F929F92AF92BF92CF92DF9248
:1010E000EF92FF920F931F93CF93DF93D82F162F7A
:1010F000072FC42FB22E413208F0A2C00E94CC416B
:101100006B017C0180911706811176C081E080938C
:101110001706B09215069FEF9093A4051092E9056B
:101120009C0F9093E8058093160680911606DD0FBC
:10113000D82BD093160680911406813009F082C016
:10114000109214060E94CC416B017C01809116061E
:101150008093BB008091100690911106A091120619
:10116000B0911306892B8A2B8B2BA1F00E94CC41C6
:101170008090100690901106A0901206B090130671
:101180006C197D098E099F0986169706A806B9066F
:1011900008F453C08091BC0083FDD8CF85EC8093C8
:1011A000BC000E94CC416B017C018091170681300C
:1011B00009F44AC08091E9058C1710F4C091E90543
:1011C000AAEEB5E0912FE12FF02F8E2F891B8C17FF
:1011D00008F45CC08C2FDF91CF911F910F91FF908D
:1011E000EF90DF90CF90BF90AF909F908F907F90C7
:1011F0006F905F904F900895809110069091110626
:10120000A0911206B0911306892B8A2B8B2B09F41F
:1012100079CF0E94CC41409010065090110660900A
:101220001206709013066C197D098E099F094616E7
:1012300057066806790608F065CF80910E0632DF02
:10124000C0E0C8CF85EEABCF80911006909111061B
:10125000A0911206B0911306892B8A2B8B2B09F4CF
:10126000A4CF0E94CC418090100690901106A090CF
:101270001206B09013066C197D098E099F09861617
:101280009706A806B90608F090CFD7CF8D91819325
:101290009CCF4F925F926F927F928F929F92AF926C
:1012A000BF92EF92FF920F931F93CF93DF93413240
:1012B00008F0D8C0F22ED42FE72E162FC82F0E9488
:1012C000CC414B015C0180911706811170C082E016
:1012D00080931706009315068FEF8093A405109254
:1012E000E905D093E805912FAAEEB5E0E12FFE2D98
:1012F0008E2F891B8D1708F48EC0109216068091D0
:101300001606CC0FC82BC0931606809114068130A8
:1013100009F084C0109214060E94CC414B015C017C
:10132000809116068093BB00809110069091110663
:10133000A0911206B0911306892B8A2B8B2BA1F05A
:101340000E94CC41009110061091110620911206C6
:1013500030911306681979098A099B09061717073E
:101360002807390708F444C08091BC0083FDD8CF1A
:1013700085EC8093BC000E94CC414B015C01FF20B6
:1013800029F080911706823009F44AC08091A405A3
:101390008F3F09F469C08091A405803209F466C0CA
:1013A0008091A405803309F463C084E025C0809156
:1013B000100690911106A0911206B0911306892B88
:1013C0008A2B8B2B09F47FCF0E94CC4140901006D2
:1013D00050901106609012067090130668197909F2
:1013E0008A099B09461657066806790608F06BCFEE
:1013F00080910E0657DE85E0DF91CF911F910F910E
:10140000FF90EF90BF90AF909F908F907F906F90E4
:101410005F904F90089581918D936ACF85EEA9CF0B
:101420008091100690911106A0911206B0911306BA
:10143000892B8A2B8B2B09F4A2CF0E94CC410091DF
:1014400010061091110620911206309113066819AA
:1014500079098A099B09061717072807390708F031
:101460008ECFC6CF81E0C8CF80E0C6CF82E0C4CFA8
:1014700083E0C2CF85ED8093BC00809110069091EF
:101480001106A0911206B09113060796A11DB11D79
:1014900023E0B695A795979587952A95D1F7209142
:1014A000BC0024FD03C01092170608954091100659
:1014B000509111066091120670911306452B462B30
:1014C000472B69F30097A105B10541F025E32A9563
:1014D000F1F700000197A109B109E1CF80910E0653
:1014E000E1CD1F920F920FB60F9211240BB60F92FF
:1014F0002F933F934F935F936F937F938F939F931C
:10150000AF93BF93EF93FF938091B900887F8036AC
:1015100009F44CC008F03FC0883209F4A8C028F58F
:10152000803109F49CC0C8F4882309F4F8C08830DD
:1015300009F495C0FF91EF91BF91AF919F918F9169
:101540007F916F915F914F913F912F910F900BBEC3
:101550000F900FBE0F901F901895883109F487C027
:10156000803241F78093A40514C0803409F49CC0F4
:1015700040F48033B9F38833E9F68093A4058CDD19
:10158000D9CF803509F484C0883509F495C08834F2
:1015900089F670DFCFCF883909F48CC038F58837E9
:1015A00029F050F4883611F0803721F683E08093DB
:1015B00017061092A50557C0883809F47BC08039FA
:1015C00019F0803809F0B6CF8091A505803208F077
:1015D00071C0E091A50581E08E0F8093A5058091F3
:1015E000BB00F0E0EA55FA4F80833DC0803B39F004
:1015F000E0F4803A09F479C0883A09F09BCF84E09E
:10160000809317061092C7051092C605E0910C064C
:10161000F0910D0619958091C60581110FC081E0EA
:101620008093C6051092C80509C0803C09F475C0B6
:10163000883C09F472C0883B09F07CCFE091C70573
:1016400081E08E0F8093C705F0E0E853FA4F808168
:101650008093BB009091C7058091C60529C08091F9
:1016600016068093BB0085EC8093BC0063CF9091FD
:10167000E9058091E805981758F5E091E90581E0C2
:101680008E0F8093E905F0E0E651FA4F8081E9CFB3
:10169000E091E90581E08E0F8093E9058091BB0020
:1016A000F0E0E651FA4F80839091E9058091E805DA
:1016B0009817C8F285E8D8CFE091E90581E08E0F50
:1016C0008093E9058091BB00F0E0E651FA4F8083FA
:1016D0008091150681115DCF81E08093140684EA24
:1016E0008093BC001092170625CFD6DC8091A5050B
:1016F000803230F4E091A505F0E0EA55FA4F10820F
:101700006091A50570E0E0910A06F0910B0686EA6B
:1017100095E019951092A5050DCF85ECE1CF1092BB
:10172000A40537CFFF920F931F93CF93DF93C62F5C
:10173000042FF22E132F682F8EE495E0C1DB6C2F5F
:101740008EE495E054DBCF2DD12F0C0F1D2F111DF2
:10175000C017D10729F069918EE495E048DBF8CFF6
:101760008EE495E02ADC91E0811190E0892FDF91F1
:10177000CF911F910F91FF900895CF93DF931F9208
:10178000CDB7DEB749839E012F5F3F4F41E0CADFEF
:101790000F90DF91CF9108952F923F924F925F92D9
:1017A0006F927F928F929F92AF92BF92CF92DF9271
:1017B000EF92FF920F931F93CF93DF9300D0CDB79B
:1017C000DEB7E82E69834B8369010E94C0414B015B
:1017D0005C01F12C1A822B81222E312C2801712CD4
:1017E000612C8B81F81608F044C06E2D8EE495E0D4
:1017F00067DB69818EE495E0FADA8EE495E0DDDB63
:101800006E2D8EE495E05CDBA1014F195109413248
:10181000510514F040E250E06E2D8EE495E0CBDBF4
:101820008EE495E084DA892BD9F00115110569F46D
:101830008EE495E083DAF6019A81E90FF11D97FDB8
:10184000FA9580839F5F9A83EBCF0E94C04168190D
:1018500079098A099B09641575058605970540F382
:101860008EE495E0AADB8B81813208F080E2F80EED
:10187000B8CF01151105C1F00E94C041681979095E
:101880008A099B0930E020E06017710782079307FF
:1018900058F02A81822F220F990B2B8128171906C5
:1018A00019F014F08FEF8A838A810F900F900F90B8
:1018B000DF91CF911F910F91FF90EF90DF90CF902C
:1018C000BF90AF909F908F907F906F905F904F9060
:1018D0003F902F9008950F931F9389019A0141E043
:1018E0005BDF1F910F910895EF92FF920F931F936B
:1018F000CF93DF931F92CDB7DEB7182F062FE42EBC
:10190000F22E2091000230910102AE014F5F5F4F35
:10191000E2DF81E090E001C0880FEA94EAF74981B4
:10192000FF2069F0482B4983602F812F26DF0F901D
:10193000DF91CF911F910F91FF90EF9008958095C7
:101940004823F1CFDF92EF92FF920F931F93CF9333
:10195000DF931F92CDB7DEB7F82EE62E142FD22ECE
:101960002091000230910102AE014F5F5F4FB3DF63
:10197000882351F1812F8D19990BAC014F5F5F4F77
:1019800081E090E002C0880F991FDA94E2F7019796
:10199000042E01C0880F0A94EAF701C0000F4A958F
:1019A000EAF7482F4095998149238023482B4983A2
:1019B0006E2D8F2DE2DE0F90DF91CF911F910F9151
:1019C000FF90EF90DF90089580E0F5CF28E6FC01CE
:1019D000208308950F93062F23E042E06AE1FC0183
:1019E0008081B0DF0F9108950F93062F22E044E02D
:1019F0006BE1FC018081A6DF0F9108950F93062F04
:101A000022E044E06CE1FC0180819CDF0F910895AD
:101A10000F931F93CF93DF93EC010091000210917D
:101A200001029C012F5F3F4F42E063E48881B4DEF6
:101A300089819A81982789279827DF91CF911F91D3
:101A40000F9108950F931F93CF93DF93EC010091B3
:101A50000002109101029C012F5F3F4F42E065E4BC
:101A600088819ADE89819A81982789279827DF9132
:101A7000CF911F910F9108950F931F93CF93DF93F1
:101A8000EC0100910002109101029C012F5F3F4F79
:101A900042E067E4888180DE89819A8198278927DE
:101AA0009827DF91CF911F910F910895262F46E03F
:101AB0006BE6FC01808118CF0F93062F23E042E0F4
:101AC0006BE6FC0180813EDF0F910895CF93DF9399
:101AD000EC0161E0F1DF60E0CE0186DF60E0CE0185
:101AE0008DDF60E0CE01DF91CF91E0CFCF93C82FA3
:101AF0008EE495E0D6D96C2F88E196E06BDF88E123
:101B000096E0CF91E3CFCF93DF93EC0188E196E0AD
:101B10007FDF9983888388E196E094DF9B838A83C3
:101B200088E196E0A9DF9D838C83DF91CF910895B2
:101B300088E196E04BCF611102C00C94C343613041
:101B4000E1F362E0FACF662319F061E00C94FF4301
:101B500060E0FCCFCF93282F8823E1F0CB01BA01BE
:101B6000CFEFC20FEC2FF0E0E95DF94F208121307B
:101B700059F490580E94BD3D9B01AC016C2F70E060
:101B800090E080E0CF91A2C00E94B83D8C2FCF9111
:101B90000C948942CF9108950F931F938B019C0160
:101BA00083E036952795179507958A95D1F70359C0
:101BB000194F462F477021E030E0F90102C0EE0FC7
:101BC000FF1F4A95E2F7AF01F80120812423CB01E2
:101BD0000196211102C090E080E01F910F910895BD
:101BE0000F931F938B019C0183E0369527951795E2
:101BF00007958A95D1F7677081E090E001C0880F62
:101C00006A95EAF7F801E359F94F2081452B31F441
:101C10008095822380831F910F910895822BFACFA4
:101C20004F925F926F927F928F929F92AF92BF92EC
:101C3000CF92DF92EF92FF920F931F93CF93DF9398
:101C40004B015C0129013A01670161E0882D0E9486
:101C5000C343E4012196AE01C501B401C1DF20E018
:101C600030E0A901C801B6010E943C3F18168CF46F
:101C7000F401E95DF94F81E08083C801B6010E945B
:101C8000BD3D6B01C301B2010E94BD3DA601C4016F
:101C900021D0CE01DF91CF911F910F91FF90EF9056
:101CA000DF90CF90BF90AF909F908F907F906F907C
:101CB0005F904F900895882341F08150682F70E025
:101CC00090E080E050E040E08BCF0895862FB9018E
:101CD0000C9489429C01FC01EC51FF4FE491E150CE
:101CE000E231E0F4F0E08827E758F14F8F4F0C9491
:101CF000F3498B0E920E950EAC0EC10E8E0ED60EC3
:101D0000E20EE60EFD0E120F270F3E0F530F8E0E42
:101D1000680F7F0F940F84B5806884BD60E0822FC8
:101D20000C94FF4384B58062F8CF809180008C7F53
:101D300082608093800080918100807E8061682B2A
:101D400060938100509387004093860080918000CB
:101D5000806880938000E2CF809180008C7F8260D9
:101D60008093800080918100807E8061682B6093E9
:101D700081005093870040938600809180008062AC
:101D8000E8CF809180008C7F82608093800080917A
:101D90008100807E8061682B609381005093870072
:101DA00040938600809180008860D3CF8091B000FE
:101DB00080688093B0008091B100887F682B609329
:101DC000B100ACCF8091B0008062F3CF80919000E1
:101DD0008C7F82608093900080919100807E8061F2
:101DE000682B6093910050939700409396008091E8
:101DF000900080688093900091CF809190008C7FBC
:101E000082608093900080919100807E8061682B39
:101E100060939100509397004093960080919000BA
:101E20008062E8CF809190008C7F826080939000E8
:101E300080919100807E8061682B60939100509327
:101E4000970040939600809190008860D3CF809156
:101E5000A0008C7F82608093A0008091A100807E92
:101E60008061682B6093A1005093A7004093A60067
:101E70008091A00080688093A00050CF8091A00046
:101E80008C7F82608093A0008091A100807E806121
:101E9000682B6093A1005093A7004093A600809107
:101EA000A0008062E8CF8091A0008C7F8260809348
:101EB000A0008091A100807E8061682B6093A100CA
:101EC0005093A7004093A6008091A0008860D3CFD4
:101ED000809120018C7F826080932001809121017C
:101EE000807E8061682B609321015093270140938D
:101EF0002601809120018068809320010FCF80917E
:101F000020018C7F82608093200180912101807E5E
:101F10008061682B60932101509327014093260133
:101F2000809120018062E8CF809120018C7F8260C7
:101F30008093200180912101807E8061682B6093D5
:101F40002101509327014093260180912001886050
:101F5000D3CF90E080E008950F931F93009709F48A
:101F60008AC06115710509F486C000910D041091B5
:101F70000E0420910F04309110040E3F1F4F2F4F7D
:101F80003F4F09F06AC0DB014D915D916D917C91ED
:101F900040930D0450930E0460930F04709310044B
:101FA00040910D0450910E0460910F047091100443
:101FB000DC011296ED91FC9180819181A281B38127
:101FC0008093E2069093E306A093E406B093E506BF
:101FD00084819581A681B7818093DE069093DF0688
:101FE000A093E006B093E10680859185A285B38534
:101FF0008093DA069093DB06A093DC06B093DD06AF
:1020000084859585A685B7858093D6069093D70657
:10201000A093D806B093D9061092D2061092D30698
:102020001092D4061092D5060E94B8208DED90E251
:10203000909377068093760690937906809378063E
:102040000E94A71F009731F421E030E03093E706AB
:102050002093E6061F910F91089500910D041091B1
:102060000E0420910F0430911004FB0100831183B2
:102070002283338395CF8FEF9FEFECCF8F929F9288
:10208000AF92BF92CF92DF92EF92FF921F93CF93C6
:10209000DF934B015C011091E90682E090E09093A0
:1020A000E7068093E60681149104A104B10441F48B
:1020B0008091E906811104C08091E806C1E0811198
:1020C000C0E0C12CD12C76018091E906811106C0B7
:1020D0008091E806811102C0CC23D9F083E090E022
:1020E0009093E7068093E606CC2381F1CCE9DFEFFD
:1020F000111102C00E944124CE01DF91CF911F91A6
:10210000FF90EF90DF90CF90BF90AF909F908F9017
:1021100008956AE070E080E090E00E94F14180E183
:10212000C80E87E2D81EE11CF11C8FEF88169806B6
:10213000A806B80631F0C1E08C149D04AE04BF04BB
:1021400008F0C0E080E00E94DB1FBECFD0E0C0E01E
:10215000CFCFCF92DF92EF92FF920F931F93CF9347
:10216000DF938F3F910511F008F051C02091E606F2
:102170003091E7062330310539F02091E6063091A1
:10218000E7062130310531F424E030E03093E706F2
:102190002093E6066A017B01EC0182309105A8F0EC
:1021A00011E0AE01C701B6010E94A61FAB01BC0140
:1021B000CE011123F9F0DF91CF911F910F91FF9084
:1021C000EF90DF90CF900C9466268C01000F111FCA
:1021D0000A58194FD8018D919C91892B09F30E94BF
:1021E00070260297E9F6D801ED91FC91CE01199580
:1021F000182FD7CF0E94882690E080E0DF91CF9102
:102200001F910F91FF90EF90DF90CF9008958FEF87
:102210009FEFF4CF80E00C94DB1FCF93DF9386E039
:1022200090E09093E7068093E6060E943420EC014C
:10223000E6E7F6E084E0DF011D928A95E9F70E9467
:10224000D9231092E7061092E606CE01DF91CF91D6
:1022500008958091E80608958091D10608956093CD
:102260000D0470930E0480930F049093100490E07B
:1022700080E008952F923F924F925F926F927F92EB
:102280008F929F92AF92BF92CF92DF92EF92FF9286
:102290000F931F93CF93DF93CDB7DEB7E7970FB6BA
:1022A000F894DEBF0FBECDBF61E070E080E090E04B
:1022B0000E9487066093310B7093320B8093330B2F
:1022C0009093340B0E94EB3D20914E0330914F03CD
:1022D00040915003509151030E94403F20913A0396
:1022E00030913B0340913C0350913D030E94403F9D
:1022F000162F072F382E292E862F902FA32DB22D83
:102300008093210B9093220BA093230BB093240B6B
:10231000209152033091530340915403509155033F
:10232000612F702F832D922D0E94403F6D837E83FD
:102330008F8398876093250B7093260B8093270BD0
:102340009093280B8091A40A9091A50AA091A60AC7
:10235000B091A70A89839A83AB83BC8320915E03E3
:1023600030915F034091600350916103BC01CD0146
:102370000E94403F6EA37FA388A799A76093290B73
:1023800070932A0B80932B0B90932C0B2091AC0A0B
:102390003091AD0A4091AE0A5091AF0A6091660348
:1023A0007091670380916803909169030E94403F98
:1023B00020E030E0A9010E94503D20E030E0A9017A
:1023C0000E94503D20E030E0A9010E94503D698705
:1023D0007D87898B9D8B2091B00A3091B10A409105
:1023E000B20A5091B30A6091820370918303809185
:1023F0008403909185030E94403F20E030E0A901D2
:102400000E94503D20E030E0A9010E94503D20E0B4
:1024100030E0A9010E94503D6B017C01C0922D0B60
:10242000D0922E0BE0922F0BF092300B2091B40A39
:102430003091B50A4091B60A5091B70A60919E0357
:1024400070919F038091A0039091A1030E94403F4F
:1024500020E030E0A9010E94503D20E030E0A901D9
:102460000E94503D698F7D8F89A39DA32091B80A5A
:102470003091B90A4091BA0A5091BB0A6091BA03EF
:102480007091BB038091BC039091BD030E94403FBB
:1024900089849D84A988BD888092C80A9092C90ABF
:1024A000A092CA0AB092CB0AC092CC0AD092CD0AAE
:1024B000E092CE0AF092CF0AC98CDD8CE9A0FDA093
:1024C000C092D00AD092D10AE092D20AF092D30AF6
:1024D00020E030E0A9010E94503D6B017C01C092D8
:1024E000D40AD092D50AE092D60AF092D70A209167
:1024F000BC0A3091BD0A4091BE0A5091BF0A60915A
:10250000C6037091C7038091C8039091C9030E94CC
:10251000403F20E030E0A9010E94503D2B013C01EA
:102520002091EA023091EB024091EC025091ED02D1
:10253000612F702F832D922D0E94403F4B015C0133
:1025400020E030E0A901C301B2010E94503D9B018F
:10255000AC01C501B4010E94503D6AA77BA78CA7BE
:102560009DA72091C00A3091C10A4091C20A5091A2
:10257000C30A6091DE037091DF038091E0039091C4
:10258000E1030E94403F20E030E0A9010E94503D5D
:1025900020E030E0A9010E94503D4B015C012091F8
:1025A000EE023091EF024091F0025091F102612F62
:1025B000702F832D922D0E94403F9B01AC01C501DD
:1025C000B4010E94503D6EA77FA788AB99AB2091C4
:1025D000C40A3091C50A4091C60A5091C70A609159
:1025E000F6037091F7038091F8039091F9030E942C
:1025F000403F20E030E0A9010E94503D4B015C01CA
:102600002091F2023091F3024091F4025091F502D0
:10261000612F702F832D922D0E94403F9B01AC01B2
:10262000C501B4010E94503D6AAB7BAB8CAB9DAB46
:1026300046EF442E42E0542E58ED652E5AE0752E9A
:10264000A2E0B2E0BC8BAB8B5FAA4EAAB4E04B0E0B
:10265000511CEEA9FFA920A131A142A153A16EA551
:102660007FA588A999A90E94403F4B015C01AEA9B2
:10267000BFA950962D913D914D915C9153976AA5BC
:102680007BA58CA59DA50E94403F9B01AC01C50187
:10269000B4010E94503D4B015C01EEA9FFA920A9A5
:1026A00031A942A953A96AA97BA98CA99DA90E9415
:1026B000403F9B01AC01C501B4010E94503D4B015C
:1026C0005C01AEA9BFA92D913D914D915C91612F07
:1026D000702F832D922D0E94403F9B01AC01C501BC
:1026E000B4010E94503DF3016193719381939193E2
:1026F0003F0186E093E08415950509F0A5CF809110
:102700000B04813009F0B3C72091A00A3091A10ACF
:102710004091A20A5091A30A6D817E818F81988594
:102720000E944F3D60932D0B70932E0B80932F0BC7
:102730009093300B2091A80A3091A90A4091AA0ADF
:102740005091AB0A6EA17FA188A599A50E944F3D2B
:102750006B017C0189809A80AB80BC8020912D0B1D
:1027600030912E0B40912F0B5091300B60917602DF
:102770007091770280917802909179020E94403F97
:102780002B013C012091720230917302409174023E
:1027900050917502612F702F832D922D0E94403F22
:1027A0009B01AC01C301B2010E94503D2B013C01D1
:1027B00020917A0230917B0240917C0250917D02FF
:1027C000B401C5010E94403F9B01AC01C301B201AD
:1027D0000E94503D4B015C0120917E0230917F02AE
:1027E0004091800250918102C701B6010E94403F92
:1027F0009B01AC01C501B4010E94503D6B017C01FD
:1028000069817A818B819C819F7720E030E040E470
:102810005FE30E94B43D87FF60C760E070E080E83E
:102820009FE3A70196010E94403F362E272E898301
:102830009D8320E030E040E251E40E94503D2DECC9
:102840003CEC4CE455E40E94403F0E94263E6093DD
:102850002D0B70932E0B80932F0B9093300B0E94B7
:102860008B1E882309F43DC710922D0B10922E0B5E
:1028700010922F0B1092300BC0902D0BD0902E0B7E
:10288000E0902F0BF090300B20E030E0A901C70161
:10289000B6010E94B43D87FF46C7C701B6019058F4
:1028A0000E94BD3D7195619571097093F90A60931D
:1028B000FA0A20E030E040E251E46091210B70918F
:1028C000220B8091230B9091240B0E94503D2DEC04
:1028D0003CEC4CE455E40E94403F0E94263E60934D
:1028E0002D0B70932E0B80932F0B9093300B0E9427
:1028F0008B1E882309F41CC710922D0B10922E0BEF
:1029000010922F0B1092300BC0902D0BD0902E0BED
:10291000E0902F0BF090300B20E030E0A901C701D0
:10292000B6010E94B43D87FF25C7C701B601905884
:102930000E94BD3D7195619571097093FB0A60938A
:10294000FC0A20E030E040E251E46091A40A70917A
:10295000A50A8091A60A9091A70A0E94503D2DECED
:102960003CEC4CE455E40E94403F0E94263E6093BC
:102970002D0B70932E0B80932F0B9093300B0E9496
:102980008B1E882309F4FBC610922D0B10922E0B80
:1029900010922F0B1092300BC0902D0BD0902E0B5D
:1029A000E0902F0BF090300B20E030E0A901C70140
:1029B000B6010E94B43D87FF04C7C701B601905815
:1029C0000E94BD3D7195619571097093FD0A6093F8
:1029D000FE0A20E030E040E251E469857D85898986
:1029E0009D890E94503D2DEC3CEC4CE455E40E9446
:1029F000403F0E94263E60932D0B70932E0B8093D8
:102A00002F0B9093300B0E948B1E882309F4DEC697
:102A100010922D0B10922E0B10922F0B1092300B48
:102A2000C0902D0BD0902E0BE0902F0BF090300B20
:102A300020E030E0A901C701B6010E94B43D87FF44
:102A4000E7C6C701B60190580E94BD3D71956195DA
:102A500071097093FF0A6093000B20E030E040E2C0
:102A600051E4698D7D8D89A19DA10E94503D2DEC81
:102A70003CEC4CE455E40E94403F0E94263E6093AB
:102A80002D0B70932E0B80932F0B9093300B0E9485
:102A90008B1E882309F4C1C610922D0B10922E0BA9
:102AA00010922F0B1092300BC0902D0BD0902E0B4C
:102AB000E0902F0BF090300B20E030E0A901C7012F
:102AC000B6010E94B43D87FFCAC6C701B60190583F
:102AD0000E94BD3D7195619571097093010B6093E2
:102AE000020B20E030E040E251E46091D80A70919E
:102AF000D90A8091DA0A9091DB0A0E94503D2DECB0
:102B00003CEC4CE455E40E94403F0E94263E60931A
:102B10002D0B70932E0B80932F0B9093300B0E94F4
:102B20008B1E882309F4A0C610922D0B10922E0B39
:102B300010922F0B1092300BC0902D0BD0902E0BBB
:102B4000E0902F0BF090300B20E030E0A901C7019E
:102B5000B6010E94B43D87FFA9C6C701B6019058CF
:102B60000E94BD3D7195619571097093030B60934F
:102B7000040B20E030E040E251E46091E00A709103
:102B8000E10A8091E20A9091E30A0E94503D2DEC07
:102B90003CEC4CE455E40E94403F0E94263E60938A
:102BA0002D0B70932E0B80932F0B9093300B0E9464
:102BB0008B1E882309F47FC610922D0B10922E0BCA
:102BC00010922F0B1092300BC0902D0BD0902E0B2B
:102BD000E0902F0BF090300B20E030E0A901C7010E
:102BE000B6010E94B43D87FF88C6C701B601905860
:102BF0000E94BD3D71956195710980910C0480938F
:102C0000F80A7093050B6093060B60917E0A709131
:102C10007F0A8091800A9091810A0E94BD3DC62E54
:102C20006091760A7091770A8091780A9091790A7A
:102C30000E94BD3DE62E60917A0A70917B0A8091D8
:102C40007C0A90917D0A0E94BD3D062F6091720A18
:102C50007091730A8091740A9091750A0E94BD3D2B
:102C6000698760916E0A70916F0A8091700A9091E5
:102C7000710A0E94BD3D862F1F921F921F921F92C4
:102C80001F921F92912C812C92E0A92E29854FE052
:102C900050E068EF7AE00E9452018091A40A90917E
:102CA000A50AA091A60AB091A70A89879A87AB873F
:102CB000BC878091210B9091220BA091230BB091A6
:102CC000240B8D879E87AF87B88B02EA12E027E03E
:102CD000622E2BE0722E3EEA432E32E0532E0F90EE
:102CE0000F900F900F900F900F901A8B098B0C5F25
:102CF0001F4FA989BA891C962D913D914D915C91E8
:102D00001F976EA57FA588A999A90E94403F6B01D6
:102D10007C01E989FA8920813181428153816AA548
:102D20007BA58CA59DA50E94403F9B01AC01C701DE
:102D3000B6010E94503D6B017C01D80154962D9143
:102D40003D914D915C9157976AA97BA98CA99DA94A
:102D50000E94403F9B01AC01C701B6010E94503D5B
:102D60006B017C01F80120AD31AD42AD53AD6985F9
:102D70007A858B859C850E94403F4B015C01D80180
:102D80009C962D913D914D915C919F976D857E858F
:102D90008F8598890E94403F9B01AC01C501B40119
:102DA0000E94503D4B015C01F80120A131A142A1DC
:102DB00053A1632D722D89819D810E94403F9B010B
:102DC000AC01C501B4010E94503D9B01AC01C7019B
:102DD000B6010E94503DD3016D937D938D939D93D9
:102DE0003D014016510609F080CFE8ECFAE0FA8B7D
:102DF000E98B82E592E09E8B8D8B8F01C12CD12CCB
:102E0000760146015701D8014D905D906D907D90FF
:102E10008D01ED89FE892081318142815381C30179
:102E2000B2010E94403F9B01AC01C501B4010E9468
:102E3000503D4B015C01AD89BE8914962D913D91A9
:102E40004D915C911797C301B2010E94403F9B01D5
:102E5000AC01C701B6010E94503D6B017C01ED89B8
:102E6000FE893896FE8BED8B88ED9AE080179107EE
:102E700051F6A50194016D857E858F8598890E9404
:102E80004F3D4B015C018092130B9092140BA0926A
:102E9000150BB092160BA701960169857A858B8573
:102EA0009C850E944F3D6B017C01C092170BD09214
:102EB000180BE092190BF0921A0B209186023091B8
:102EC00087024091880250918902C501B4010E9495
:102ED000403F20E030E0A9010E94503D2B013C0121
:102EE00020918A0230918B0240918C0250918D0288
:102EF000C501B4010E94403F20E030E0A9010E94DA
:102F0000503D69877A878B879C8720918E0230910C
:102F10008F024091900250919102C501B4010E942C
:102F2000403F20E030E0A9010E94503D6D877E8740
:102F30008F87988B20918202309183024091840286
:102F400050918502C501B4010E94403F20E030E06D
:102F5000A9010E94503D4B015C01209192023091E9
:102F600093024091940250919502C701B6010E94CC
:102F7000403F9B01AC01C501B4010E94503D6D8BE7
:102F80007E8B8F8B988F2091960230919702409183
:102F9000980250919902C701B6010E94403FA301D7
:102FA00092010E94503D698F7A8F8B8F9C8F209168
:102FB0009A0230919B0240919C0250919D02C70160
:102FC000B6010E94403F29853A854B855C850E9469
:102FD000503D6D8F7E8F8F8F98A320919E023091F0
:102FE0009F024091A0025091A102C701B6010E9428
:102FF000403F2D853E854F8558890E94503D69A3ED
:103000007AA38BA39CA3C0922D0BD0922E0BE0929F
:103010002F0BF092300B8D899E89AF89B88D8093EC
:10302000210B9093220BA093230BB093240B1D86AE
:103030001E861F86188A19861A861B861C86812C76
:10304000912C540124013501A989BA89CD90DD90D4
:10305000ED90FD90BA8BA98BEB89FC8920813181A1
:1030600042815381C701B6010E94403F9B01AC01E0
:10307000C301B2010E94503D2B013C01AB89BC89C8
:1030800014962D913D914D915C911797C701B60112
:103090000E94403F9B01AC01C501B4010E94503D1C
:1030A0004B015C01EB89FC89208531854285538584
:1030B000C701B6010E94403F9B01AC0169857A853A
:1030C0008B859C850E94503D69877A878B879C877A
:1030D000AB89BC891C962D913D914D915C911F97B8
:1030E000C701B6010E94403F9B01AC016D857E8502
:1030F0008F8598890E94503D6D877E878F87988B3A
:10310000EB89FC897096FC8BEB8B89899A8908176F
:10311000190709F099CFC0922D0BD0922E0BE09297
:103120002F0BF092300B20914202309143024091DC
:10313000440250914502632D722D89819D810E9428
:10314000403F2D893E894F89588D0E94503DA301F3
:1031500092010E94503D6093E80A7093E90A8093BF
:10316000EA0A9093EB0A209146023091470240917F
:10317000480250914902632D722D89819D810E94E0
:10318000403F298D3A8D4B8D5C8D0E94503DA501AD
:1031900094010E94503D6093EC0A7093ED0A809375
:1031A000EE0A9093EF0A20914A0230914B0240912F
:1031B0004C0250914D02632D722D89819D810E9498
:1031C000403F2D8D3E8D4F8D58A10E94503D298549
:1031D0003A854B855C850E94503D6093F00A709360
:1031E000F10A8093F20A9093F30A20914E023091F3
:1031F0004F024091500250915102632D722D8981EE
:103200009D810E94403F29A13AA14BA15CA10E944F
:10321000503D2D853E854F8558890E94503D6093D5
:10322000F40A7093F50A8093F60A9093F70A8BE1FB
:103230009BE00E94830D60911B0B70911C0B072E6D
:10324000000C880B990B0E94EB3D4B015C0191E057
:103250009987232D322D49815D8160914A037091B8
:103260004B0380914C0390914D030E943C3F1816F4
:103270000CF01986698588E00E94A30D0091460331
:1032800010914703A0914803AD87B0914903B987D6
:10329000232D322D49815D81B801CD010E94B43DBD
:1032A00087FD1AC00091020410910304E091040408
:1032B000ED87F0910504F987232D322D49815D8139
:1032C000B801CF010E943C3F181634F0032D122D97
:1032D00089818D879D81998766E070E080E090E02C
:1032E0000E94CC0D90939F0A80939E0A2091060421
:1032F000309107044091080450910904B8018D856C
:1033000099850E94403F0E94263E60932D0B70934A
:103310002E0B80932F0B9093300BFDD4882309F450
:10332000F1C210922D0B10922E0B10922F0B1092B7
:10333000300BC0902D0BD0902E0BE0902F0BF09007
:10334000300B20E030E0A901C701B6010E94B43D76
:1033500087FFFAC2C701B60190580E94BD3D619532
:1033600070E090E080E00E94EB3DAB01BC018091F9
:103370009E0A90919F0A0E94AA0D8091250B909120
:10338000260BA091270BB091280B8093A00A909355
:10339000A10AA093A20AB093A30A20913603309108
:1033A00037034091380350913903C501B4010E949D
:1033B0004F3D2091FE033091FF0340910004509156
:1033C00001040E94403F20915603309157034091E1
:1033D0005803509159030E94403F2091A40A309114
:1033E000A50A4091A60A5091A70A0E94503D6093F9
:1033F000A40A7093A50A8093A60A9093A70A8091C5
:10340000290B90912A0BA0912B0BB0912C0B809340
:10341000A80A9093A90AA093AA0AB093AB0A209194
:10342000AC0A3091AD0A4091AE0A5091AF0A60915A
:1034300062037091630380916403909165030E941D
:10344000403F2091E80A3091E90A4091EA0A509100
:10345000EB0A0E94503D6093AC0A7093AD0A8093D2
:10346000AE0A9093AF0A2091B00A3091B10A409110
:10347000B20A5091B30A60917E0370917F038091EC
:103480008003909181030E94403F2091EC0A30918B
:10349000ED0A4091EE0A5091EF0A0E94503D609370
:1034A000B00A7093B10A8093B20A9093B30A209144
:1034B000B40A3091B50A4091B60A5091B70A6091AA
:1034C0009A0370919B0380919C0390919D030E94AD
:1034D000403F2091F00A3091F10A4091F20A509158
:1034E000F30A0E94503D6093B40A7093B50A80932A
:1034F000B60A9093B70A2091B80A3091B90A409160
:10350000BA0A5091BB0A6091B6037091B7038091DB
:10351000B8039091B9030E94403F2091F40A309182
:10352000F50A4091F60A5091F70A0E94503D6093C7
:10353000B80A7093B90A8093BA0A9093BB0A209193
:10354000BC0A3091BD0A4091BE0A5091BF0A6091F9
:10355000C2037091C3038091C4039091C5030E947C
:10356000403F2091070B3091080B4091090B50917F
:103570000A0B0E94503D6093BC0A7093BD0A809371
:10358000BE0A9093BF0A2091C00A3091C10A4091AF
:10359000C20A5091C30A6091DA037091DB038091F3
:1035A000DC039091DD030E94403F20910B0B309192
:1035B0000C0B40910D0B50910E0B0E94503D6093EF
:1035C000C00A7093C10A8093C20A9093C30A2091E3
:1035D000C40A3091C50A4091C60A5091C70A609149
:1035E000F2037091F3038091F4039091F5030E942C
:1035F000403F20910F0B3091100B4091110B5091D7
:10360000120B0E94503D6093C40A7093C50A8093C8
:10361000C60A9093C70A8091AC069091AD06A0911E
:10362000AE06B091AF060196A11DB11D8093AC0608
:103630009093AD06A093AE06B093AF06E7960FB693
:10364000F894DEBF0FBECDBFDF91CF911F910F91D8
:10365000FF90EF90DF90CF90BF90AF909F908F90B2
:103660007F906F905F904F903F902F900895809142
:103670000A04813049F11091D80A0091D90A30909A
:10368000DA0A2090DB0A8091DC0A9091DD0AA09191
:10369000DE0AB091DF0A80932D0B90932E0BA0933E
:1036A0002F0BB093300B8090E00A9090E10AA0902D
:1036B000E20AB090E30AC090E40AD090E50AE090F4
:1036C000E60AF090E70A4AC8898C9D8CA9A0BDA0A3
:1036D00019850D8539882D8841C860E070E0CB01DF
:1036E000A0C860912D0B70912E0B80912F0B9091A3
:1036F000300BE6D28111B8C860912D0B70912E0B62
:1037000080912F0B9091300B20E030E040E857E49F
:103710000E94403E60932D0B70932E0B80932F0BD5
:103720009093300BA9C8C701B6010E94BD3DBDC82A
:1037300060912D0B70912E0B80912F0B9091300B7F
:10374000BFD28111D9C860912D0B70912E0B809141
:103750002F0B9091300B20E030E040E857E40E94BE
:10376000403E60932D0B70932E0B80932F0B909304
:10377000300BCAC8C701B6010E94BD3DDEC86091CA
:103780002D0B70912E0B80912F0B9091300B98D2B6
:103790008111FAC860912D0B70912E0B80912F0B27
:1037A0009091300B20E030E040E857E40E94403E2A
:1037B00060932D0B70932E0B80932F0B9093300BF7
:1037C000EBC8C701B6010E94BD3DFFC860912D0B3B
:1037D00070912E0B80912F0B9091300B71D2811133
:1037E00017C960912D0B70912E0B80912F0B90912A
:1037F000300B20E030E040E857E40E94403E609308
:103800002D0B70932E0B80932F0B9093300B08C9C8
:10381000C701B6010E94BD3D1CC960912D0B70917E
:103820002E0B80912F0B9091300B4AD2811134C90D
:1038300060912D0B70912E0B80912F0B9091300B7E
:1038400020E030E040E857E40E94403E60932D0BBA
:1038500070932E0B80932F0B9093300B25C9C701CB
:10386000B6010E94BD3D39C960912D0B70912E0BA0
:1038700080912F0B9091300B23D2811155C960910B
:103880002D0B70912E0B80912F0B9091300B20E01F
:1038900030E040E857E40E94403E60932D0B709367
:1038A0002E0B80932F0B9093300B46C9C701B601A6
:1038B0000E94BD3D5AC960912D0B70912E0B8091D5
:1038C0002F0B9091300BFCD1811176C960912D0B9B
:1038D00070912E0B80912F0B9091300B20E030E0F7
:1038E00040E857E40E94403E60932D0B70932E0BEE
:1038F00080932F0B9093300B67C9C701B6010E94CC
:10390000BD3D7BC960912D0B70912E0B80912F0BCB
:103910009091300BD5D1811104CD60912D0B709118
:103920002E0B80912F0B9091300B20E030E040E87F
:1039300053E40E94403E60932D0B70932E0B8093B6
:103940002F0B9093300BF5CCC701B6010E94BD3D03
:1039500007CD8F929F92AF92BF92DF92EF92FF922C
:103960000F931F93CF93DF9384E090E072D1809107
:10397000350B9091360BA091370BB091380B80939B
:10398000360390933703A0933803B0933903E6E9E5
:10399000F6E08FE1DF011D928A95E9F780E090E083
:1039A000A0E8BFEB828F938FA48FB58F88E597EA4D
:1039B000A0E6B2E484839583A683B7838AE096EF7A
:1039C000A5E4B0E680879187A287B38785E296E475
:1039D000A2EEB9EF84879587A687B7878BE59DEC24
:1039E000A1E1B5ED808B918BA28BB38BAAE8B6E0F9
:1039F000B383A283EAE7F6E01196FC93EE9380E6A8
:103A000094E09183808393838283958384839783D7
:103A10008683918780879387828795878487978716
:103A200086878AEA96E015969C938E9314978AE986
:103A300096E013969C938E9312974FEF5FEFBA0127
:103A400018964D935D936D937C931B97C8E6DAE0CF
:103A500080E6FE0111928A95E9F7812C912C5401A0
:103A600083948D8E9E8EAF8EB8A242E150E063E1CA
:103A700070E081E090E00E949305DD24D394D9A208
:103A8000188289829A82AB82BC821E821F8218862B
:103A9000198680E090E0A0E8BFE38A879B87AC8727
:103AA000BD871E861F86188A198A1A8A1B8A1C8A55
:103AB0001D8A1E8A1F8A188E198E80E00E942D0191
:103AC000DD821AA28BA29CA2ADA2BEA290E080E0F1
:103AD0000E94760DDFA218A689A69AA6ABA6BCA660
:103AE00061E088E00E949B0DDDA618AA89AA9AAA27
:103AF000ABAABCAAE12CF12C8701A801970166E0D2
:103B000070E080E090E00E94100E9FAB8EABDDAACB
:103B100080913E0390913F03A0914003B0914103F7
:103B200088AF99AFAAAFBBAF80915A0390915B0366
:103B3000A0915C03B0915D038CAF9DAFAEAFBFAF02
:103B40008091420390914303A0914403B0914503B7
:103B50008093A80A9093A90AA093AA0AB093AB0AEB
:103B6000DF91CF911F910F91FF90EF90DF90BF9069
:103B7000AF909F908F9008958091840A811103C027
:103B800081E08093840A8091680A811103C081E0FA
:103B90008093680A80918A0A811103C081E0809332
:103BA0008A0A8091900A811103C081E08093900A73
:103BB0008091980A81112EC081E08093980A8091AB
:103BC000990A90919A0AA0919B0AB0919C0A019738
:103BD000A105B105F9F480919D0A8823D9F066E02A
:103BE00070E080E090E00E94CC0D90939F0A80935B
:103BF0009E0A40E050E0BA010E94AA0D66E070E023
:103C000080E090E00E94CC0D90939F0A80939E0AE2
:103C10000C945B0E089560E070E080E89FE70895E3
:103C200060E070E080E89FE7089560E070E080E881
:103C30009FEF089560E070E080E89FEF089560E0F6
:103C400070E080EC9FEF089560E070E080EC9FEF03
:103C50000895F5DF6093410B7093420B8093430B03
:103C60009093440BF1DF6093350B7093360B809388
:103C7000370B9093380BCFDF60933D0B70933E0B67
:103C800080933F0B9093400BCBDF6093390B709385
:103C90003A0B80933B0B90933C0BC7DF6093450B33
:103CA0007093460B8093470B9093480BC3DF609350
:103CB000490B70934A0B80934B0B90934C0B0895D8
:103CC000CF92DF92EF92FF92CF936B017C01AC0118
:103CD0009B016091390B70913A0B80913B0B909155
:103CE0003C0B0E94B43DC1E0882371F0A70196010E
:103CF0006091490B70914A0B80914B0B90914C0B4A
:103D00000E94B43D8111C0E08C2FCF91FF90EF90C5
:103D1000DF90CF9008950F931F938B019C01002794
:103D2000112720783F770115110520483F4749F4B6
:103D3000AB01BC016F77772781E0452B462B472BE2
:103D400009F480E01F910F9108954F925F926F9256
:103D50007F928F929F92AF92BF92CF92DF92EF921B
:103D6000FF920F931F93F8944090C1065090C206A3
:103D70006090C3067090C406C090B506D090B60699
:103D8000E090B706F090B806452B09F0A4C09B015F
:103D9000AC01241935094609570929013A01009156
:103DA000BD061091BE062091BF063091C0064801A5
:103DB0005901840C951CA61CB71C80169106A206FE
:103DC000B306A0F40091B9061091BA062091BB0683
:103DD0003091BC060F5F1F4F2F4F3F4F0093B90626
:103DE0001093BA062093BB063093BC068092BD06A2
:103DF0009092BE06A092BF06B092C0060091B9068E
:103E00001091BA062091BB063091BC068092C5067F
:103E10009092C606A092C706B092C8060093C90643
:103E20001093CA062093CB063093CC066093C1064C
:103E30007093C2068093C3069093C406A8E8B3E1CA
:103E4000A30192010E94FB496C0D7D1D8E1D9F1DDB
:103E50006093B5067093B6068093B7069093B80644
:103E600000910D0410910E0420910F043091100464
:103E70000F3F1F4F2F4F3F4FF1F000910D04109156
:103E80000E0420910F04309110040E3F1F4F2F4F4E
:103E90003F4F89F0C0900D04D0900E04E0900F04C5
:103EA000F090100421E08C149D04AE04BF0408F4CB
:103EB00020E02093D10678941F910F91FF90EF900E
:103EC000DF90CF90BF90AF909F908F907F906F903A
:103ED0005F904F9008954B015C0184189508A608E7
:103EE000B708A3019201261B370B480B590B641529
:103EF000750586059705D0F082169306A406B506CB
:103F000040F420E030E0A90181149104A104B1043F
:103F100091F4A8E8B3E10E94FB49A7019601261B92
:103F2000370B480B590BCA01B901C5CF821693064E
:103F3000A406B50670F7A8E8B3E1A50194010E94B4
:103F4000FB496C0D7D1D8E1D9F1DB5CFFECECF9301
:103F5000DF9300D01F92CDB7DEB71C821B821A827E
:103F600019821092CD061092CE061092CF061092B2
:103F7000D006BE016F5F7F4FCE0103960E94433B88
:103F800069817A818B819C810E949435009761F4CC
:103F9000BE016F5F7F4FCE0103960E944F3B698148
:103FA0007A818B819C812AD50F900F900F900F9072
:103FB000DF91CF910895FF920F931F93CF93DF93DB
:103FC000082F60E070E0CB010E94F141FF24F394E0
:103FD0000E947D34EC01892B89F010E0CE3F8FEFF9
:103FE000D80769F0002361F160E070E0CB010E9426
:103FF000F14181E090E0892B59F322C011E021D5F5
:10400000EC01892B21F0CE3F8FEFD80759F7111122
:104010001EC011E0229609F410E00E942D34EC013C
:10402000892B21F0CE3F8FEFD807E1F6111111C097
:1040300011E0CE3F8FEFD80709F410E001110BC05B
:10404000CE01DF91CF911F910F91FF90089511E064
:10405000E4CF11E0F3CF60E070E0CB010E94F141CA
:104060001F25812F90E0C7CFCF93DF938091D1069A
:10407000882321F060E070E0CB0148D631D6D0E053
:10408000C0E0892B71F06AE070E080E090E00E946F
:10409000F14181E090DF24D62196C03727E1D20795
:1040A00081F723D60E94E8351092E9061092E806BF
:1040B0001092E2061092E3061092E4061092E506D2
:1040C0001092DE061092DF061092E0061092E106D2
:1040D0001092DA061092DB061092DC061092DD06D2
:1040E0001092D6061092D7061092D8061092D906D2
:1040F0001092D2061092D3061092D4061092D506D2
:104100004EEF5FEF6FEF7FEF40930D0450930E047F
:1041100060930F04709310041092D106E5ECF6E062
:1041200028E0DF011D922A95E9F71092C10610924E
:10413000C2061092C3061092C4061092BD061092D9
:10414000BE061092BF061092C0061092B9061092D9
:10415000BA061092BB061092BC061092B5061092D9
:10416000B6061092B7061092B806DF91CF91089567
:104170001092F5061092F6061092F7061092F806C5
:104180001092F4068091FD069091FE069093F3063E
:104190008093F2061092F1061092F0061092EC064F
:1041A0001092ED061092EE061092EF061092FA06AB
:1041B0001092F90690E080E00895CF92DF92EF929E
:1041C000FF920F931F93CF938C01892B09F055C059
:1041D0002091FD063091FE068091F2069091F30643
:1041E0004091FD065091FE065093F3064093F2066F
:1041F0002817390781F01092F1061092F0061092FC
:10420000EC061092ED061092EE061092EF06109258
:10421000FA061092F9068091FD069091FE0601972C
:1042200061F58091F9069091FA06892B21F480912D
:104230001104811112C08091F9069091FA0601973C
:10424000E1F48091EC069091ED06A091EE06B0911C
:10425000EF060197A105B10581F41092EC061092CA
:10426000ED061092EE061092EF061092110482E015
:1042700090E09093FA068093F9068091FD06909164
:10428000FE06019709F01CC1809113079091140755
:104290008017910709F014C180910F0790911007C2
:1042A000A0911107B0911207009709F409C120915C
:1042B0000E0721110DC040910F075091100760911A
:1042C000110770911207452B462B472B09F4F8C0B4
:1042D0002091F9063091FA062230310509F0F0C03C
:1042E0002091F0062111ECC0FC01C080D180E28059
:1042F000F3808091F406882309F4D3C080910007ED
:1043000090910107892B09F4FDC02091000730919D
:10431000010781E02230310509F080E0209100079B
:1043200030910107C1E02130310549F020910007AB
:1043300030910107C1E02230310509F0C0E0882347
:1043400009F456C020910A0730910B0740910C07E1
:1043500050910D07C701B6010E943C3F87FD14C074
:1043600020910A0730910B0740910C0750910D07DF
:104370006091F5067091F6068091F7069091F80627
:104380000E94B43D87FD22C020910A0730910B079F
:1043900040910C0750910D07C701B6010E943C3FA8
:1043A000181634F520910A0730910B0740910C073D
:1043B00050910D076091F5067091F6068091F70611
:1043C0009091F8060E94B43D811112C080910207BD
:1043D00090910307A0910407B0910507892B8A2BC0
:1043E0008B2B19F481E08093F10681E08093F00635
:1043F000CC2309F456C020910A0730910B07409155
:104400000C0750910D07C701B6010E94B43D87FF0C
:1044100014C020910A0730910B0740910C0750916E
:104420000D076091F5067091F6068091F706909160
:10443000F8060E943C3F87FF22C020910A07309176
:104440000B0740910C0750910D07C701B6010E9460
:10445000B43D811126C020910A0730910B0740918D
:104460000C0750910D076091F5067091F60680914A
:10447000F7069091F8060E943C3F181694F480913C
:10448000020790910307A0910407B0910507892BBB
:104490008A2B8B2B19F481E08093F10681E08093C5
:1044A000F00681E09091F006911180E08093F4068F
:1044B000C092F506D092F606E092F706F092F80662
:1044C000012B09F067C18091F9069091FA06892BBA
:1044D000D9F41092FF061092F006809111048823FF
:1044E00079F082E090E09093FA068093F9061092BA
:1044F00011042091FD063091FE0681E0232BE9F0A6
:1045000080E01BC081E00ACF109211048091FF0669
:10451000882349F01092F1061092FA061092F906DB
:104520001092FF06EDCF8091FD069091FE06892B3B
:10453000E1F08091F0061092F0062091F90630919A
:10454000FA062230310509F45EC088F421153105E0
:1045500009F448C02130310509F4F3C01092F10686
:104560001092F0061092FF0638C081E0E6CF2330AB
:10457000310509F4B1C02430310581F74091EC06D2
:104580005091ED066091EE067091EF0641155105D0
:104590006105710561F0415051096109710940934C
:1045A000EC065093ED066093EE067093EF06409193
:1045B000EC065091ED066091EE067091EF06452BEA
:1045C000462B472BD9F42091FB063091FC06213075
:1045D000310509F046C01092F1061092FA061092C9
:1045E000F9060CC080911104882341F082E090E02C
:1045F0009093FA068093F906109211041092EA063D
:104600008091F106CEC08823C9F380910207909172
:104610000307A0910407B0910507181619061A069A
:104620001B060CF07DC08091FD069091FE0601975F
:1046300009F076C08091020790910307A0910407CA
:10464000B09105078093EC069093ED06A093EE06DB
:10465000B093EF0683E090E09093FA068093F9061A
:10466000CDCF4091060750910707609108077091E0
:104670000907452B462B472BA9F01092F106809194
:10468000060790910707A0910807B091090780934A
:10469000EC069093ED06A093EE06B093EF0681E052
:1046A00090E0DACF882399F080911204909113045E
:1046B000A0911404B09115048093EC069093ED063C
:1046C000A093EE06B093EF0684E090E0C5CF109281
:1046D000F10682E090E0C0CF8091EC069091ED066B
:1046E000A091EE06B091EF060097A105B10559F033
:1046F0000197A109B1098093EC069093ED06A09370
:10470000EE06B093EF068091EC069091ED06A09135
:10471000EE06B091EF06892B8A2B8B2B09F06ECF1A
:104720008091120490911304A0911404B091150487
:10473000892B8A2B8B2B09F44ECF81E08093F106D5
:10474000B3CF4091EC065091ED066091EE0670916A
:10475000EF06411551056105710561F041505109A0
:10476000610971094093EC065093ED066093EE06E3
:104770007093EF064091EC065091ED066091EE06C5
:104780007091EF06452B462B472B09F037CF81114F
:10479000C7CF9FCF8091EA06882309F431CF80915B
:1047A000EB06CF911F910F91FF90EF90DF90CF908C
:1047B00008951092F5061092F6061092F7061092E0
:1047C000F8061092F4061092FA061092F90610926A
:1047D000F3061092F206109214071092130710922B
:1047E000F1061092F0061092EC061092ED0610926F
:1047F000EE061092EF061092EB061092EA06109267
:104800000F071092100710921107109212071092C2
:104810000E0710920A0710920B0710920C071092C5
:104820000D0788EE93E0A0E0B0E08093120490932F
:104830001304A0931404B093150410920607109269
:1048400007071092080710920907109202071092AA
:1048500003071092040710920507109201071092A7
:10486000000781E0809311041092FF061092FE066B
:104870001092FD061092FC061092FB0690E080E07C
:1048800008958091FD069091FE06892BE1F48091B8
:104890001104882351F08091FF06811106C081E048
:1048A0008093EB068093EA0608958091FF068823A3
:1048B00041F080911104811104C01092EB0681E057
:1048C000F1CF1092EA06089582E090E0FA01918318
:1048D00080838FEF9FEF0895CF93DF93EA010097D6
:1048E00011F00E9462361982188290E080E0DF9118
:1048F000CF910895DB01009719F48FEF8C93089501
:104900002EEF2C93FC017096E031F10508F037C0D2
:104910008827E257FB4D8F4F0C94F349BD24BB24ED
:10492000B924B724B524B324AF24B124AD24AB24D7
:10493000A924A624A2249E24A424BF2480E31196A3
:104940008C93089589E2FBCF82E2F9CF11961C92F5
:10495000089583E2F4CF81E2F2CF81E1F0CF87E2E4
:10496000EECF8AE2ECCF80E1EACF84E2E8CF88E2C2
:10497000E6CF86E2E4CF81E3E2CF83E3E0CF80E2DB
:10498000DECF80912107909122070895909322070E
:104990008093210708958091200708959091200722
:1049A000892B809320070895982F90958091200758
:1049B000892380932007089580911F07089580918F
:1049C0001D0790911E0708956115710559F0FB01AF
:1049D00030E020E070E060E02417350719F0611541
:1049E000710511F0CB010895A081B181A817B90715
:1049F00009F4BF012F5F3F4F3696EECF809123071A
:104A000081111CC060D266D290931607809315075F
:104A10000E94062F0E94182F90931A07809319075F
:104A20000E9495330E949C33909318078093170738
:104A300081E08093230790E080E0089584EF9FEF6A
:104A400008958F929F92AF92BF92CF92DF92EF9292
:104A5000FF920F931F93CF93DF9300D000D000D02D
:104A60001F92CDB7DEB71A86198618861F821E825E
:104A70001D821C821B821A8219828091230707EFF4
:104A80001FEF882309F49CC08E010D5F1F4F9E010C
:104A90002B5F3F4FAE01495F5F4FBE01675F7F4FA6
:104AA00090E080E00E9419358C01009721F0059676
:104AB000029708F0DBC029853A852115310509F4F4
:104AC00002C1ED80FE804B815C81B701640F751FD0
:104AD0008F8198858617970708F4F5C0E20EF31EBC
:104AE000D7019C91903C09F07FC04230510508F4F9
:104AF0007BC011968C914091210750912207452B44
:104B000009F49CC0913F08F071C02CE1290F2D30B1
:104B100008F48BC02DE2290F203108F489C0903CA5
:104B200021F48150823008F483C088E3890F8B30F0
:104B300008F481C09AE7C92E94E2D92EE4E6F4E2A3
:104B40006D817E81AE014F5F5F4F89859A85199592
:104B50005C01C114D104A1F189809A80811491046F
:104B600079F18B819C818815990508F487C010E044
:104B700000E04B815C8170E060E0C7010E94934AD5
:104B800001151105E9F449815A8169857A858D817C
:104B90009E81680F791FC501F6011995E980FA8099
:104BA0000D811E812F81388549855A856FEF7FEFF2
:104BB00081E090E00E94B4348C01892B09F056C04A
:104BC000C8012A960FB6F894DEBF0FBECDBFDF91A5
:104BD000CF911F910F91FF90EF90DF90CF90BF90FA
:104BE000AF909F908F90089580E085CF30E020E0D7
:104BF000220F331FF901EB5EF84F0190F081E02D99
:104C0000309709F497CF892F90E01995009709F410
:104C100091CFDC011296ED91FC9113971496CD90F3
:104C2000DC90309709F08CCF1FC021E030E0E0CF5E
:104C300022E030E0DDCF23E030E0DACFD12CC12C10
:104C4000ECE6F4E29F3F09F07BCFE0911507F0918D
:104C50001607309721F4C90104EF1FEF0CC08FEF46
:104C600090E019950097A9F604EF1FEF89859A85C2
:104C7000009709F4A5CF0E946236A2CF0E94E335C7
:104C80008C0189859A850E94623670E060E0C401DB
:104C90000E947C3598878F830E94B1349E838D83D8
:104CA0006F8178856115710559F0C8010E948537BB
:104CB0009A87898706EF1FEF892B09F058CF59CFC4
:104CC00008EF1FEF56CF08EF1FEFD0CF209123073B
:104CD000222319F020E00C941D2F87EF9FEF0895F9
:104CE000809121079091220708950E94A1330E948C
:104CF000FB32F5D0E5E1F7E088E0DF011D928A950F
:104D0000E9F71092230790E080E008950C94593160
:104D100021E040E050E0BA010C941D2F86E090E0C5
:104D2000FA019183808390E080E0089547E050E0AD
:104D300063E674E049CEDF92EF92FF920F931F93E8
:104D4000CF93DF938A01EC01C60FD71FE0902707AE
:104D5000F0902807D9800E94CB35D816190678F034
:104D600082E090E0F801918380838EEF9FEFDF91E6
:104D7000CF911F910F91FF90EF90DF900895EF2852
:104D800041F482E090E0F8019183808384EF9FEF0B
:104D9000EECF89818093260790E00196F8019183F8
:104DA000808390E080E0E3CFCF93DF93EA010E941D
:104DB0000A32882321F00E94D8350E940B3282E00B
:104DC00090E0998388838BEF9FEFDF91CF910895D7
:104DD000CF93DF93EB0186E0FB0111928A95E9F70F
:104DE0008FEF8883D8DD8983E7DD8A83E8DD9D83C3
:104DF0008C83DF91CF910895CF93DF93EA010E94D6
:104E00000D32811109C082E090E09983888385EF9B
:104E10009FEFDF91CF91089590E080E0B7DD81E0D2
:104E200090E09983888390E080E0F3CF0F931F9305
:104E3000CF93DF93EA018C01060F171F0E940D32FA
:104E400081110BC082E090E09983888385EF9FEF0A
:104E5000DF91CF911F910F910895F80181818230E8
:104E600038F082E090E0998388838EEF9FEFF0CF57
:104E700081E090E08BDD88E090E09983888390E08A
:104E800080E0E6CFCF93DF930097D1F4EB01FB01F5
:104E9000329686E0DF011D928A95E9F78FEF8883CD
:104EA00085E089831A820E94CB358B830E94CA35A4
:104EB0009D838C8381E08E838F83DF91CF910895D2
:104EC000DF91CF9117CD86E996E2909325078093E5
:104ED0002407089580912407909125070895109242
:104EE000250710922407089580912707909128079D
:104EF0000895411105C0611571058105910561F0A5
:104F000060932707709328078093290790932A07B7
:104F100040932B0781E0089580E00895FF920F935E
:104F20001F93CF93DF938A01EC01C60FD71FF9803F
:104F30000E94CB35F816190668F082E090E0F8017F
:104F4000918380838EEF9FEFDF91CF911F910F911F
:104F5000FF9008956C817D818E819F814B81C9DF97
:104F6000811108C082E090E0F8019183808384EF92
:104F70009FEFEACF89818093260790E00196F801A0
:104F80009183808390E080E0DFCFCF93DF93EA01CD
:104F9000FC01E60FF71F648175818681978143814B
:104FA000A8DF811109C082E090E09983888384EFB3
:104FB0009FEFDF91CF91089581E090E099838883FE
:104FC00090E080E0F6CFE7E2F7E040815181628136
:104FD0007381480F511D611D711D40835183628390
:104FE00073830895CF93C09126074C2F50E06091B2
:104FF00027077091280701960E948A4A8C2FE3DFC9
:1050000010922607CF910895009799F48091270771
:10501000909128072FEFFB012083892B59F02091D5
:10502000260730E02F5F3F4F2417350719F4CB01D7
:10503000D9CF60CC0895009799F48091270790917B
:1050400028072FEFFB012083892B59F02091260799
:1050500030E02F5F3F4F2417350719F4CB01C2CF43
:1050600049CC089523E1AC01249FC001259F900DF8
:105070001124E0913007F0913107E80FF91F2381E7
:1050800034812250310981E02230310508F080E07E
:1050900008950F931F93CF93DF93009132071091E0
:1050A0003307D0E0C0E080E00C171D0749F491E021
:1050B000811190E0892FDF91CF911F910F91089579
:1050C0008111F5CFCE01CEDF2196EECFA091300732
:1050D000B0913107109729F12091320730913307B1
:1050E00082179307F0F453E1589F9001599F300DB8
:1050F0001124A20FB31FED91FC911197309789F005
:1051000012968C91681768F48DE0689FE00DF11D90
:10511000112480819181892B21F081E092814917AE
:1051200008F080E008959C0143E1429FC001439F45
:10513000900D1124E0913007F0913107E80FF91F2D
:105140008385823091F481E090E0658176814091A1
:105150001604509117046417750711F490E080E06D
:10516000892B19F081E0232B09F080E00895FC01E0
:10517000A081B1818DE0689FA00DB11D112413960F
:105180004D915C9185859685489F9001499F300D92
:10519000589F300D1124C9010196611103C0478148
:1051A00044FD04960895EF92FF920F931F93CF93BF
:1051B000DF93EA01FC01E60FF71F02811381E4800F
:1051C000F5804F2D6E2DC80181DF81110DC082E069
:1051D00090E0998388838EEF9FEFDF91CF911F91AD
:1051E0000F91FF90EF900895C8013CDF882339F0BC
:1051F00082E090E09983888388EF9FEFEECF109351
:105200001D0400931C04E0921E04F0921F0481E030
:1052100090E09983888390E080E0DFCFCF92DF92A7
:10522000EF92FF920F931F93CF93DF937A01EC01DC
:10523000C60FD71FC0901C04D0901D0400911E04FF
:1052400010911F04412F602FC60140DF811110C053
:1052500082E090E0F701918380838AEF9FEFDF91F6
:10526000CF911F910F91FF90EF90DF90CF90089515
:10527000C601F8DE882341F082E090E0F7019183D7
:10528000808388EF9FEFEBCF4C815D816E817F81C2
:105290009A8189818F3F41F082E090E0F70191830C
:1052A00080838EEF9FEFDBCFE3E1EC9D9001ED9DDE
:1052B000300D1124E0913007F0913107E20FF31F18
:1052C0000190F081E02D2DE0029FE00DF11D1124F1
:1052D0000190F081E02D27E0129FE00DF11D1124D7
:1052E000808391838B818283438354836583768318
:1052F0001F5F10931F0481E090E0F701918380838A
:1053000090E080E0ACCFEF92FF920F931F93CF938A
:10531000DF937A018C01060F171FC0913007D091DF
:105320003107209781F021E030E0F80182819381FC
:1053300040913207509133078417950710F030E001
:1053400020E0232B71F482E090E0F70191838083C9
:105350008EEF9FEFDF91CF911F910F91FF90EF9014
:10536000089543E1489F9001499F300D1124C20FD9
:10537000D31F78DE882341F082E090E0F70191832B
:10538000808388EF9FEFE6CFF801248135812038B4
:105390003105C8F687818111D6CF4181842F90E0F5
:1053A0008F7E009741F082E090E0F7019183808347
:1053B00086EF9FEFCFCF4F833E832D8326812887B3
:1053C0001986223010F421E0288721E030E0F7012F
:1053D00031832083BFCF88E090E0FA0191838083FE
:1053E00090E080E00895FB018FEF808381E181836D
:1053F0008FEF9FEF9383828380E890E0958384838F
:10540000168217820895FB018FEF808391E09183CC
:1054100082839383848384E3858381E090E0978310
:105420008683089582E090E0FA019183808380EF83
:105430009FEF0895DF92EF92FF920F931F93CF9308
:10544000DF93EA01FC01E60FF71F8181813071F0E3
:1054500082E090E0998388838FEF9FEFDF91CF9177
:105460001F910F91FF90EF90DF90089582819381BB
:10547000D4802581E680F7800091300710913107B4
:105480000115110539F482E090E0998388838CEF4F
:105490009FEFE4CF4091320750913307841795076F
:1054A00038F082E090E0998388838EEF9FEFD6CF2B
:1054B000892B39F082E090E09983888386EF9FEF13
:1054C000CDCF8D2D8D7FB1F72130A1F781E0D110A7
:1054D00006C091E0E916F10431F080E004C0E2E09A
:1054E000EE16F104D0F3882329F390E080E0BADDD2
:1054F000882339F082E090E09983888388EF9FEFDA
:10550000ADCFF801D38681E08487F686E586108AE0
:10551000178681E090E09983888390E080E09ECFB9
:105520004DE050E06DE874E04FCA8F929F92BF92B9
:10553000CF92DF92EF92FF920F931F93CF93DF935F
:10554000EA01FC01E60FF71F828193810481B58097
:10555000E0913007F0913107309791F482E090E0CC
:10556000998388838CEF9FEFDF91CF911F910F91EB
:10557000FF90EF90DF90CF90BF909F908F90089515
:1055800020913207309133078217930738F082E079
:1055900090E0998388838EEF9FEFE6CF23E1289FE9
:1055A0006001299FD00C1124EC0DFD1DE080F180DD
:1055B000E114F10499F28281081748F78DE0089F01
:1055C00080011124E00EF11EF70180819181892B69
:1055D00029F6BB20E1F2F7E0BF9E40011124C4018F
:1055E0000E945F36F70191838083E0913007F0914C
:1055F0003107EC0DFD1D0190F081E02DE00FF11F52
:1056000080819181009739F482E090E099838883CA
:105610008DEF9FEFA9CFA40170E060E00E94934A54
:105620008091300790913107C80ED91EF601808114
:105630009181080F191FF801B28281E090E09983EF
:10564000888390E080E090CFAF92BF92CF92DF92BC
:10565000FF920F931F93CF93DF93EA01FC01E60FB4
:10566000F71F82819381F4800091300710913107F8
:105670000115110581F482E090E0998388838CEF15
:105680009FEFDF91CF911F910F91FF90DF90CF900F
:10569000BF90AF9008952091320730913307821761
:1056A000930738F082E090E0998388838EEF9FEF34
:1056B000E8CF2FEF2F0D2C3FA8F723E1289F6001A3
:1056C000299FD00C11240C0D1D1DF80180819181A2
:1056D000892B89F6FDE0FF9E50011124C5010E942F
:1056E0005F36F80191838083E0913007F0913107B4
:1056F000EC0DFD1D80819181009739F482E090E0EE
:10570000998388838DEF9FEFBCCFA50170E060E0A7
:105710000E94934AE0913007F0913107EC0DFD1D96
:10572000F28281E090E09983888390E080E0A9CFC5
:10573000CF92DF92EF92FF920F931F93CF93DF935D
:10574000860F971FFC010281138180913007909191
:105750003107892B81F082E090E0FA019183808308
:105760008CEF9FEFDF91CF911F910F91FF90EF9002
:10577000DF90CF900895C801B0E0A0E00197A109A3
:10578000B1098F3F9F4FA105B10540F082E090E045
:10579000FA01918380838EEF9FEFE4CF7A0183E15A
:1057A000809F6001819FD00C1124C6010E945F364A
:1057B000EC01009741F482E090E0F701918380834F
:1057C0008DEF9FEFCFCFA60170E060E00E94934A7B
:1057D000D0933107C09330071093330700933207FB
:1057E00090E080E02FEF3FEF41E061E070E0801754
:1057F000910741F481E090E0F7019183808390E08C
:1058000080E0B0CF3A8B298B1B864C877E876D87D3
:10581000188A1F8601966396EACFEF92FF921F9334
:10582000CF93DF93EC0110E0F12CE12C6A81161785
:10583000B0F083E0689FB0011124AE014F5E5F4F6E
:10584000C7010E948C36009721F02FEF3FEF3A8B73
:10585000298BDF91CF911F91FF90EF900895612FD9
:10586000CE0185DC61E070E00E947C35E816F90627
:1058700008F47C011F5FDACFF89420912E07309155
:105880002F0781E02115310509F080E0232B09F075
:10589000789408952F923F924F925F926F927F92E9
:1058A0008F929F92AF92BF92CF92DF92EF92FF9230
:1058B0000F931F93CF93DF933C01660E771EF30186
:1058C000828193814C01B12CA12CC0913007D091E1
:1058D0003107209769F021E030E060913207709144
:1058E00033078617970710F030E020E0232BD1F420
:1058F00082E090E0FA01918380838EEF9FEFDF9149
:10590000CF911F910F91FF90EF90DF90CF90BF90BC
:10591000AF909F908F907F906F905F904F903F904F
:105920002F9008958092200490922104A092220446
:10593000B092230463E1689F9001699F300D1124A8
:10594000C20FD31FF3018181833040F082E090E0E9
:10595000FA019183808386EF9FEFD1CF2A012B81BB
:105960003C81232BF1F4288139819F8191FF2EC046
:10597000232B09F46FC0209135079A81422F490FDC
:105980005527551FBA0141E050E06138710514F008
:1059900050E040E0452B09F45DC02A87920F9093B8
:1059A00035078150823008F481C066DF882309F40E
:1059B000D8C0F3018181813009F48DC008F47BC027
:1059C000823009F4C6C090E080E0ADC0232B09F41A
:1059D00041C0209134079A81E22FE90FFF27FF1F72
:1059E00041E050E0ED3FF10514F050E040E0452B80
:1059F00089F12A87920F90933407D3CFA081B18188
:105A0000A20FB31F11966C91060F111D0196295F0D
:105A10003F4F8417950794F38D859E85089F10014D
:105A2000099F300C189F300C1124C114D104D1F4FB
:105A30008F8184FF17C00E94CA35F5E02F0E311CFC
:105A400021E08215930508F420E0A701435F5F4F32
:105A500021110EC082E090E0F2019183808387EFF4
:105A60009FEF4DCF0E94CA352FEF221A320AE8CF9E
:105A700088819981E80EF91EF70114830383FFEFF3
:105A8000CF1ADF0A7A018A818C151D0409F00CF403
:105A90008CCFE881F981EE0DFF1D428150E030E0AE
:105AA00020E010E000E090E080E0B3CFF12CE12CAA
:105AB000D12CC12CE8CF81E090E09C838B83E9DA84
:105AC000882309F480CF81E090E00E94C62480E41E
:105AD0000E94D42478CF89899A89019661F083E065
