:1000000020C100000C948E390C94B9390C94E43959
:100010000C940F3A0C943A3A0C94653A0C94903A3A
:100020000C94BB3A0C94E3090C94860A0C94C20A13
:1000300039C1000037C1000035C1000033C10000E4
:1000400031C100002FC100002DC100002BC10000F4
:1000500029C1000027C1000025C100000C94E63A28
:1000600021C100000C94C63E0C94FC3E1BC1000054
:1000700019C1000017C1000015C1000013C1000024
:1000800011C100000FC100000DC100000BC1000034
:100090000C94523F0C94883F05C10000E1C400005D
:1000A00001C10000FFC00000FDC00000FBC0000057
:1000B000F9C00000F7C00000F5C00000F3C0000068
:1000C000F1C00000EFC000000C94CF330C94DE3F71
:1000D0000C941440E7C000000C946A400C94A040BB
:1000E000E1C00000084AD73B3BCE016E84BCBFFD97
:1000F000C12F3D6C74319ABD56833DDA3D00C77FF8
:1001000011BED9E4BB4C3E916BAAAABE0000008090
:100110003F05A84CCDB2D44EB93836A9020C50B91F
:10012000918688083CA6AAAA2ABE000000803F004B
:1001300000000A0B02090C0D0E0807030401000061
:1001400000000000000000000000000000000000AF
:10015000000000000000000000000000121110006C
:10016000000000000000000000000000000000008F
:1001700000000000000001021020200808102040AC
:10018000102040800201020108040201010204085B
:1001900010204080804020100804020180040201E9
:1001A0008040201008040201080402010102040832
:1001B000102040800102040810204080050505053C
:1001C000070508080808020202020A0A08080404CF
:1001D00004040101010101010101030303030303FD
:1001E0000303040707070C0C0C0C0C0C0C0C02028C
:1001F000020206060606060606060B0B0B0B0B0B89
:100200000B0B00002200250028002B002E003100DF
:10021000340002010000050108010B01000021006B
:10022000240027002A002D003000330001010000C7
:10023000040107010A019E02CF08253FB13F3D405E
:10024000C94011241FBECFEFD1E2DEBFCDBF00E019
:100250000CBF13E0A0E0B2E0EAE1F3E800E00BBF7E
:1002600002C007900D92A436B107D9F72AE0A4E6A0
:10027000B3E001C01D92AE35B207E1F711E0C1E273
:10028000D1E000E006C021970109802FFE010E9405
:100290005A41CB31D10780E00807A9F70E94D73433
:1002A0000C948B41ADCE90E080E00895809198034E
:1002B00090919903891B990B0895909199038091CE
:1002C00098032FEF3FEF981748F4E92FF0E0E65638
:1002D000FC4F208130E09F5F90939903C9010895FE
:1002E000E091990380919803E81730F4F0E0E65626
:1002F000FC4F808190E008958FEF9FEF089508955F
:10030000CF93DF93EC01E0917003F091710330978C
:10031000F1F090919903809198039817C0F090E0C4
:10032000292F30E02617370754F4DE01A20FB31F40
:100330004C9126563C4FD9014C939F5FF1CF1092C0
:10034000990360939803CB01DF91CF911994DF91CA
:10035000CF910895E0917203F0917303309729F0E3
:10036000109276031092750319940895CF93DF933A
:100370001F92CDB7DEB76983209174032223F9F071
:1003800020917503203258F021E030E0FC013383E6
:10039000228390E080E00F90DF91CF9108958091CB
:1003A0007603E82FF0E0E958FC4F998190838F5F46
:1003B000809376038093750381E090E0ECCF61E059
:1003C000CE010196F7D0F8CFCF92DF92EF92FF9255
:1003D0000F931F93CF93DF937C01CB018A01209170
:1003E0007403222389F0EB016B01C40ED51ECC15DA
:1003F000DD0561F06991D701ED91FC910190F081EB
:10040000E02DC7011995F3CF642FD4D0C801DF9137
:10041000CF911F910F91FF90EF90DF90CF900895B3
:10042000109299031092980310927603109275031C
:1004300096D08AEA91E0EAD080E891E0E2C081E0DB
:100440008093740360939703109276031092750360
:1004500008950F93062F21E04091750367E773E03D
:1004600080919703D5D11092760310927503109264
:1004700074030F9108954F925F926F927F92AF92A3
:10048000BF92CF92EF92FF920F931F93CF93DF9380
:100490005C01F62ED42F28013901EE2009F1CFDFBF
:1004A000CE2DC43008F0C3E0C150B8F028E0C29FA0
:1004B000C0011124A301920104C0569547953795B8
:1004C00027958A95D2F7B901D501ED91FC9101905C
:1004D000F081E02DC5011995E7CF60E0C501B9DFD6
:1004E0004D2FD13208F040E22C2D6AE973E08F2DB8
:1004F000ACD01092990380939803DF91CF911F9114
:100500000F91FF90EF90CF90BF90AF907F906F9042
:100510005F904F900895CF92EF920F931F93C22E4A
:10052000E12C00E010E09801A6DF1F910F91EF9001
:10053000CF90089521E0EFCF61E08BCFE4E6F3E0C8
:100540001382128288EE93E0A0E0B0E0848395836A
:10055000A683B78389EA92E09183808308951092FD
:100560002D0481E080932B0410922A0461E084E141
:100570000E946F3D61E085E10E946F3DE9EBF0E094
:1005800080818E7F808380818D7F808388E48093CB
:10059000B80085E48093BC000895ECEBF0E0808126
:1005A0008A7B808360E084E10E946F3D60E085E1AA
:1005B0000C946F3D2091DC03260F3327331F21322B
:1005C0003105ECF420912D04FC0190E080E0243012
:1005D00069F082E00895A091DC032191AC014252C0
:1005E0005C4FA40FB52FB11D2C930196861798F37D
:1005F0008091DC03680F6093DC0380E0089581E064
:1006000008959093210480932004089590932304E7
:1006100080932204089585EC8093BC0010922D04F1
:100620000895CF93DF9391E090932504882351F0B0
:10063000C091B800D091BA00B0DF91DFD093BA007A
:10064000C093B800DF91CF9108954F925F926F925F
:100650007F928F929F92AF92BF92CF92DF92EF9252
:10066000FF920F931F93CF93DF93D82F162F072F4F
:10067000C42FB22E413208F0A2C00E943C3B6B0155
:100680007C0180912D04811176C081E080932D043E
:10069000B0922B049FEF9093BA031092FF039C0F2C
:1006A0009093FE0380932C0480912C04DD0FD82BB3
:1006B000D0932C0480912A04813009F082C01092DA
:1006C0002A040E943C3B6B017C0180912C048093A6
:1006D000BB008091260490912704A0912804B0913A
:1006E0002904892B8A2B8B2BA1F00E943C3B809004
:1006F000260490902704A0902804B09029046C1937
:100700007D098E099F0986169706A806B90608F482
:1007100053C08091BC0083FDD8CF85EC8093BC0092
:100720000E943C3B6B017C0180912D04813009F4D7
:100730004AC08091FF038C1710F4C091FF03A0E022
:10074000B4E0912FE12FF02F8E2F891B8C1708F426
:100750005CC08C2FDF91CF911F910F91FF90EF9094
:10076000DF90CF90BF90AF909F908F907F906F90D1
:100770005F904F9008958091260490912704A09156
:100780002804B0912904892B8A2B8B2B09F479CF6B
:100790000E943C3B4090260450902704609028041F
:1007A000709029046C197D098E099F094616570619
:1007B0006806790608F065CF8091240432DFC0E036
:1007C000C8CF85EEABCF8091260490912704A091ED
:1007D0002804B0912904892B8A2B8B2B09F4A4CFF0
:1007E0000E943C3B8090260490902704A09028040F
:1007F000B09029046C197D098E099F098616970609
:10080000A806B90608F090CFD7CF8D9181939CCFE1
:100810004F925F926F927F928F929F92AF92BF9210
:10082000EF92FF920F931F93CF93DF93413208F023
:10083000D8C0F22ED42FE72E162FC82F0E943C3B93
:100840004B015C0180912D04811170C082E0809386
:100850002D0400932B048FEF8093BA031092FF03B3
:10086000D093FE03912FA0E0B4E0E12FFE2D8E2F58
:10087000891B8D1708F48EC010922C0480912C04D3
:10088000CC0FC82BC0932C0480912A04813009F02E
:1008900084C010922A040E943C3B4B015C01809171
:1008A0002C048093BB008091260490912704A09192
:1008B0002804B0912904892B8A2B8B2BA1F00E944C
:1008C0003C3B00912604109127042091280430918C
:1008D0002904681979098A099B0906171707280747
:1008E000390708F444C08091BC0083FDD8CF85EC63
:1008F0008093BC000E943C3B4B015C01FF2029F02F
:1009000080912D04823009F44AC08091BA038F3F50
:1009100009F469C08091BA03803209F466C08091FD
:10092000BA03803309F463C084E025C080912604B3
:1009300090912704A0912804B0912904892B8A2B37
:100940008B2B09F47FCF0E943C3B409026045090B3
:1009500027046090280470902904681979098A098D
:100960009B09461657066806790608F06BCF8091FA
:10097000240457DE85E0DF91CF911F910F91FF9006
:10098000EF90BF90AF909F908F907F906F905F900F
:100990004F90089581918D936ACF85EEA9CF809174
:1009A000260490912704A0912804B0912904892B52
:1009B0008A2B8B2B09F4A2CF0E943C3B009126048A
:1009C000109127042091280430912904681979098D
:1009D0008A099B09061717072807390708F08ECFE1
:1009E000C6CF81E0C8CF80E0C6CF82E0C4CF83E02D
:1009F000C2CF85ED8093BC0080912604909127049E
:100A0000A0912804B09129040796A11DB11D23E0EF
:100A1000B695A795979587952A95D1F72091BC0013
:100A200024FD03C010922D04089540912604509196
:100A300027046091280470912904452B462B472BED
:100A400069F30097A105B10541F025E32A95F1F777
:100A500000000197A109B109E1CF80912404E1CD03
:100A60001F920F920FB60F9211240BB60F922F9375
:100A70003F934F935F936F937F938F939F93AF9326
:100A8000BF93EF93FF938091B900887F803609F47C
:100A90004CC008F03FC0883209F4A8C028F5803166
:100AA00009F49CC0C8F4882309F4F8C0883009F41C
:100AB00095C0FF91EF91BF91AF919F918F917F91E1
:100AC0006F915F914F913F912F910F900BBE0F90BF
:100AD0000FBE0F901F901895883109F487C080329F
:100AE00041F78093BA0314C0803409F49CC040F4E9
:100AF0008033B9F38833E9F68093BA038CDDD9CF1C
:100B0000803509F484C0883509F495C0883489F6A5
:100B100070DFCFCF883909F48CC038F5883729F0D9
:100B200050F4883611F0803721F683E080932D044D
:100B30001092BB0357C0883809F47BC0803919F084
:100B4000803809F0B6CF8091BB03803208F071C0C5
:100B5000E091BB0381E08E0F8093BB038091BB00CB
:100B6000F0E0E454FC4F80833DC0803B39F0E0F47A
:100B7000803A09F479C0883A09F09BCF84E08093E9
:100B80002D041092DD031092DC03E0912204F09119
:100B9000230419958091DC0381110FC081E08093BB
:100BA000DC031092DE0309C0803C09F475C0883C68
:100BB00009F472C0883B09F07CCFE091DD0381E04D
:100BC0008E0F8093DD03F0E0E252FC4F8081809332
:100BD000BB009091DD038091DC0329C080912C043F
:100BE0008093BB0085EC8093BC0063CF9091FF03A2
:100BF0008091FE03981758F5E091FF0381E08E0F76
:100C00008093FF03F0E0E050FC4F8081E9CFE0915A
:100C1000FF0381E08E0F8093FF038091BB00F0E023
:100C2000E050FC4F80839091FF038091FE03981762
:100C3000C8F285E8D8CFE091FF0381E08E0F809362
:100C4000FF038091BB00F0E0E050FC4F8083809177
:100C50002B0481115DCF81E080932A0484EA809384
:100C6000BC0010922D0425CFD6DC8091BB038032CE
:100C700030F4E091BB03F0E0E454FC4F108260914B
:100C8000BB0370E0E0912004F09121048CEB93E031
:100C900019951092BB030DCF85ECE1CF1092BA03EA
:100CA00037CFFF920F931F93CF93DF93C62F042F5D
:100CB000F22E132F682F84E693E0C1DB6C2F84E6BD
:100CC00093E054DBCF2DD12F0C0F1D2F111DC0171A
:100CD000D10729F0699184E693E048DBF8CF84E6F8
:100CE00093E02ADC91E0811190E0892FDF91CF9190
:100CF0001F910F91FF900895CF93DF931F92CDB76F
:100D0000DEB749839E012F5F3F4F41E0CADF0F905E
:100D1000DF91CF9108952F923F924F925F926F9201
:100D20007F928F929F92AF92BF92CF92DF92EF927B
:100D3000FF920F931F93CF93DF9300D0CDB7DEB711
:100D4000E82E69834B8369010E94303B4B015C01B3
:100D5000F12C1A822B81222E312C2801712C612C2E
:100D60008B81F81608F044C06E2D84E693E067DBB3
:100D7000698184E693E0FADA84E693E0DDDB6E2DA8
:100D800084E693E05CDBA1014F1951094132510522
:100D900014F040E250E06E2D84E693E0CBDB84E675
:100DA00093E084DA892BD9F00115110569F484E602
:100DB00093E083DAF6019A81E90FF11D97FDFA9528
:100DC00080839F5F9A83EBCF0E94303B681979093B
:100DD0008A099B09641575058605970540F384E625
:100DE00093E0AADB8B81813208F080E2F80EB8CF65
:100DF00001151105C1F00E94303B681979098A0973
:100E00009B0930E020E0601771078207930758F0D4
:100E10002A81822F220F990B2B812817190619F08E
:100E200014F08FEF8A838A810F900F900F90DF91DB
:100E3000CF911F910F91FF90EF90DF90CF90BF90D7
:100E4000AF909F908F907F906F905F904F903F906A
:100E50002F9008950F931F9389019A0141E05BDF62
:100E60001F910F910895EF92FF920F931F93CF93CD
:100E7000DF931F92CDB7DEB7182F062FE42EF22E88
:100E80002091000230910102AE014F5F5F4FE2DF1F
:100E900081E090E001C0880FEA94EAF74981FF20E1
:100EA00069F0482B4983602F812F26DF0F90DF9157
:100EB000CF911F910F91FF90EF9008958095482357
:100EC000F1CFDF92EF92FF920F931F93CF93DF93B7
:100ED0001F92CDB7DEB7F82EE62E142FD22E20911A
:100EE000000230910102AE014F5F5F4FB3DF8823F4
:100EF00051F1812F8D19990BAC014F5F5F4F81E04C
:100F000090E002C0880F991FDA94E2F70197042E4F
:100F100001C0880F0A94EAF701C0000F4A95EAF76A
:100F2000482F4095998149238023482B49836E2D72
:100F30008F2DE2DE0F90DF91CF911F910F91FF90E7
:100F4000EF90DF90089580E0F5CF28E6FC01208344
:100F500008950F93062F23E042E06AE1FC018081AF
:100F6000B0DF0F9108950F93062F22E044E06BE16C
:100F7000FC018081A6DF0F9108950F93062F22E0D8
:100F800044E06CE1FC0180819CDF0F9108950F9398
:100F90001F93CF93DF93EC010091000210910102A7
:100FA0009C012F5F3F4F42E06BE38881B4DE898173
:100FB0009A81982789279827DF91CF911F910F91C8
:100FC00008950F931F93CF93DF93EC0100910002DC
:100FD000109101029C012F5F3F4F42E06DE3888139
:100FE0009ADE89819A81982789279827DF91CF9166
:100FF0001F910F9108950F931F93CF93DF93EC01EF
:1010000000910002109101029C012F5F3F4F42E0CE
:101010006FE3888180DE89819A81982789279827C4
:10102000DF91CF911F910F9108950F931F93CF934D
:10103000DF93EC0100910002109101029C012F5FEF
:101040003F4F42E063E4888166DE89819A81982778
:1010500089279827DF91CF911F910F9108950F93C2
:101060001F93CF93DF93EC010091000210910102D6
:101070009C012F5F3F4F42E065E488814CDE89810F
:101080009A81982789279827DF91CF911F910F91F7
:1010900008950F931F93CF93DF93EC01009100020B
:1010A000109101029C012F5F3F4F42E067E488816D
:1010B00032DE89819A81982789279827DF91CF91FD
:1010C0001F910F910895262F46E06BE6FC01808169
:1010D000CACE0F93062F23E042E06BE6FC0180812D
:1010E000F0DE0F910895CF93DF93EC0161E0F1DF23
:1010F00060E0CE0138DF60E0CE013FDF60E0CE018E
:10110000DF91CF91E0CF84E693E08AD98EE294E03C
:10111000EADF20E045E06AE688E6A5DE21E041E07E
:1011200067E388E6A0DE20E046E06BE688E69BCE3B
:10113000CF93DF93EC018EE294E029DF99838883DB
:101140008EE294E03EDF9B838A838EE294E053DF5D
:101150009D838C83DF91CF910895CF93C82F84E630
:1011600093E05ED96C2F8EE294E0F3DE8EE294E0A1
:10117000CF91B9CFCF93DF93EC018EE294E055DFAE
:10118000998388838EE294E06ADF9B838A838EE270
:1011900094E07FDF9D838C83DF91CF9108958EE271
:1011A00094E0D3CE611102C00C94333D6130E1F381
:1011B00062E0FACF662319F061E00C946F3D60E0C5
:1011C000FCCF9CB1892F807294FF16C0811116C08C
:1011D0008091410490914204A0914304B091440451
:1011E0000196A11DB11D8093410490934204A093E8
:1011F0004304B093440408958111EACF80914104DF
:1012000090914204A0914304B09144040197A10934
:10121000B109E9CF99B1892F847093FF16C0882353
:10122000B1F080914F0490915004A0915104B0917D
:1012300052040196A11DB11D80934F049093500458
:10124000A0935104B09352040895882351F38091E0
:101250004F0490915004A0915104B0915204019711
:10126000A109B109E9CF8CB190E09C01220F232F95
:10127000221F330B86FF16C080915D0490915E049F
:10128000A0915F04B0916004232BB9F40196A11DD5
:10129000B11D80935D0490935E04A0935F04B093AE
:1012A0006004089580915D0490915E04A0915F04B4
:1012B000B09160042130310549F30197A109B109CA
:1012C000E8CF9CB1892F807195FF16C08823B1F0BB
:1012D0008091410490914204A0914304B091440450
:1012E0000196A11DB11D8093410490934204A093E7
:1012F0004304B09344040895882351F3809141043A
:1013000090914204A0914304B09144040197A10933
:10131000B109E9CF99B1892F887092FF16C0811168
:1013200016C080914F0490915004A0915104B09147
:1013300052040196A11DB11D80934F049093500457
:10134000A0935104B093520408958111EACF809183
:101350004F0490915004A0915104B0915204019710
:10136000A109B109E9CF8CB190E086FB222720F9D1
:1013700030E0880F892F881F990B0197B1F4809175
:101380005D0490915E04A0915F04B0916004232BF2
:10139000B1F00196A11DB11D80935D0490935E0490
:1013A000A0935F04B0936004089580915D049091D0
:1013B0005E04A0915F04B0916004232B51F3019768
:1013C000A109B109E9CF1F920F920FB60F92112414
:1013D0002F933F934F935F938F939F93AF93BF93BD
:1013E00083B121E030E0982F907285FD02C030E09B
:1013F00020E0807440918104509182044217530789
:1014000009F062C021E030E0811102C030E020E04C
:101410003093800420937F04882309F1911121C027
:101420008091790490917A04A0917B04B0917C041E
:101430000196A11DB11D8093790490937A04A09325
:101440007B04B0937C048091790490917A04A091FC
:101450007B04B0917C040196A11DB11D20C09111A7
:10146000DFCF8091790490917A04A0917B04B091B0
:101470007C040197A109B1098093790490937A04BF
:10148000A0937B04B0937C048091790490917A04BA
:10149000A0917B04B0917C040197A109B1098093CC
:1014A000790490937A04A0937B04B0937C04BF9159
:1014B000AF919F918F915F914F913F912F910F909D
:1014C0000FBE0F901F9018953093820420938104D3
:1014D000992371F0882371F08091790490917A04B6
:1014E000A0917B04B0917C040196A11DB11DC4CFD5
:1014F000882391F38091790490917A04A0917B04E0
:10150000B0917C040197A109B10995CF1F920F9268
:101510000FB60F9211248F939F93AF93BF93809137
:10152000060181709091030190FF1EC081111EC0C1
:1015300080916B0490916C04A0916D04B0916E0445
:101540000196A11DB11D80936B0490936C04A09330
:101550006D04B0936E04BF91AF919F918F910F90E6
:101560000FBE0F901F9018958111E2CF80916B04F0
:1015700090916C04A0916D04B0916E040197A10943
:10158000B109E1CF1F920F920FB60F9211248F93E2
:101590009F93AF93BF938091030181709091060157
:1015A00090FF1EC08823F1F080916B0490916C0431
:1015B000A0916D04B0916E040196A11DB11D8093A0
:1015C0006B0490936C04A0936D04B0936E04BF9170
:1015D000AF919F918F910F900FBE0F901F90189514
:1015E000882311F380916B0490916C04A0916D0499
:1015F000B0916E040197A109B109E1CF0F931F9338
:10160000CF93DF938C018EE0809FE001819FD00D0E
:101610001124C35CDB4F798368835B834A838881B1
:10162000998160E00E94333D8A819B8160E00E9445
:10163000333D8881998161E00E946F3D8A819B8161
:1016400061E00E946F3D0230110509F487C064F427
:101650000115110501F10130110509F450C0DF91A8
:10166000CF911F910F9108950330110509F4A5C082
:1016700004301105A1F780916800816080936800B3
:1016800080916B00806280936B0080916B0080641E
:1016900080936B00E4CF80913D0490913E040297CB
:1016A0008431910530F589549D4FFC018081082ECD
:1016B000000C990B41E050E061EE78E00E94143993
:1016C00080913F0490914004029784319105A0F4E9
:1016D00089549D4FFC018081082E000C990B41E03C
:1016E00050E061E679E0DF91CF911F910F910C946A
:1016F00014398FEF9FEFDECF8FEF9FEFF0CF809108
:101700004B0490914C0402978431910508F589545B
:101710009D4FFC018081082E000C990B41E050E0A8
:101720006AE879E00E94143980914D0490914E044A
:1017300002978431910578F489549D4FFC01808192
:10174000082E000C990B41E050E06AE079E0CBCF25
:101750008FEF9FEFE3CF8FEF9FEFF5CF809159048D
:1017600090915A0402978431910508F589549D4F50
:10177000FC018081082E000C990B41E050E063E3EE
:1017800079E00E94143980915B0490915C04029787
:101790008431910578F489549D4FFC018081082E95
:1017A000000C990B41E050E063EB79E09CCF8FEFA8
:1017B0009FEFE3CF8FEF9FEFF5CF809168008460BC
:1017C00080936800809168008260809368008091B7
:1017D0006D00816080936D0080916C0082608093C9
:1017E0006C003DCF2EE0269FF001279FF00D1124C5
:1017F000E35CFB4F64817581868197810895CF9367
:10180000282F8823E1F0CB01BA01CFEFC20FEC2FD4
:10181000F0E0ED57FB4F2081213059F490580E94A1
:10182000AC369B01AC016C2F70E090E080E0CF9172
:10183000A2C00E94A7368C2FCF910C94F93BCF9178
:1018400008950F931F938B019C0183E03695279594
:10185000179507958A95D1F707531B4F462F477069
:1018600021E030E0F90102C0EE0FFF1F4A95E2F7D8
:10187000AF01F80120812423CB010196211102C080
:1018800090E080E01F910F9108950F931F938B01BB
:101890009C0183E036952795179507958A95D1F792
:1018A000677081E090E001C0880F6A95EAF7F8015F
:1018B000E753FB4F2081452B31F4809582238083B1
:1018C0001F910F910895822BFACF4F925F926F92E2
:1018D0007F928F929F92AF92BF92CF92DF92EF92C0
:1018E000FF920F931F93CF93DF934B015C0129016C
:1018F0003A01670161E0882D0E94333DE4012196A1
:10190000AE01C501B401C1DF20E030E0A901C8018A
:10191000B6010E94893818168CF4F401ED57FB4F7C
:1019200081E08083C801B6010E94AC366B01C3011F
:10193000B2010E94AC36A601C40121D0CE01DF91D4
:10194000CF911F910F91FF90EF90DF90CF90BF90BC
:10195000AF909F908F907F906F905F904F90089581
:10196000882341F08150682F70E090E080E050E0E3
:1019700040E08BCF0895862FB9010C94F93B9C0170
:10198000FC01E05DFE4FE491E150E231E0F4F0E073
:101990008827E253F34F8F4F0C945A41E00CE70C29
:1019A000EA0C010D160DE30C2B0D370D3B0D520DFE
:1019B000670D7C0D930DA80DE30CBD0DD40DE90D45
:1019C00084B5806884BD60E0822F0C946F3D84B53F
:1019D0008062F8CF809180008C7F8260809380004D
:1019E00080918100807E8061682B6093810050939C
:1019F00087004093860080918000806880938000FB
:101A0000E2CF809180008C7F826080938000809103
:101A10008100807E8061682B6093810050938700F5
:101A200040938600809180008062E8CF80918000A2
:101A30008C7F82608093800080918100807E8061B5
:101A4000682B6093810050938700409386008091BB
:101A500080008860D3CF8091B00080688093B00010
:101A60008091B100887F682B6093B100ACCF8091EA
:101A7000B0008062F3CF809190008C7F8260809371
:101A8000900080919100807E8061682B609391002E
:101A900050939700409396008091900080688093C7
:101AA000900091CF809190008C7F82608093900015
:101AB00080919100807E8061682B609391005093AB
:101AC000970040939600809190008062E8CF8091CB
:101AD00090008C7F82608093900080919100807E46
:101AE0008061682B6093910050939700409396001B
:101AF000809190008860D3CF8091A0008C7F82601D
:101B00008093A0008091A100807E8061682B60930B
:101B1000A1005093A7004093A6008091A000806888
:101B20008093A00050CF8091A0008C7F8260809332
:101B3000A0008091A100807E8061682B6093A1004D
:101B40005093A7004093A6008091A0008062E8CF48
:101B50008091A0008C7F82608093A0008091A10082
:101B6000807E8061682B6093A1005093A700409312
:101B7000A6008091A0008860D3CF809120018C7F47
:101B800082608093200180912101807E8061682B9A
:101B900060932101509327014093260180912001F9
:101BA0008068809320010FCF809120018C7F82601C
:101BB0008093200180912101807E8061682B609359
:101BC00021015093270140932601809120018062DA
:101BD000E8CF809120018C7F8260809320018091EA
:101BE0002101807E8061682B609321015093270141
:101BF00040932601809120018860D3CF90E080E05F
:101C000008950F931F93009709F489C0611571051A
:101C100009F485C000916C0210916D0220916E0252
:101C200030916F020E3F1F4F2F4F3F4F09F069C099
:101C3000DB014D915D916D917C9140936C025093CD
:101C40006D0260936E0270936F0240916C0250912E
:101C50006D0260916E0270916F02DC011296ED913F
:101C6000FC9180819181A281B38180933E05909304
:101C70003F05A0934005B093410584819581A681DD
:101C8000B78180933A0590933B05A0933C05B093B0
:101C90003D0580859185A285B38580933605909317
:101CA0003705A0933805B093390584859585A685B9
:101CB000B7858093320590933305A0933405B09394
:101CC000350510922E0510922F05109230051092B6
:101CD00031050E94741789E997E19093D3048093AA
:101CE000D2049093D5048093D404EDD7009731F4B7
:101CF00021E030E030934305209342051F910F917E
:101D0000089500916C0210916D0220916E02309145
:101D10006F02FB01008311832283338396CF8FEF01
:101D20009FEFECCF8F929F92AF92BF92CF92DF92B4
:101D3000EF92FF921F93CF93DF934B015C011091C1
:101D4000450582E090E0909343058093420581141D
:101D50009104A104B10441F480914505811104C0AE
:101D600080914405C1E08111C0E0C12CD12C7601E5
:101D700080914505811106C080914405811102C002
:101D8000CC23D9F083E090E0909343058093420503
:101D9000CC2379F1CCE9DFEF111102C00E94FD1ACA
:101DA000CE01DF91CF911F91FF90EF90DF90CF9008
:101DB000BF90AF909F908F9008956AE070E080E0B0
:101DC00090E00E94613B80E1C80E87E2D81EE11CD2
:101DD000F11C8FEF88169806A806B80631F0C1E00E
:101DE0008C149D04AE04BF0408F0C0E080E09FD7CF
:101DF000BFCFD0E0C0E0D0CFCF92DF92EF92FF9282
:101E00000F931F93CF93DF938F3F910511F008F04D
:101E100050C020914205309143052330310539F0FF
:101E200020914205309143052130310531F424E001
:101E300030E030934305209342056A017B01EC01B9
:101E400082309105A0F011E0AE01C701B6013AD78A
:101E5000AB01BC01CE011123F9F0DF91CF911F91AD
:101E60000F91FF90EF90DF90CF900C94221D8C018A
:101E7000000F111F0E521B4FD8018D919C91892B81
:101E800011F30E942C1D0297F1F6D801ED91FC91FF
:101E9000CE011995182FD8CF0E94441D90E080E004
:101EA000DF91CF911F910F91FF90EF90DF90CF9036
:101EB00008958FEF9FEFF4CF80E039C7CF93DF9382
:101EC00086E090E0909343058093420589D7EC012A
:101ED000E2EDF4E084E0DF011D928A95E9F70E94CB
:101EE000951A1092430510924205CE01DF91CF91D1
:101EF000089580914405089580912D05089560937B
:101F00006C0270936D0280936E0290936F0290E06A
:101F100080E008958F929F92AF92BF92CF92DF920E
:101F2000EF92FF92CF93DF936B017C0149015A013D
:101F3000C7D5882399F06091500A7091510A809119
:101F4000520A9091530ADF91CF91FF90EF90DF906A
:101F5000CF90BF90AF909F908F900895C501B4012E
:101F6000AFD58111E8CFC701B60165D58823D9F176
:101F7000C501B40160D58823B1F120E030E0A901AA
:101F8000C701B6010E948938CFEFDFEF181614F4AD
:101F9000C1E0D0E020E030E0A901C501B4010E9419
:101FA00089386FEF7FEF181614F461E070E0072EA8
:101FB000000C880B990B0E94DA366B017C01BE0184
:101FC000DD0F880B990B0E94DA36A7019601DF918D
:101FD000CF91FF90EF90DF90CF90BF90AF909F9008
:101FE0008F900C94D43520E030E0A901C501B401F4
:101FF0000E943A36811116C020E030E0A901C701E5
:10200000B6010E948938181694F020E030E0A9014A
:10201000C701B6010E943A3687FD0EC060E070E04D
:10202000CB0191CFA5019401C701B601D0CF6BEDD3
:102030007FE089EC9FE387CF6BED7FE089EC9FEB3E
:1020400082CFCF92DF92EF92FF926B017C019F775C
:1020500020E030E040E859E50E943A3687FF2BC087
:1020600020E030E040E05FE3C701B6010E9489381C
:1020700087FD0EC020E030E040E05FE3C701B6011D
:102080000E946135FF90EF90DF90CF900C94153750
:1020900020E030E040E05FEBC701B6010E948938E4
:1020A000181684F420E030E0A901C701B6010E94AF
:1020B00094386B017C01C701B601FF90EF90DF906F
:1020C000CF90089520E030E040E05FE3C701B60123
:1020D0000E946035FF90EF90DF90CF900C942736F0
:1020E0004F925F926F927F928F929F92AF92BF9228
:1020F000CF92DF92EF92FF920F931F93CF93DF93D4
:10210000CDB7DEB72E970FB6F894DEBF0FBECDBFAA
:1021100061E070E080E090E065DB6093400A7093DE
:10212000410A8093420A9093430AC0900A02D090D9
:102130000B02E0900C02F0900D0220911C0A3091ED
:102140001D0A40911E0A50911F0AC701B6010E9444
:102150006135A70196010E946135209116023091E8
:10216000170240911802509119020E94943860930E
:10217000340A7093350A8093360A9093370ACE0159
:1021800001960E9498086D817E81072E000C880BB5
:10219000990B0E94DA3620911E0230911F02409165
:1021A0002002509121020E9494386B017C016B81C6
:1021B0007C81072E000C880B990B0E94DA36209147
:1021C0001A0230911B0240911C0250911D020E9484
:1021D0009438A70196019EDE2091220230912302BD
:1021E00040912402509125020E94613520910A02FB
:1021F00030910B0240910C0250910D020E9461350A
:102200002091260230912702409128025091290204
:102210000E9494386093380A7093390A80933A0A7E
:1022200090933B0A8091300A9091310AA091320A32
:10223000B091330A892B8A2B8B2BD1F16091080541
:102240007091090580910A0590910B050E94D8367E
:102250002AE037ED43E25CE30E9494382091320299
:102260003091330240913402509135020E949438EB
:102270006B017C010E94F7386093200A7093210A59
:102280008093220A9093230AC701B6010E943E362A
:102290006093240A7093250A8093260A9093270A54
:1022A0001092300A1092310A1092320A1092330AB8
:1022B0008091200A9091210AA091220AB091230ACC
:1022C0008F839887A987BA878091460290914702A9
:1022D000A0914802B09149028B879C87AD87BE8749
:1022E0004090240A5090250A6090260A7090270A90
:1022F000C0904202D0904302E0904402F090450228
:102300009C01AD016F81788589859A850E949438FA
:102310004B015C01A7019601C301B2010E949438F0
:102320009B01AC01C501B4010E94613520913E02C0
:1023300030913F0240914002509141020E949438F6
:102340004B015C01A30192016B857C858D859E8587
:102350000E9494382B013C01A70196016F8178857A
:1023600089859A850E9494389B01AC01C301B20112
:102370000E94603520913A0230913B0240913C022C
:1023800050913D020E9494389B01AC01C501B401FB
:102390000E94613520912A0230912B0240912C023B
:1023A00050912D020E94943820912E0230912F02DC
:1023B00040913002509131020E94613560933C0A95
:1023C00070933D0A80933E0A90933F0ACE01019696
:1023D0000E94BA0820913C0A30913D0A40913E0A81
:1023E00050913F0A609156027091570280915802B5
:1023F000909159020E9494380E9415376B017C011C
:102400005FD381118AC1C701B60115D3811185C17E
:1024100020E030E040E857E4C701B6010E942F37C2
:102420006B017C0120E030E0A9010E943A3687FF71
:1024300077C1C701B60190580E94AC36EE24FF2444
:10244000E61AF70A80916A0290916B02E816F90683
:102450000CF46CC18090020290900302A0900402E0
:10246000B0900502C501B401ECDD2B013C0120E078
:1024700030E040E853E40E943A366FEF87FF0EC029
:1024800020E030E0A901C301B2010E94893860E078
:1024900087FD04C0C301B2010E94AC3686E00E94F1
:1024A000DA0868E070E080E090E0CBD96C019093AE
:1024B0001B0A80931A0AB701F7FE03C07195619554
:1024C0007109072E000C880B990B0E94DA362091B7
:1024D0005A0230915B0240915C0250915D020E9471
:1024E00061358B012C0160905E0270905F02E0907C
:1024F0006002F09061029B01AC01B301C7010E9430
:102500003A3687FD12C06090620270906302E090DC
:102510006402F09065029801A201B301C7010E9414
:102520008938181614F03801720120916602309132
:1025300067024091680250916902C501B4010E948E
:1025400094389301A7010E9460354B015C01E89427
:10255000B7F820E030E04FE753E4C501B4010E9432
:102560003A36181634F4812C912C8FE7A82E83E488
:10257000B82EB501A401C60142D969817A81072E1E
:10258000000C880B990B0E94DA3620914A02309198
:102590004B0240914C0250914D020E949438209180
:1025A0004E0230914F0240915002509151020E94D0
:1025B000943820915202309153024091540250912C
:1025C00055020E94613520910E0230910F02409118
:1025D0001002509111020E94943820911C0A3091EF
:1025E0001D0A40911E0A50911F0A0E946135609396
:1025F0001C0A70931D0A80931E0A90931F0AC090B4
:10260000200AD090210AE090220AF090230A8090BC
:102610003E0290903F02A0904002B0904102809113
:10262000240A9091250AA091260AB091270A8F8347
:102630009887A987BA8740903A0250903B026090F1
:102640003C0270903D02A7019601C501B4010E94B1
:1026500094386B877C878D879E87A30192016F8159
:10266000788589859A850E9494389B01AC016B8599
:102670007C858D859E850E9461356093200A7093CC
:10268000210A8093220A9093230A2F813885498555
:102690005A85C501B4010E9494384B015C01A70121
:1026A0009601C301B2010E9494389B01AC01C5019F
:1026B000B4010E9460356093240A7093250A8093C8
:1026C000260A9093270A8091080590910905A09108
:1026D0000A05B0910B050196A11DB11D8093080557
:1026E00090930905A0930A05B0930B052E960FB69B
:1026F000F894DEBF0FBECDBFDF91CF911F910F9138
:10270000FF90EF90DF90CF90BF90AF909F908F9011
:102710007F906F905F904F900895C12CD12C7601DF
:10272000C701B6010E94AC367B018CCE80900602B8
:1027300090900702A0900802B090090293CE8F9269
:102740009F92AF92BF92DF92EF92FF920F931F93EF
:10275000CF93DF9384E090E037D1E2EFF4E08FE1B4
:10276000DF011D928A95E9F780E090E0A0E8BFEBD9
:10277000828F938FA48FB58F85EB97E2A8E8B8EE90
:1027800084839583A683B78380E79EEFA5EFBEEB96
:1027900080879187A287B38786E394EAAAE0BFE89F
:1027A00084879587A687B78786EE90EEA9E6BAE775
:1027B000808B918BA28BB38BA6EEB4E0B383A28304
:1027C000E6EDF4E01196FC93EE938BEC92E09183AE
:1027D0008083938382839583848397838683918781
:1027E000808793878287958784879787868786E007
:1027F00095E015969C938E93149786EF94E013962C
:102800009C938E9312974FEF5FEFBA0118964D93FA
:102810005D936D937C931B97E4E3FAE080E1DF0125
:102820001D928A95E9F7CAEFD9E08AE3FE01119279
:102830008A95E9F7812C912C540183948D8A9E8A84
:10284000AF8AB88E42E150E063E170E081E090E051
:102850000E94FE0ADD24D394D98E188289829A823E
:10286000AB82BC820E948308DD821E868F86988A96
:10287000A98ABA8A90E080E00E94AD08DB8A1E82B5
:102880008F829886A986BA8661E086E00E94D20887
:10289000DB861A8E8B8E9C8EAD8EBE8EE12CF12C3B
:1028A0008701A801970168E070E080E090E00DD812
:1028B00099A388A3DF8E8091120290911302A091B8
:1028C0001402B09115028AA39BA3ACA3BDA38EAA48
:1028D0009FAAA8AEB9AEDF91CF911F910F91FF9043
:1028E000EF90DF90BF90AF909F908F900895809170
:1028F0000E0A811103C081E080930E0A8091FA09CB
:10290000811103C081E08093FA098091080A811146
:1029100003C081E08093080A8091000A811103C0FE
:1029200081E08093000A8091140A81112EC081E019
:102930008093140A8091150A9091160AA091170AA3
:10294000B091180A0197A105B105F9F48091190A0F
:102950008823D9F068E070E080E090E00E94210CCC
:1029600090931B0A80931A0A40E050E0BA010E943B
:10297000FF0B68E070E080E090E00E94210C9093F3
:102980001B0A80931A0A0C94B00C089560E070E062
:1029900080E89FE7089560E070E080E89FE7089591
:1029A00060E070E080E89FEF089560E070E080E80C
:1029B0009FEF089560E070E080EC9FEF089560E085
:1029C00070E080EC9FEF0895F5DF6093500A7093FC
:1029D000510A8093520A9093530AF1DF6093440A9C
:1029E0007093450A8093460A9093470ACFDF60931D
:1029F0004C0A70934D0A80934E0A90934F0ACBDF96
:102A00006093480A7093490A80934A0A90934B0A4C
:102A1000C7DF6093540A7093550A8093560A9093C7
:102A2000570AC3DF6093580A7093590A80935A0A71
:102A300090935B0A0895CF92DF92EF92FF92CF932B
:102A40006B017C01AC019B0160914C0A70914D0AB5
:102A500080914E0A90914F0A0E943A36C1E0882335
:102A600071F0A70196016091540A7091550A809106
:102A7000560A9091570A0E943A368111C0E08C2F75
:102A8000CF91FF90EF90DF90CF9008950F931F9319
:102A90008B019C010027112720783F770115110534
:102AA00020483F4749F4AB01BC016F77772781E0AD
:102AB000452B462B472B09F480E01F910F91089579
:102AC000E5CF4F925F926F927F928F929F92AF92DB
:102AD000BF92CF92DF92EF92FF920F931F93F894E1
:102AE00040901D0550901E0560901F0570902005B8
:102AF000C0901105D0901205E0901305F0901405D8
:102B0000452B09F0A4C09B01AC01241935094609E5
:102B1000570929013A010091190510911A052091D0
:102B20001B0530911C0548015901840C951CA61CFD
:102B3000B71C80169106A206B306A0F400911505F5
:102B40001091160520911705309118050F5F1F4F42
:102B50002F4F3F4F0093150510931605209317052F
:102B6000309318058092190590921A05A0921B05C2
:102B7000B0921C05009115051091160520911705BE
:102B8000309118058092210590922205A09223058C
:102B9000B092240500932505109326052093270560
:102BA0003093280560931D0570931E0580931F05C3
:102BB00090932005A0E1B7E2A30192010E94624137
:102BC0006C0D7D1D8E1D9F1D609311057093120568
:102BD000809313059093140500916C0210916D027F
:102BE00020916E0230916F020F3F1F4F2F4F3F4FCA
:102BF000F1F000916C0210916D0220916E02309103
:102C00006F020E3F1F4F2F4F3F4F89F0C0906C0255
:102C1000D0906D02E0906E02F0906F0221E08C1473
:102C20009D04AE04BF0408F420E020932D057894A1
:102C30001F910F91FF90EF90DF90CF90BF90AF90DA
:102C40009F908F907F906F905F904F9008954B0171
:102C50005C0184189508A608B708A3019201261BF9
:102C6000370B480B590B6415750586059705D0F091
:102C700082169306A406B50640F420E030E0A901D0
:102C800081149104A104B10491F4A0E1B7E20E947F
:102C90006241A7019601261B370B480B590BCA014D
:102CA000B901C5CF82169306A406B50670F7A0E158
:102CB000B7E2A50194010E9462416C0D7D1D8E1D3D
:102CC0009F1DB5CFFECECF93DF9300D01F92CDB71F
:102CD000DEB71C821B821A8219821092290510927B
:102CE0002A0510922B0510922C05BE016F5F7F4FB5
:102CF000CE0103960E94623369817A818B819C8127
:102D00000E94502C009761F4BE016F5F7F4FCE018F
:102D100003960E946E3369817A818B819C812AD5CA
:102D20000F900F900F900F90DF91CF910895FF9229
:102D30000F931F93CF93DF93082F60E070E0CB01D8
:102D40000E94613BFF24F3940E94392BEC01892BF4
:102D500089F010E0CE3F8FEFD80769F0002361F1D2
:102D600060E070E0CB010E94613B81E090E0892B44
:102D700059F322C011E021D5EC01892B21F0CE3F7F
:102D80008FEFD80759F711111EC011E0229609F4F0
:102D900010E00E94E92AEC01892B21F0CE3F8FEF51
:102DA000D807E1F6111111C011E0CE3F8FEFD8071F
:102DB00009F410E001110BC0CE01DF91CF911F91FA
:102DC0000F91FF90089511E0E4CF11E0F3CF60E0A0
:102DD00070E0CB010E94613B1F25812F90E0C7CF9F
:102DE000CF93DF9380912D05882321F060E070E080
:102DF000CB0148D631D6D0E0C0E0892B71F06AE033
:102E000070E080E090E00E94613B81E090DF24D69A
:102E10002196C03727E1D20781F723D60E94A42C40
:102E2000109245051092440510923E0510923F0500
:102E3000109240051092410510923A0510923B0500
:102E400010923C0510923D05109236051092370500
:102E50001092380510923905109232051092330500
:102E6000109234051092350510922E0510922F0500
:102E700010923005109231054EEF5FEF6FEF7FEF4C
:102E800040936C0250936D0260936E0270936F02D8
:102E900010922D05E1E2F5E028E0DF011D922A9570
:102EA000E9F710921D0510921E0510921F05109251
:102EB00020051092190510921A0510921B05109208
:102EC0001C05109215051092160510921705109208
:102ED0001805109211051092120510921305109208
:102EE0001405DF91CF91089510925105109252056B
:102EF0001092530510925405109250058091590577
:102F000090915A0590934F0580934E0510924D0570
:102F100010924C05109248051092490510924A05EE
:102F200010924B05109256051092550590E080E0E6
:102F30000895CF92DF92EF92FF920F931F93CF935A
:102F40008C01892B09F055C02091590530915A0503
:102F500080914E0590914F054091590550915A0529
:102F600050934F0540934E052817390781F0109272
:102F70004D0510924C05109248051092490510928B
:102F80004A0510924B0510925605109255058091F6
:102F9000590590915A05019761F5809155059091D9
:102FA0005605892B21F480917002811112C0809105
:102FB0005505909156050197E1F48091480590914F
:102FC0004905A0914A05B0914B050197A105B105AE
:102FD00081F4109248051092490510924A0510920A
:102FE0004B051092700282E090E09093560580931A
:102FF00055058091590590915A05019709F01CC11A
:1030000080916F05909170058017910709F014C1A8
:1030100080916B0590916C05A0916D05B0916E0546
:10302000009709F409C120916A0521110DC0409152
:103030006B0550916C0560916D0570916E05452B87
:10304000462B472B09F4F8C02091550530915605C1
:103050002230310509F0F0C020914C052111ECC05F
:10306000FC01C080D180E280F380809150058823EC
:1030700009F4D3C080915C0590915D05892B09F41A
:10308000FDC020915C0530915D0581E02230310565
:1030900009F080E020915C0530915D05C1E02130B0
:1030A000310549F020915C0530915D05C1E0223089
:1030B000310509F0C0E0882309F456C02091660567
:1030C000309167054091680550916905C701B601C7
:1030D0000E94893887FD14C02091660530916705EC
:1030E00040916805509169056091510570915205B4
:1030F00080915305909154050E943A3687FD22C075
:1031000020916605309167054091680550916905E9
:10311000C701B6010E948938181634F5209166055A
:10312000309167054091680550916905609151059E
:103130007091520580915305909154050E943A3642
:10314000811112C080915E0590915F05A09160058C
:10315000B0916105892B8A2B8B2B19F481E0809328
:103160004D0581E080934C05CC2309F456C0209195
:103170006605309167054091680550916905C70162
:10318000B6010E943A3687FF14C02091660530913F
:1031900067054091680550916905609151057091EE
:1031A000520580915305909154050E94893887FFFC
:1031B00022C02091660530916705409168055091C5
:1031C0006905C701B6010E943A36811126C02091D7
:1031D00066053091670540916805509169056091D9
:1031E00051057091520580915305909154050E94AC
:1031F0008938181694F480915E0590915F05A0912E
:103200006005B0916105892B8A2B8B2B19F481E025
:1032100080934D0581E080934C0581E090914C05B1
:10322000911180E080935005C0925105D0925205D3
:10323000E0925305F0925405012B09F067C180918B
:10324000550590915605892BD9F410925B05109283
:103250004C0580917002882379F082E090E0909391
:1032600056058093550510927002209159053091B2
:103270005A0581E0232BE9F080E01BC081E00ACFF2
:103280001092700280915B05882349F010924D05E1
:10329000109256051092550510925B05EDCF809166
:1032A000590590915A05892BE1F080914C051092B7
:1032B0004C0520915505309156052230310509F411
:1032C0005EC088F42115310509F448C0213031056C
:1032D00009F4F3C010924D0510924C0510925B0555
:1032E00038C081E0E6CF2330310509F4B1C0243085
:1032F000310581F7409148055091490560914A0593
:1033000070914B05411551056105710561F0415002
:10331000510961097109409348055093490560932B
:103320004A0570934B0540914805509149056091BD
:103330004A0570914B05452B462B472BD9F420911C
:103340005705309158052130310509F046C01092DB
:103350004D0510925605109255050CC080917002D3
:10336000882341F082E090E09093560580935505C4
:10337000109270021092460580914D05CEC08823B0
:10338000C9F380915E0590915F05A0916005B091B1
:103390006105181619061A061B060CF07DC08091EF
:1033A000590590915A05019709F076C080915E0504
:1033B00090915F05A0916005B091610580934805EB
:1033C00090934905A0934A05B0934B0583E090E0A4
:1033D0009093560580935505CDCF4091620550914D
:1033E00063056091640570916505452B462B472B5D
:1033F000A9F010924D058091620590916305A0910E
:103400006405B09165058093480590934905A093A4
:103410004A05B0934B0581E090E0DACF882399F01C
:103420008091710290917202A0917302B091740226
:103430008093480590934905A0934A05B0934B05A6
:1034400084E090E0C5CF10924D0582E090E0C0CFBF
:103450008091480590914905A0914A05B0914B058E
:103460000097A105B10559F00197A109B109809311
:10347000480590934905A0934A05B0934B05809168
:10348000480590914905A0914A05B0914B05892BBB
:103490008A2B8B2B09F06ECF809171029091720272
:1034A000A0917302B0917402892B8A2B8B2B09F4A3
:1034B0004ECF81E080934D05B3CF409148055091A8
:1034C000490560914A0570914B054115510561050B
:1034D000710561F041505109610971094093480536
:1034E0005093490560934A0570934B0540914805F8
:1034F0005091490560914A0570914B05452B462B2B
:10350000472B09F037CF8111C7CF9FCF8091460558
:10351000882309F431CF80914705CF911F910F91F6
:10352000FF90EF90DF90CF90089510925105109288
:1035300052051092530510925405109250051092A6
:1035400056051092550510924F0510924E05109297
:10355000700510926F0510924D0510924C05109257
:1035600048051092490510924A0510924B05109299
:1035700047051092460510926B0510926C0510924B
:103580006D0510926E0510926A05109266051092F4
:103590006705109268051092690588EE93E0A0E037
:1035A000B0E08093710290937202A0937302B09383
:1035B00074021092620510926305109264051092D5
:1035C000650510925E0510925F05109260051092DD
:1035D000610510925D0510925C0581E08093700298
:1035E00010925B0510925A051092590510925805D9
:1035F0001092570590E080E00895809159059091D0
:103600005A05892BE1F480917002882351F0809152
:103610005B05811106C081E08093470580934605D4
:10362000089580915B05882341F08091700281119B
:1036300004C01092470581E0F1CF1092460508952D
:1036400082E090E0FA01918380838FEF9FEF0895ED
:10365000CF93DF93EA01009711F00E94C42D1982E5
:10366000188290E080E0DF91CF910895DB01009710
:1036700019F48FEF8C9308952EEF2C93FC01709624
:10368000E031F10508F037C08827E65BF44E8F4F34
:103690000C945A41791B771B751B731B711B6F1B95
:1036A0006B1B6D1B691B671B651B621B5E1B5A1B1B
:1036B000601B7B1B80E311968C93089589E2FBCFFE
:1036C00082E2F9CF11961C92089583E2F4CF81E251
:1036D000F2CF81E1F0CF87E2EECF8AE2ECCF80E15A
:1036E000EACF84E2E8CF88E2E6CF86E2E4CF81E366
:1036F000E2CF83E3E0CF80E2DECF80917D05909141
:103700007E05089590937E0580937D0508958091B0
:103710007C05089590917C05892B80937C05089504
:10372000982F909580917C05892380937C0508953E
:1037300080917B0508958091790590917A0508958F
:103740006115710559F0FB0130E020E070E060E0A8
:103750002417350719F06115710511F0CB01089593
:10376000A081B181A817B90709F4BF012F5F3F4FAE
:103770003696EECF80917F0581111CC060D266D253
:1037800090937205809371050E94C2250E94D425F2
:1037900090937605809375050E94512A0E94582ABD
:1037A000909374058093730581E080937F0590E08A
:1037B00080E0089584EF9FEF08958F929F92AF92DB
:1037C000BF92CF92DF92EF92FF920F931F93CF930E
:1037D000DF9300D000D000D01F92CDB7DEB71A869D
:1037E000198618861F821E821D821C821B821A82E5
:1037F000198280917F0507EF1FEF882309F49CC091
:103800008E010D5F1F4F9E012B5F3F4FAE01495F41
:103810005F4FBE01675F7F4F90E080E00E94D52B35
:103820008C01009721F00596029708F0DBC02985EE
:103830003A852115310509F402C1ED80FE804B81E6
:103840005C81B701640F751F8F8198858617970774
:1038500008F4F5C0E20EF31ED7019C91903C09F0EC
:103860007FC04230510508F47BC011968C91409185
:103870007D0550917E05452B09F49CC0913F08F0D1
:1038800071C02CE1290F2D3008F48BC02DE2290FD7
:10389000203108F489C0903C21F48150823008F432
:1038A00083C088E3890F8B3008F481C096E3C92E6A
:1038B0009BE1D92EE0E2FBE16D817E81AE014F5F9D
:1038C0005F4F89859A8519955C01C114D104A1F1D6
:1038D00089809A808114910479F18B819C8188156B
:1038E000990508F487C010E000E04B815C8170E02E
:1038F00060E0C7010E94844101151105E9F4498186
:103900005A8169857A858D819E81680F791FC501ED
:10391000F6011995E980FA800D811E812F81388585
:1039200049855A856FEF7FEF81E090E00E94702B10
:103930008C01892B09F056C0C8012A960FB6F8945D
:10394000DEBF0FBECDBFDF91CF911F910F91FF90D2
:10395000EF90DF90CF90BF90AF909F908F900895A1
:1039600080E085CF30E020E0220F331FF901EF58CF
:10397000FA4F0190F081E02D309709F497CF892F0D
:1039800090E01995009709F491CFDC011296ED9122
:10399000FC9113971496CD90DC90309709F08CCF62
:1039A0001FC021E030E0E0CF22E030E0DDCF23E0B7
:1039B00030E0DACFD12CC12CE8E2FBE19F3F09F0E7
:1039C0007BCFE0917105F0917205309721F4C90128
:1039D00004EF1FEF0CC08FEF90E019950097A9F648
:1039E00004EF1FEF89859A85009709F4A5CF0E94FF
:1039F000C42DA2CF0E949F2C8C0189859A850E949C
:103A0000C42D70E060E0C4010E94382C98878F8339
:103A10000E946D2B9E838D836F8178856115710562
:103A200059F0C8010E94502F9A87898706EF1FEF2F
:103A3000892B09F058CF59CF08EF1FEF56CF08EF69
:103A40001FEFD0CF20917F05222319F020E00C94A6
:103A5000D92587EF9FEF089580917D0590917E0590
:103A600008950E945D2A0E94B729F5D0E1E7F5E0AC
:103A700088E0DF011D928A95E9F710927F0590E0BA
:103A800080E008950C94152821E040E050E0BA0150
:103A90000C94D92586E090E0FA019183808390E030
:103AA00080E0089547E050E06EEC72E049CEDF928E
:103AB000EF92FF920F931F93CF93DF938A01EC0154
:103AC000C60FD71FE0908305F0908405D9800E942F
:103AD000872CD816190678F082E090E0F8019183DF
:103AE00080838EEF9FEFDF91CF911F910F91FF9019
:103AF000EF90DF900895EF2841F482E090E0F80124
:103B00009183808384EF9FEFEECF8981809382053C
:103B100090E00196F8019183808390E080E0E3CF0C
:103B2000CF93DF93EA010E94C628882321F00E94E8
:103B3000942C0E94C72882E090E0998388838BEFC1
:103B40009FEFDF91CF910895CF93DF93EB0186E054
:103B5000FB0111928A95E9F78FEF8883D8DD89837D
:103B6000E7DD8A83E8DD9D838C83DF91CF91089523
:103B7000CF93DF93EA010E94C928811109C082E036
:103B800090E09983888385EF9FEFDF91CF9108952F
:103B900090E080E0B7DD81E090E09983888390E059
:103BA00080E0F3CF0F931F93CF93DF93EA018C0153
:103BB000060F171F0E94C92881110BC082E090E0F8
:103BC0009983888385EF9FEFDF91CF911F910F91AC
:103BD0000895F8018181823038F082E090E0998385
:103BE00088838EEF9FEFF0CF81E090E08BDD88E05F
:103BF00090E09983888390E080E0E6CFCF93DF93D5
:103C00000097D1F4EB01FB01329686E0DF011D92B3
:103C10008A95E9F78FEF888385E089831A820E946D
:103C2000872C8B830E94862C9D838C8381E08E83DE
:103C30008F83DF91CF910895DF91CF9117CD82E5EA
:103C40009DE1909381058093800508958091800582
:103C50009091810508951092810510928005089534
:103C600080918305909184050895411105C06115E7
:103C700071058105910561F060938305709384055A
:103C800080938505909386054093870581E008958C
:103C900080E00895FF920F931F93CF93DF938A01E3
:103CA000EC01C60FD71FF9800E94872CF816190661
:103CB00068F082E090E0F801918380838EEF9FEFBF
:103CC000DF91CF911F910F91FF9008956C817D81BD
:103CD0008E819F814B81C9DF811108C082E090E015
:103CE000F8019183808384EF9FEFEACF89818093ED
:103CF000820590E00196F8019183808390E080E056
:103D0000DFCFCF93DF93EA01FC01E60FF71F648159
:103D10007581868197814381A8DF811109C082E086
:103D200090E09983888384EF9FEFDF91CF9108958E
:103D300081E090E09983888390E080E0F6CFE3E82B
:103D4000F5E04081518162817381480F511D611DF1
:103D5000711D40835183628373830895CF93C09113
:103D600082054C2F50E06091830570918405019687
:103D70000E947B418C2FE3DF10928205CF91089542
:103D8000009799F480918305909184052FEFFB01B2
:103D90002083892B59F02091820530E02F5F3F4F1F
:103DA0002417350719F4CB01D9CF60CC08950097BB
:103DB00099F480918305909184052FEFFB01208376
:103DC000892B59F02091820530E02F5F3F4F241757
:103DD000350719F4CB01C2CF49CC089523E1AC01DA
:103DE000249FC001259F900D1124E0918C05F09136
:103DF0008D05E80FF91F238134812250310981E0BC
:103E00002230310508F080E008950F931F93CF937F
:103E1000DF9300918E0510918F05D0E0C0E080E027
:103E20000C171D0749F491E0811190E0892FDF9173
:103E3000CF911F910F9108958111F5CFCE01CEDF63
:103E40002196EECFA0918C05B0918D05109729F1A8
:103E500020918E0530918F0582179307F0F453E17E
:103E6000589F9001599F300D1124A20FB31FED915F
:103E7000FC911197309789F012968C91681768F42D
:103E80008DE0689FE00DF11D112480819181892BC7
:103E900021F081E09281491708F080E008959C01AB
:103EA00043E1429FC001439F900D1124E0918C0596
:103EB000F0918D05E80FF91F8385823091F481E040
:103EC00090E0658176814091750250917602641789
:103ED000750711F490E080E0892B19F081E0232B25
:103EE00009F080E00895FC01A081B1818DE0689F18
:103EF000A00DB11D112413964D915C918585968579
:103F0000489F9001499F300D589F300D1124C901E1
:103F10000196611103C0478144FD04960895EF9214
:103F2000FF920F931F93CF93DF93EA01FC01E60FFB
:103F3000F71F02811381E480F5804F2D6E2DC8019B
:103F400081DF81110DC082E090E0998388838EEF3C
:103F50009FEFDF91CF911F910F91FF90EF90089508
:103F6000C8013CDF882339F082E090E099838883A0
:103F700088EF9FEFEECF10937C0200937B02E092DC
:103F80007D02F0927E0281E090E09983888390E048
:103F900080E0DFCFCF92DF92EF92FF920F931F93DB
:103FA000CF93DF937A01EC01C60FD71FC0907B023D
:103FB000D0907C0200917D0210917E02412F602FF3
:103FC000C60140DF811110C082E090E0F7019183CB
:103FD00080838AEF9FEFDF91CF911F910F91FF9028
:103FE000EF90DF90CF900895C601F8DE882341F06E
:103FF00082E090E0F7019183808388EF9FEFEBCF21
:104000004C815D816E817F819A8189818F3F41F0F2
:1040100082E090E0F701918380838EEF9FEFDBCF0A
:10402000E3E1EC9D9001ED9D300D1124E0918C05B4
:10403000F0918D05E20FF31F0190F081E02D2DE04E
:10404000029FE00DF11D11240190F081E02D27E089
:10405000129FE00DF11D1124808391838B81828357
:1040600043835483658376831F5F10937E0281E0D0
:1040700090E0F7019183808390E080E0ACCFEF92F5
:10408000FF920F931F93CF93DF937A018C01060F5A
:10409000171FC0918C05D0918D05209781F021E0EC
:1040A00030E0F8018281938140918E0550918F0517
:1040B0008417950710F030E020E0232B71F482E0A4
:1040C00090E0F701918380838EEF9FEFDF91CF9196
:1040D0001F910F91FF90EF90089543E1489F900149
:1040E000499F300D1124C20FD31F78DE882341F081
:1040F00082E090E0F7019183808388EF9FEFE6CF25
:10410000F8012481358120383105C8F68781811175
:10411000D6CF4181842F90E08F7E009741F082E0DE
:1041200090E0F7019183808386EF9FEFCFCF4F839D
:104130003E832D83268128871986223010F421E0C2
:10414000288721E030E0F70131832083BFCF88E06A
:1041500090E0FA019183808390E080E00895FB0174
:104160008FEF808381E181838FEF9FEF9383828341
:1041700080E890E095838483168217820895FB017E
:104180008FEF808391E0918382839383848384E3A0
:10419000858381E090E097838683089582E090E0B4
:1041A000FA019183808380EF9FEF0895DF92EF9271
:1041B000FF920F931F93CF93DF93EA01FC01E60F69
:1041C000F71F8181813071F082E090E099838883CC
:1041D0008FEF9FEFDF91CF911F910F91FF90EF90A5
:1041E000DF90089582819381D4802581E680F780D5
:1041F00000918C0510918D050115110539F482E0AF
:1042000090E0998388838CEF9FEFE4CF40918E05F7
:1042100050918F058417950738F082E090E09983DC
:1042200088838EEF9FEFD6CF892B39F082E090E024
:104230009983888386EF9FEFCDCF8D2D8D7FB1F74A
:104240002130A1F781E0D11006C091E0E916F10418
:1042500031F080E004C0E2E0EE16F104D0F38823F0
:1042600029F390E080E0BADD882339F082E090E025
:104270009983888388EF9FEFADCFF801D38681E0E3
:104280008487F686E586108A178681E090E0998318
:10429000888390E080E09ECF4DE050E068EF72E0D0
:1042A0004FCA8F929F92BF92CF92DF92EF92FF926E
:1042B0000F931F93CF93DF93EA01FC01E60FF71FE3
:1042C000828193810481B580E0918C05F0918D0508
:1042D000309791F482E090E0998388838CEF9FEF90
:1042E000DF91CF911F910F91FF90EF90DF90CF90D2
:1042F000BF909F908F90089520918E0530918F05EB
:104300008217930738F082E090E0998388838EEFDC
:104310009FEFE6CF23E1289F6001299FD00C112455
:10432000EC0DFD1DE080F180E114F10499F2828131
:10433000081748F78DE0089F80011124E00EF11E58
:10434000F70180819181892B29F6BB20E1F2F7E00A
:10435000BF9E40011124C4010E948B2DF70191835F
:104360008083E0918C05F0918D05EC0DFD1D019091
:10437000F081E02DE00FF11F80819181009739F4E9
:1043800082E090E0998388838DEF9FEFA9CFA4010D
:1043900070E060E00E94844180918C0590918D05D1
:1043A000C80ED91EF60180819181080F191FF801EE
:1043B000B28281E090E09983888390E080E090CFA2
:1043C000AF92BF92CF92DF92FF920F931F93CF9342
:1043D000DF93EA01FC01E60FF71F82819381F480ED
:1043E00000918C0510918D050115110581F482E075
:1043F00090E0998388838CEF9FEFDF91CF911F919D
:104400000F91FF90DF90CF90BF90AF9008952091D3
:104410008E0530918F058217930738F082E090E087
:10442000998388838EEF9FEFE8CF2FEF2F0D2C3FDE
:10443000A8F723E1289F6001299FD00C11240C0DBF
:104440001D1DF80180819181892B89F6FDE0FF9E79
:1044500050011124C5010E948B2DF80191838083A6
:10446000E0918C05F0918D05EC0DFD1D8081918111
:10447000009739F482E090E0998388838DEF9FEF75
:10448000BCCFA50170E060E00E948441E0918C0502
:10449000F0918D05EC0DFD1DF28281E090E0998395
:1044A000888390E080E0A9CFCF92DF92EF92FF92D5
:1044B0000F931F93CF93DF93860F971FFC01028109
:1044C000138180918C0590918D05892B81F082E07C
:1044D00090E0FA01918380838CEF9FEFDF91CF9181
:1044E0001F910F91FF90EF90DF90CF900895C8013A
:1044F000B0E0A0E00197A109B1098F3F9F4FA1054E
:10450000B10540F082E090E0FA01918380838EEF64
:104510009FEFE4CF7A0183E1809F6001819FD00CFF
:104520001124C6010E948B2DEC01009741F482E01A
:1045300090E0F701918380838DEF9FEFCFCFA601AD
:1045400070E060E00E948441D0938D05C0938C059B
:1045500010938F0500938E0590E080E02FEF3FEFE2
:1045600041E061E070E08017910741F481E090E064
:10457000F7019183808390E080E0B0CF3A8B298B64
:104580001B864C877E876D87188A1F8601966396E7
:10459000EACFEF92FF921F93CF93DF93EC0110E0ED
:1045A000F12CE12C6A811617B0F083E0689FB0010E
:1045B0001124AE014F5E5F4FC7010E94F02D00979E
:1045C00021F02FEF3FEF3A8B298BDF91CF911F9195
:1045D000FF90EF900895612FCE0185DC61E070E0DF
:1045E0000E94382CE816F90608F47C011F5FDACF28
:1045F000F89420918A0530918B0581E021153105D1
:1046000009F080E0232B09F0789408952F923F92CF
:104610004F925F926F927F928F929F92AF92BF92D2
:10462000CF92DF92EF92FF920F931F93CF93DF937E
:104630003C01660E771EF301828193814C01B12CFF
:10464000A12CC0918C05D0918D05209769F021E0B7
:1046500030E060918E0570918F058617970710F0F6
:1046600030E020E0232BD1F482E090E0FA01918346
:1046700080838EEF9FEFDF91CF911F910F91FF907D
:10468000EF90DF90CF90BF90AF909F908F907F90F2
:104690006F905F904F903F902F90089580927F028F
:1046A00090928002A0928102B092820263E1689FA0
:1046B0009001699F300D1124C20FD31FF301818136
:1046C000833040F082E090E0FA019183808386EFAE
:1046D0009FEFD1CF2A012B813C81232BF1F428813C
:1046E00039819F8191FF2EC0232B09F46FC0209147
:1046F00091059A81422F490F5527551FBA0141E074
:1047000050E06138710514F050E040E0452B09F4A9
:104710005DC02A87920F909391058150823008F4F2
:1047200081C066DF882309F4D8C0F301818181301C
:1047300009F48DC008F47BC0823009F4C6C090E053
:1047400080E0ADC0232B09F441C0209190059A81EF
:10475000E22FE90FFF27FF1F41E050E0ED3FF10599
:1047600014F050E040E0452B89F12A87920F909396
:104770009005D3CFA081B181A20FB31F11966C9188
:10478000060F111D0196295F3F4F8417950794F37B
:104790008D859E85089F1001099F300C189F300C55
:1047A0001124C114D104D1F48F8184FF17C00E9459
:1047B000862CF5E02F0E311C21E08215930508F4BC
:1047C00020E0A701435F5F4F21110EC082E090E01F
:1047D000F2019183808387EF9FEF4DCF0E94862C5B
:1047E0002FEF221A320AE8CF88819981E80EF91E4C
:1047F000F70114830383FFEFCF1ADF0A7A018A815E
:104800008C151D0409F00CF48CCFE881F981EE0DB4
:10481000FF1D428150E030E020E010E000E090E039
:1048200080E0B3CFF12CE12CD12CC12CE8CF81E07A
:1048300090E09C838B83E9DA882309F480CF81E0C0
:1048400090E00E94821B80E40E94901B78CF8989AF
:104850009A89019661F083E090E09C838B8382E0EB
:1048600090E00E94821B80E40E948A1B68CF8D81A9
:104870009E81209175023091760282179307D1F4C0
:104880006091790270917A02AE014F5E5F4F809124
:104890007702909178020E940F2F0097E1F27894AE
:1048A00022E030E0F20131832083892B99F08DEFF3
:1048B0009FEFE1CE89288A288B2869F6892B59F643
:1048C000CE0167DE188A1F86E8CF82E090E09C83E5
:1048D0008B8335CF90E080E0CECE82E090E0F20195
:1048E0009183808385EF9FEFC6CE8F929F92AF9288
:1048F000BF92CF92DF92EF92FF920F931F93CF93CD
:10490000DF93EA018C01060F171FF80181818330C4
:1049100098F082E090E09983888386EF9FEFDF91A3
:10492000CF911F910F91FF90EF90DF90CF90BF90AC
:10493000AF909F908F90089580918C0590918D05F8
:10494000892B61F081E090E020918E0530918F05F8
:10495000232B11F490E080E0892B39F482E090E081
:10496000998388838EEF9FEFDACF42DE882309F4A4
:10497000DFC0F8018181813009F495C0E8F0823010
:1049800099F420918E0530918F05E0918C05F0917E
:104990008D0590E080E041E050E02817390709F0EC
:1049A000BDC033DA811117C0789481E090E099831B
:1049B000888390E080E0B3CF20918E0530918F0501
:1049C000E0918C05F0918D0590E080E041E050E0B1
:1049D0002817390741F481E090E00E94821B80E4AF
:1049E0000E94901BE1CF63817481672B11F0548387
:1049F000438301967396ECCFE0918C05F0918D0581
:104A0000E00FF11F2381348122303105D9F421894F
:104A100032892F3F3F4FB1F4258136814091750295
:104A2000509176022417350761F5AF014F5E5F4F55
:104A30006091790270917A02809177029091780268
:104A40000E940F2FEFEFCE1ADE0AEE0AFE0A0D5E6D
:104A50001F4F40918E0550918F0570E060E0C416A5
:104A6000D506E606F7063CF5009731F27894892BD7
:104A700009F49BCF82E090E0998388838DEF9FEFCC
:104A80004ECFC114D104E104F104E1F6232BD1F699
:104A9000CF017FDDE0918C05F0918D05E00FF11FD6
:104AA000108A1786CFCF10E000E090E080E0C12CA4
:104AB000D12C7601CECF0097C9F610E000E0812C12
:104AC000912C540183E0E82EF12C1AC0E0918C0562
:104AD000F0918D05E00FF11F83819481029749F4D5
:104AE000F482E38282E090E00E94821B80E40E94D4
:104AF0008A1BFFEF8F1A9F0AAF0ABF0A0D5E1F4F76
:104B000080918E0590918F05B0E0A0E088169906FF
:104B1000AA06BB06DCF290E080E0A8CF6381748136
:104B20006230710511F4548343830196739635CF37
:104B300082E090E09983888385EF9FEFF0CE009725
:104B4000B9F48FEFFB01808320917F0230918002C6
:104B500043E1429FC001439F900D1124E0918C05D9
:104B6000F0918D05E80FF91F8285FB01818308957F
:104B70000C94361B88E090E0FA019183808390E0EA
:104B800080E0089510928B0510928A05ECE8F5E01C
:104B900086E0DF011D928A95E9F78CE491E290931B
:104BA00089058093880508958091880590918905ED
:104BB00008952F923F924F925F926F927F928F92C1
:104BC0009F92AF92BF92CF92DF92EF92FF920F939C
:104BD0001F93CF93DF93CDB7DEB72F970FB6F8941F
:104BE000DEBF0FBECDBFF894E0918A05F0918B0532
:104BF0003196F0938B05E0938A05789440908C056C
:104C000050908D054114510409F40CC2E0918E05B9
:104C1000F0918F05EF2B09F405C22D8749875A873C
:104C20006B877C8798878F831201B12CA12C10E0B1
:104C300000E080918E0590918F05A816B90618F4B2
:104C40000115110529F1F89480918A0590918B0541
:104C5000019790938B0580938A057894C8012F96CD
:104C60000FB6F894DEBF0FBECDBFDF91CF911F917D
:104C70000F91FF90EF90DF90CF90BF90AF909F90FB
:104C80008F907F906F905F904F903F902F900895FE
:104C90007101E418F508D10117968C91179781FDE1
:104CA00054C013968D919C911497039709F04DC0B1
:104CB00015968D919C91EF81F8858E179F0709F0CD
:104CC00044C0B50190E080E07FD48A8320918C05B8
:104CD00030918D053D832C833D85332309F44CC0F1
:104CE0004C815D81452B09F49AC180918E0590918C
:104CF0008F05A816B90608F092C1C501D0D888233F
:104D0000E9F06C817D816E0D7F1D7D836C83DB01FD
:104D10001F968D919C91892B89F0D12CC12CF12C5F
:104D2000E12CAC81BD8112968C9112978E151F04D7
:104D300009F094F450961C921E921F972A81222308
:104D400021F0B50190E080E041D43FEFA31AB30A0F
:104D500043E1240E311C6DCFAC81BD81ED91FC91FE
:104D6000EC0DFD1D858196810FD7BFEFEB1AFB0A75
:104D7000EDE0CE0ED11CD5CFEC81FD81309709F44A
:104D80004EC180918E0590918F05A816B90608F046
:104D900046C1EE0DFF1DFF87EE87C50180D88B83CE
:104DA000882339F1AE85BF851F968D919C915097D0
:104DB000019621E01D964D915C918417950709F0AD
:104DC00020E02E831982712C10E000E0AE85BF85B3
:104DD00012968C91781608F45DC0EE85FF85878564
:104DE00090890196658576850E942441908B8787FE
:104DF000A5CFB1E0BE83E6CF992493946BC08BD648
:104E0000F6019683858382C0D601ED90FC90B7E0D1
:104E10006B9EE00CF11C1124F70163817481808189
:104E20008F3F61F121E030E002C0220F331F8A95ED
:104E3000E2F7C901092E000CAA0BBB0BFB01408154
:104E400051816281738184239523A623B72321E0B6
:104E5000892B8A2B8B2B09F420E0D4012C93D701CA
:104E600011968C91F60123853485820F932F911D25
:104E7000880E991E1486138663949BC0418150E06E
:104E8000C4010E947B41EBCF998206EF1FEFC5C0A2
:104E90001982C3C0F981F111A0CFEDE07E9E7001AF
:104EA0001124AE85BF85CD90DC90CE0CDF1C15D4CF
:104EB0009D838C83BB81BB2309F49ECF81E0EE856B
:104EC000FF8527853089232B09F080E0982E8823E1
:104ED00009F458C0672D8E859F8505D8D601189690
:104EE0009C938E93179761E070E0C2D4EE85FF85A6
:104EF000218932892F3F320709F481CFBC01C901D2
:104F0000CFD7D60116969C938E931597D6011596FA
:104F10008D919C911697009709F4B6CFEC81FD8195
:104F20008E0F9F1F1A969C938E931997AE85BF85FF
:104F3000ED91FC911197EE0EFF1EF7012185328550
:104F4000148613861A968C91870DD9018D93711052
:104F500016C0EE85FF85878184FF11C049855A857B
:104F60006B857C85F9014183528363837483F701E8
:104F7000838594850496A80FB91F14861386F701BC
:104F8000B287A187D60115968D919C911697892B92
:104F900009F443C0EE85FF85258136818091750235
:104FA000909176022817390779F019968D909C9088
:104FB000612CD60112968C911297681608F424CFB2
:104FC0001A969C928E921997BE81BB2309F460CFEA
:104FD00061E070E0F601878190854AD4D60117968A
:104FE000ED90FC90189715964D915C91E1E0F0E002
:104FF000BA81BB2311F0F0E0E0E00C811D819C013F
:10500000B501882799278E1B9F0B6AD38C01892BAA
:1050100021F0F60185819681B7D57394D7CE0FEF35
:105020001FEF8CCE10E000E00ECE2F923F924F92F9
:105030005F926F927F928F929F92AF92BF92CF9228
:10504000DF92EF92FF920F931F93CF93DF938091A4
:105050008C0590918D0510E000E0892BA9F0C8DA4D
:105060000AEF1FEF882381F020908E0530908F0586
:10507000C0918C05D0918D05D12CC12C10E000E0A1
:105080002C143D04A9F47894C801DF91CF911F91AD
:105090000F91FF90EF90DF90CF90BF90AF909F90D7
:1050A0008F907F906F905F904F903F902F900895DA
:1050B000C6010E944F1F882309F18B819C810397B1
:1050C000E9F48F859889892BC9F0B60190E080E0DA
:1050D0007BD221E030E0882311F030E020E044244E
:1050E0005524421A530AB12CA12C912C812C8A816F
:1050F0008815190409F038F4188A1F864FEFC41A6E
:10510000D40A6396BDCFE881F981EA0DFB1D858144
:105110009681892BA1F161E070E087819085A8D309
:105120003C01DBD28C01E881F981EA0DFB1D818510
:10513000928525813681200F311FAC01421B530B14
:105140009A0147815085421B530B70E060E00E943A
:105150008441E881F981EA0DFB1DE780F0844581F7
:1051600056819301B601C201BBD28C01892B39F063
:10517000E881F981EA0DFB1D8581968105D55FEFF8
:10518000851A950A8DE0A80EB11CB1CF31CA78946A
:1051900008952F923F924F925F926F927F929F92CB
:1051A000AF92BF92CF92DF92EF92FF920F931F9335
:1051B000CF93DF9300D000D0CDB7DEB700918C0540
:1051C00010918D05992493940115110509F43EC0A1
:1051D000A0908E05B0908F050BDA982E8823B1F140
:1051E00010928D0510928C0510928F0510928E05ED
:1051F00010929005109291058FEF9FEFDC01809344
:105200007F0290938002A0938102B09382027894EF
:105210007FD31E830D83C12CD12C7601C501B0E054
:10522000A0E089839A83AB83BC8322242A94322C06
:1052300089819A81AB81BC81C816D906EA06FB0632
:10524000F4F0C801A1D480E40E94901B892D269619
:105250000FB6F894DEBF0FBECDBFDF91CF911F9187
:105260000F91FF90EF90DF90CF90BF90AF909F9005
:105270007F906F905F904F903F902F900895AD81F9
:10528000BE8115968D919C91169720917502309153
:10529000760282179307D1F451968D919C91EED5A9
:1052A000ED81FE8180819181B12CA12C412C512C6A
:1052B0003201892B89F5BFEFCB1ADB0AEB0AFB0A17
:1052C000ED81FE817396FE83ED83B2CFC114D104CC
:1052D000E104F10429F7892B19F7ED81FE81818919
:1052E00092898F3F980709F029D5AD81BE815296EA
:1052F0003C922E925197D4CF8A0D9B1DDC018D914B
:105300009C91009709F040D4BFEF4B1A5B0A6B0ADF
:105310007B0AEDE0AE0EB11CAD81BE818D919C91FA
:10532000119712964C9150E070E060E044165506DB
:10533000660677060CF328D4BECFCF93DF93EA013D
:1053400028DF811109C082E090E09983888385EF8E
:105350009FEFDF91CF91089581E090E00E94821B42
:1053600081E090E09983888390E080E0F2CF11DFC4
:105370001092890510928805089542E050E066E495
:1053800073E00C94A01BFF920F931F93CF93DF93B6
:105390008A01EC01C60FD71FF980B9D20897F81619
:1053A000190671F068F082E090E0F8019183808343
:1053B0008EEF9FEFDF91CF911F910F91FF90089596
:1053C0006C817D818E819F814B810E94351E811170
:1053D00008C082E090E0F8019183808384EF9FEF22
:1053E000E9CFF9800E94301E4F2D50E0BE01685F6A
:1053F0007F4F0E947B4189810E949F1E81E090E047
:10540000F8019183808390E080E0D4CFDF92EF9227
:10541000FF920F931F93CF93DF938A01EC01C60F86
:10542000D71F0E94301E7C01D98071D2DD2059F037
:10543000029721E030E0D816190619F010F030E09C
:1054400020E0232B79F482E090E0F80191838083BF
:105450008EEF9FEFDF91CF911F910F91FF90EF9013
:10546000DF900895EF2841F482E090E0F801918305
:10547000808384EF9FEFEECFF9800E94301E4F2D86
:1054800050E0BE016E5F7F4F0E947B4189810E9488
:105490009F1E81E090E0F8019183808390E080E09E
:1054A000D9CF8DEB99E2909393058093920508955F
:1054B000809192059091930508950895FC011182C1
:1054C0001082938382830895DB011D921C92DC017C
:1054D0001296ED91FC9113977183608313967C93E0
:1054E0006E9312970895FC0180819181DB018D9369
:1054F0009C93A081B181109741F08D919C919183F3
:105500008083892B11F4F383E2830895FC01808169
:105510009181DB018D939C93892B11F473836283BA
:10552000718360830895FC011182108293838283CA
:105530000895CF93DF931F921F92CDB7DEB71A82E3
:105540001982F894BE016F5F7F4F89E995E0CBDF48
:1055500089819A81009709F017D389819A81892BD3
:1055600089F7BE016F5F7F4F8DE995E0BCDF8981D0
:105570009A81009709F008D389819A81892B89F74C
:1055800078940F900F90DF91CF910895CF93DF9390
:105590001F921F92CDB7DEB71A821982F894BE010E
:1055A0006F5F7F4F85E995E09EDF89819A81009743
:1055B00009F0EAD289819A81892B89F778940F9032
:1055C0000F90DF91CF91089581E0089590E080E001
:1055D0000895EF92FF920F931F93CF93DF931F9243
:1055E0001F92CDB7DEB71A8219828091940507EF1A
:1055F0001FEF8823A1F1F894BE016F5F7F4F8DE903
:1056000095E071DF789489819A81EE24E394F12CFE
:10561000892B51F4F894BE016F5F7F4F89E995E0C3
:1056200062DF7894F12CE12C89819A810EEF1FEFD3
:105630000097A9F0FC014281538164E070E076D6C6
:105640008C01892B61F0F89469817A81C701880FF8
:10565000991F880F991F87569A4F58DF7894C80171
:105660000F900F90DF91CF911F910F91FF90EF90CE
:1056700008950F931F93CF93DF9300D01F92CDB760
:10568000DEB71C821B821A8219828091940507EF73
:105690001FEF8823C1F0AE014D5F5F4F64E070E003
:1056A000CE010196B6D68C01892B69F4E981FA8185
:1056B0008B819C8193838283F89469817A8185E9C7
:1056C00095E002DF7894C8010F900F900F900F9033
:1056D000DF91CF911F910F910895BBD70496089544
:1056E0008F929F92AF92BF92CF92DF92EF92FF92F2
:1056F0000F931F93CF93DF931F921F92CDB7DEB707
:105700001A821982BC016F5F7F4F6330710598F078
:10571000AA24AA94BA2CC5010F900F90DF91CF91C3
:105720001F910F91FF90EF90DF90CF90BF90AF90BF
:105730009F908F9008954115510551F348015901EB
:105740008A016C01CADF8815990511F7E114F1048B
:10575000F9F28E0D9F1DA816B906D0F2809194051E
:105760008823F1F0F894B501645071099701AE01F6
:105770004F5F5F4FC8010496E1D65C01892B71F43D
:1057800089819A81F80193838283C601880F991FCA
:10579000880F991FB80187569A4F96DE7894BBCF31
:1057A00087EFA82EBB24BA94B6CFAF92BF92CF9208
:1057B000DF92EF92FF920F931F93CF93DF931F928D
:1057C0001F92CDB7DEB71A821982892B09F047C024
:1057D0006115710509F443C04115510509F43FC035
:1057E0002115310509F43BC001151105C1F1809166
:1057F00094058823B9F179016A015B01F894BE012F
:105800006F5F7F4F85E995E06EDE789489819A819C
:10581000009759F1DC0112966D917C91A8010496D4
:10582000A6D68C01E981FA81D501ED93FC938281A2
:1058300093810496F601918380834FDFD7018D9386
:105840009C93C8010F900F90DF91CF911F910F9102
:10585000FF90EF90DF90CF90BF90AF9008950FEF43
:105860001FEFEFCF07EF1FEFECCF0EEF1FEFE9CFEA
:10587000CF93DF93EC01672B71F4F4D68C179D075F
:1058800060F0E7D62496C80FD91FE6D68C0F9D1F6F
:10589000DF91CF910895E3D6F1CF90E080E0F8CF8B
:1058A0000F931F93CF93DF932091940521112BC069
:1058B0008B01EC0189E995E001DE8DE995E0FEDDE3
:1058C00085E995E0FBDD97D00097C1F4CBD670E079
:1058D00060E0CEDF43E852E062E070E081D1009703
:1058E00069F48091830290918402CED6B801CE01F2
:1058F00003D5009719F421E020939405DF91CF910F
:105900001F910F91089584EF9FEFF8CFA8C6AAC604
:10591000CF93DF93AAD6EC01892B11F40ADE36DE91
:10592000CE01DF91CF910895CF93DF939ED6EC0106
:10593000892B09F4FEDDCE01DF91CF91089580918E
:105940008302909184020895CF93DF938091940510
:10595000D0E0C0E08823D1F09CD6EC01892BB1F4D3
:10596000E8DD14DE8091830290918402E7D1E8D2D1
:10597000EC01892B59F489E995E0D5DD8DE995E0B5
:10598000D2DD85E995E0CFDD10929405CE01DF915F
:10599000CF910895EF92FF920F931F93CF93DF93D0
:1059A000EC017A018B010F5F1F4F0E9DA0010F9D2F
:1059B000500D1E9D500D112470E060E00E94844146
:1059C00090E080E0F0E0E0E02FEFE816F90639F42F
:1059D000DF91CF911F910F91FF90EF9008951A8260
:1059E00019822883309711F0D283C1830196FE017A
:1059F000C00FD11FEACFCF92DF92EF92FF920F93A9
:105A00001F93CF93DF930EEB16E00C7F43E050E043
:105A100065E872E08BE892E01CD485E8E82E82E02D
:105A2000F82E9BE8C92E92E0D92ECDE3D7E0D7011E
:105A30004D915D917D01F601619171916F01198325
:105A400008835D834C835B834A837F836E839B01E2
:105A50002F5F3F4F249FC001259F900D349F900DD5
:105A60001124998788870115110511F0C80192DF6B
:105A700088859985080F191F2A96FBE8EF16F2E032
:105A8000FF06A9F6E3EAF5E088E191E0DF019C0179
:105A90001D9221503040E1F71092A2051092A1050D
:105AA00010925C0710925B071092600710925F07DC
:105AB00010925E0710925D071092620710926107C4
:105AC00010926407109263071092660710926507A0
:105AD00010926A0710926907109268071092670780
