:10000000FAC000000C942C200C9457200C948220F1
:100010000C94AD200C94D8200C9403210C942E2128
:100020000C94592165C4000006C5000040C50000BD
:1000300013C1000011C100000FC100000DC100007C
:100040000BC1000009C1000007C1000005C100008C
:1000500003C1000001C10000FFC000000C94842116
:10006000FBC000000C942E250C946425F5C0000004
:10007000F3C00000F1C00000EFC00000EDC00000C0
:10008000EBC00000E9C00000E7C00000E5C00000D0
:100090000C94BA250C94F025DFC000000C94710A72
:1000A000DBC00000D9C00000D7C00000D5C00000F0
:1000B000D3C00000D1C00000CFC00000CDC0000000
:1000C000CBC00000C9C000000C94B51C0C9446269F
:1000D0000C947C26C1C000000C94D2260C940827F6
:1000E000BBC0000000000A0B02090C0D0E0807033C
:1000F00004010000000000000000000000000000FB
:1001000000000000000000000000000000000000EF
:1001100012111000000000000000000000000000AC
:100120000000000000000000000001021020200874
:100130000810204010204080020102010804020142
:1001400001020408102040808040201008040201B1
:10015000800402018040201008040201080402010A
:100160000102040810204080010204081020408091
:1001700005050505070508080808020202020A0A23
:100180000808040404040101010101010101030341
:10019000030303030303040707070C0C0C0C0C0CEC
:1001A0000C0C0202020206060606060606060B0BE9
:1001B0000B0B0B0B0B0B00002200250028002B0063
:1001C0002E003100340002010000050108010B017E
:1001D00000002100240027002A002D0030003300F9
:1001E00001010000040107010A01DF07980D8D25B8
:1001F0001926A526312711241FBECFEFD1E2DEBF7D
:10020000CDBF00E00CBF14E0A0E0B2E0ECE6F4E506
:1002100000E00BBF02C007900D92A636B107D9F7D8
:1002200029E0A6E6B4E001C01D92AF33B207E1F7C2
:1002300010E0CBEFD0E000E006C021970109802F4D
:10024000FE010E94B629C53FD10780E00807A9F743
:100250000E94251D0C94342AD3CE882311F18230BC
:1002600071F08330A9F08130E1F426E030E040E81D
:1002700055E260E070E081E090E00C945F1C26E0C5
:1002800030E040E855E260E070E082E090E0F5CFD9
:1002900026E030E040E855E260E070E083E090E086
:1002A000ECCF08952F923F924F925F926F927F9280
:1002B0008F929F92AF92BF92CF92DF92EF92FF9276
:1002C0000F931F93CF93DF931F92CDB7DEB72B0110
:1002D0003A01D02EE9829C2DCA2CF401EF88F88CCB
:1002E000998C6A8D7B8D4C8D843008F0EBC1823007
:1002F00051F0833009F456C0813049F431E8232E9F
:1003000036E0332E04C0AEE12A2EA7E03A2E30E0CC
:100310002830310511F424E030E0269D5001279D5E
:10032000B00C369DB00C11240AE010E0992351F076
:1003300000E110E0913031F008E010E0923011F06F
:1003400002E010E08111E1C0D11031C061157105EA
:1003500029F050E084EE95E00E945E27A501B201ED
:1003600084EE95E00E945E27E114F10409F4AAC12D
:10037000492D50E0B70184EE95E00F90DF91CF91C9
:100380001F910F91FF90EF90DF90CF90BF90AF90B3
:100390009F908F907F906F905F904F903F902F90A5
:1003A0000C945E275BEB252E57E0352EB0CFBF01B6
:1003B00084EE95E00E949A278981873008F082C1F7
:1003C000E82FF0E08827E851FE4F8F4F0C94B629B4
:1003D00007021A022E0244025A026E02EF01AC2CEE
:1003E000B12CE1E06E1A710808F46CC1D2014D9194
:1003F0005D916D917D912D01B1E0950184EE95E0C7
:10040000DB1280C00E948329ECCF0E9472286A947C
:10041000AFEF6A1609F456C1F20161912F01F1E0C4
:10042000A80184EE95E0DF12F0CF0E946C28EFCF98
:100430000E9487286A948FEF681609F443C1D2019D
:100440006D917D912D01B1E0A80184EE95E0DB1264
:10045000EFCF0E948228EECF0E9497286A94EFEF98
:100460006E1609F42FC1D2014D915D916D917D9170
:100470002D01B1E0980184EE95E0DB12EDCF0E94F2
:100480006028ECCF0E9440286A94EFEF6E1609F4C2
:1004900019C1D2016D912D01062E000C770BB1E030
:1004A000A80184EE95E0DB12EDCF0E943A28ECCF54
:1004B0000E9440286A94EFEF6E1609F403C1D2013E
:1004C0006D917D912D01B1E0A80184EE95E0DB12E4
:1004D000EFCF0E943A28EECF0E9450286A94EFEFA7
:1004E0006E1609F4EFC0D2014D915D916D917D9131
:1004F0002D01B1E0980184EE95E0DB12EDCF0E9472
:10050000F527ECCF0E9484296CCFD11038C061153B
:10051000710549F050E0D101ED91FC910280F38129
:10052000E02DC1011995D101ED91FC910280F3817B
:10053000E02DA501B201C1011995E114F10409F4FE
:10054000C1C0492D50E0D101ED91FC910280F381B1
:10055000E02DB701C1010F90DF91CF911F910F9155
:10056000FF90EF90DF90CF90BF90AF909F908F90D3
:100570007F906F905F904F903F902F901994BF01A4
:10058000C1010E949A27B981B73008F09BC0EB2FB8
:10059000F0E08827E153FD4F8F4F0C94B629ED0210
:1005A000FF02120327033B034D03D602AC2CB12CF0
:1005B000E1E06E1A710808F485C0D2014D915D9199
:1005C0006D917D912D01B1E09501C101DB1277C0E4
:1005D0000E948329EDCF0E9472286A94EFEF6E1675
:1005E00009F470C0D2016D912D01B1E0A801C101E3
:1005F000DB12F1CF0E946C28F0CF0E9487286A940A
:10060000EFEF6E1609F45EC0D2016D917D912D0160
:10061000B1E0A801C101DB12F0CF0E948228EFCF28
:100620000E9497286A94EFEF6E1609F44BC0D2012E
:100630004D915D916D917D912D01B1E09801C101C8
:10064000DB12EECF0E946028EDCF0E9440286A9412
:10065000EFEF6E16B9F1D2016D912D01062E000C4F
:10066000770BB1E0A801C101DB12EFCF0E943A285D
:10067000EECF0E9440286A94EFEF6E1619F1D20176
:100680006D917D912D01B1E0A801C101DB12F1CF87
:100690000E943A28F0CF0E9450286A94EFEF6E161D
:1006A00089F0D2014D915D916D917D912D01B1E067
:1006B0009801C101DB12EFCF0E94F527EECF0E9417
:1006C000842976CF0F90DF91CF911F910F91FF90EA
:1006D000EF90DF90CF90BF90AF909F908F907F90E2
:1006E0006F905F904F903F902F9008959CB1892F0D
:1006F000807294FF16C0811116C080916A04909197
:100700006B04A0916C04B0916D040196A11DB11D04
:1007100080936A0490936B04A0936C04B0936D046F
:1007200008958111EACF80916A0490916B04A091A1
:100730006C04B0916D040197A109B109E9CF99B199
:10074000892F847093FF16C08823B1F080917804BC
:1007500090917904A0917A04B0917B040196A11D37
:10076000B11D8093780490937904A0937A04B09398
:100770007B040895882351F3809178049091790443
:10078000A0917A04B0917B040197A109B109E9CF46
:100790008CB190E09C01220F232F221F330B86FF88
:1007A00016C08091860490918704A0918804B0912E
:1007B0008904232BB9F40196A11DB11D80938604F1
:1007C00090938704A0938804B0938904089580913E
:1007D000860490918704A0918804B0918904213007
:1007E000310549F30197A109B109E8CF9CB1892FDF
:1007F000807195FF16C08823B1F080916A049091B2
:100800006B04A0916C04B0916D040196A11DB11D03
:1008100080936A0490936B04A0936C04B0936D046E
:100820000895882351F380916A0490916B04A091FC
:100830006C04B0916D040197A109B109E9CF99B198
:10084000892F887092FF16C0811116C0809178049C
:1008500090917904A0917A04B0917B040196A11D36
:10086000B11D8093780490937904A0937A04B09397
:100870007B0408958111EACF8091780490917904E6
:10088000A0917A04B0917B040197A109B109E9CF45
:100890008CB190E086FB222720F930E0880F892F69
:1008A000881F990B0197B1F4809186049091870479
:1008B000A0918804B0918904232BB1F00196A11D69
:1008C000B11D8093860490938704A0938804B0930D
:1008D000890408958091860490918704A0918804EA
:1008E000B0918904232B51F30197A109B109E9CFF4
:1008F0001F920F920FB60F9211242F933F934F9395
:100900005F938F939F93AF93BF9383B121E030E0C8
:10091000982F907285FD02C030E020E080744091F5
:10092000AA045091AB044217530709F062C021E0BA
:1009300030E0811102C030E020E03093A904209320
:10094000A804882309F1911121C08091A2049091FB
:10095000A304A091A404B091A5040196A11DB11D0A
:100960008093A2049093A304A093A404B093A5043D
:100970008091A2049091A304A091A404B091A50435
:100980000196A11DB11D20C09111DFCF8091A2045D
:100990009091A304A091A404B091A5040197A1098A
:1009A000B1098093A2049093A304A093A404B093EC
:1009B000A5048091A2049091A304A091A404B091F5
:1009C000A5040197A109B1098093A2049093A304FF
:1009D000A093A404B093A504BF91AF919F918F9170
:1009E0005F914F913F912F910F900FBE0F901F90ED
:1009F00018953093AB042093AA04992371F08823AF
:100A000071F08091A2049091A304A091A404B091EC
:100A1000A5040196A11DB11DC4CF882391F3809137
:100A2000A2049091A304A091A404B091A5040197FD
:100A3000A109B10995CF1F920F920FB60F92112401
:100A40008F939F93AF93BF93809106018170909194
:100A5000030190FF1EC081111EC0809194049091EB
:100A60009504A0919604B09197040196A11DB11D23
:100A70008093940490939504A0939604B093970464
:100A8000BF91AF919F918F910F900FBE0F901F90CC
:100A900018958111E2CF8091940490919504A091D2
:100AA0009604B09197040197A109B109E1CF1F9273
:100AB0000F920FB60F9211248F939F93AF93BF9312
:100AC0008091030181709091060190FF1EC08823E0
:100AD000F1F08091940490919504A0919604B091C6
:100AE00097040196A11DB11D8093940490939504E1
:100AF000A0939604B0939704BF91AF919F918F916B
:100B00000F900FBE0F901F901895882311F38091BE
:100B1000940490919504A0919604B0919704019744
:100B2000A109B109E1CF0F931F93CF93DF938C01FC
:100B30008EE0809FE001819FD00D1124CA59DB4FC8
:100B4000798368835B834A838881998160E00E940E
:100B50009B238A819B8160E00E949B2388819981ED
:100B600061E00E94D7238A819B8161E00E94D723A4
:100B70000230110509F487C064F40115110501F173
:100B80000130110509F450C0DF91CF911F910F91F1
:100B900008950330110509F4A5C004301105A1F72B
:100BA0008091680081608093680080916B00806212
:100BB00080936B0080916B00806480936B00E4CF26
:100BC000809166049091670402978431910530F515
:100BD000835E9B4FFC018081082E000C990B41E045
:100BE00050E066E773E00E94B21F80916804909124
:100BF0006904029784319105A0F4835E9B4FFC0148
:100C00008081082E000C990B41E050E066EF73E004
:100C1000DF91CF911F910F910C94B21F8FEF9FEF37
:100C2000DECF8FEF9FEFF0CF809174049091750429
:100C300002978431910508F5835E9B4FFC0180810A
:100C4000082E000C990B41E050E06FE174E00E9427
:100C5000B21F8091760490917704029784319105B8
:100C600078F4835E9B4FFC018081082E000C990B69
:100C700041E050E06FE973E0CBCF8FEF9FEFE3CF20
:100C80008FEF9FEFF5CF80918204909183040297BC
:100C90008431910508F5835E9B4FFC018081082E0D
:100CA000000C990B41E050E068EC73E00E94B21F29
:100CB000809184049091850402978431910578F4A1
:100CC000835E9B4FFC018081082E000C990B41E054
:100CD00050E068E474E09CCF8FEF9FEFE3CF8FEF9D
:100CE0009FEFF5CF809168008460809368008091C9
:100CF000680082608093680080916D0081608093BD
:100D00006D0080916C00826080936C003DCF2EE07E
:100D1000269FF001279FF00D1124EA59FB4F6481B3
:100D2000758186819781089590E080E00895809193
:100D3000E0049091E104891B990B08959091E104DE
:100D40008091E0042FEF3FEF981748F4E92FF0E08F
:100D5000EE51FB4F208130E09F5F9093E104C90189
:100D60000895E091E1048091E004E81730F4F0E0A8
:100D7000EE51FB4F808190E008958FEF9FEF089533
:100D80000895CF93DF93EC01E091B804F091B9049A
:100D90003097F1F09091E1048091E0049817C0F051
:100DA00090E0292F30E02617370754F4DE01A20F18
:100DB000B31F4C912E513B4FD9014C939F5FF1CF04
:100DC0001092E1046093E004CB01DF91CF9119947C
:100DD000DF91CF910895E091BA04F091BB04309770
:100DE00029F01092BE041092BD0419940895CF9377
:100DF000DF931F92CDB7DEB769832091BC04222315
:100E0000F9F02091BD04203258F021E030E0FC01DF
:100E10003383228390E080E00F90DF91CF9108959B
:100E20008091BE04E82FF0E0E154FB4F998190835C
:100E30008F5F8093BE048093BD0481E090E0ECCF8F
:100E400061E0CE010196F7D0F8CFCF92DF92EF921A
:100E5000FF920F931F93CF93DF937C01CB018A0105
:100E60002091BC04222389F0EB016B01C40ED51E36
:100E7000CC15DD0561F06991D701ED91FC910190F0
:100E8000F081E02DC7011995F3CF642FD4D0C801AC
:100E9000DF91CF911F910F91FF90EF90DF90CF9056
:100EA00008951092E1041092E0041092BE04109292
:100EB000BD0496D08BEE96E0EAD081EC96E0E2C0DD
:100EC00081E08093BC046093DF041092BE04109212
:100ED000BD0408950F93062F21E04091BD046FEBF0
:100EE00074E08091DF04D5D11092BE041092BD044D
:100EF0001092BC040F9108954F925F926F927F926F
:100F0000AF92BF92CF92EF92FF920F931F93CF9326
:100F1000DF935C01F62ED42F28013901EE2009F170
:100F2000CFDFCE2DC43008F0C3E0C150B8F028E0C8
:100F3000C29FC0011124A301920104C05695479598
:100F4000379527958A95D2F7B901D501ED91FC9196
:100F50000190F081E02DC5011995E7CF60E0C50152
:100F6000B9DF4D2FD13208F040E22C2D62EE74E053
:100F70008F2DACD01092E1048093E004DF91CF91EB
:100F80001F910F91FF90EF90CF90BF90AF907F9007
:100F90006F905F904F900895CF92EF920F931F93B1
:100FA000C22EE12C00E010E09801A6DF1F910F9106
:100FB000EF90CF90089521E0EFCF61E08BCFECEA86
:100FC000F4E01382128288EE93E0A0E0B0E0848324
:100FD0009583A683B78385E394E091838083089506
:100FE0001092750581E0809373051092720561E09F
:100FF00084E10E94D72361E085E10E94D723E9EBD9
:10100000F0E080818E7F808380818D7F808388E483
:101010008093B80085E48093BC000895ECEBF0E089
:1010200080818A7B808360E084E10E94D72360E036
:1010300085E10C94D72320912405260F3327331FF5
:1010400021323105ECF420917505FC0190E080E03F
:10105000243069F082E00895A09124052191AC012B
:101060004A5D5A4FA40FB52FB11D2C9301968617D8
:1010700098F380912405680F6093240580E008951B
:1010800081E0089590936905809368050895909391
:101090006B0580936A05089585EC8093BC001092DF
:1010A00075050895CF93DF9391E090936D058823A4
:1010B00051F0C091B800D091BA00B0DF91DFD09369
:1010C000BA00C093B800DF91CF9108954F925F921C
:1010D0006F927F928F929F92AF92BF92CF92DF9248
:1010E000EF92FF920F931F93CF93DF93D82F162F7A
:1010F000072FC42FB22E413208F0A2C00E94DA217D
:101100006B017C0180917505811176C081E080932F
:101110007505B09273059FEF9093020510924705F5
:101120009C0F909346058093740580917405DD0FA4
:10113000D82BD093740580917205813009F082C05C
:10114000109272050E94DA216B017C018091740576
:101150008093BB0080916E0590916F05A091700502
:10116000B0917105892B8A2B8B2BA1F00E94DA217B
:1011700080906E0590906F05A0907005B0907105FD
:101180006C197D098E099F0986169706A806B9066F
:1011900008F453C08091BC0083FDD8CF85EC8093C8
:1011A000BC000E94DA216B017C01809175058130C1
:1011B00009F44AC0809147058C1710F4C091470587
:1011C000A8E4B5E0912FE12FF02F8E2F891B8C170B
:1011D00008F45CC08C2FDF91CF911F910F91FF908D
:1011E000EF90DF90CF90BF90AF909F908F907F90C7
:1011F0006F905F904F90089580916E0590916F056C
:10120000A0917005B0917105892B8A2B8B2B09F465
:1012100079CF0E94DA2140906E0550906F05609062
:101220007005709071056C197D098E099F0946162D
:1012300057066806790608F065CF80916C0532DFA5
:10124000C0E0C8CF85EEABCF80916E0590916F0561
:10125000A0917005B0917105892B8A2B8B2B09F415
:10126000A4CF0E94DA2180906E0590906F05A09027
:101270007005B09071056C197D098E099F0986165D
:101280009706A806B90608F090CFD7CF8D91819325
:101290009CCF4F925F926F927F928F929F92AF926C
:1012A000BF92EF92FF920F931F93CF93DF93413240
:1012B00008F0D8C0F22ED42FE72E162FC82F0E9488
:1012C000DA214B015C0180917505811170C082E0CB
:1012D00080937505009373058FEF8093020510923C
:1012E0004705D0934605912FA8E4B5E0E12FFE2DE8
:1012F0008E2F891B8D1708F48EC010927405809173
:101300007405CC0FC82BC093740580917205813091
:1013100009F084C0109272050E94DA214B015C0131
:10132000809174058093BB0080916E0590916F054C
:10133000A0917005B0917105892B8A2B8B2BA1F0A0
:101340000E94DA2100916E0510916F0520917005C1
:1013500030917105681979098A099B0906171707E1
:101360002807390708F444C08091BC0083FDD8CF1A
:1013700085EC8093BC000E94DA214B015C01FF20C8
:1013800029F080917505823009F44AC080910205E8
:101390008F3F09F469C080910205803209F466C06C
:1013A00080910205803309F463C084E025C08091F8
:1013B0006E0590916F05A0917005B0917105892B14
:1013C0008A2B8B2B09F47FCF0E94DA2140906E0587
:1013D00050906F05609070057090710568197909DB
:1013E0008A099B09461657066806790608F06BCFEE
:1013F00080916C0557DE85E0DF91CF911F910F91B1
:10140000FF90EF90BF90AF909F908F907F906F90E4
:101410005F904F90089581918D936ACF85EEA9CF0B
:1014200080916E0590916F05A0917005B091710546
:10143000892B8A2B8B2B09F4A2CF0E94DA210091F1
:101440006E0510916F052091700530917105681936
:1014500079098A099B09061717072807390708F031
:101460008ECFC6CF81E0C8CF80E0C6CF82E0C4CFA8
:1014700083E0C2CF85ED8093BC0080916E05909192
:101480006F05A0917005B09171050796A11DB11D62
:1014900023E0B695A795979587952A95D1F7209142
:1014A000BC0024FD03C010927505089540916E059F
:1014B00050916F056091700570917105452B462B19
:1014C000472B69F30097A105B10541F025E32A9563
:1014D000F1F700000197A109B109E1CF80916C05F6
:1014E000E1CD1F920F920FB60F9211240BB60F92FF
:1014F0002F933F934F935F936F937F938F939F931C
:10150000AF93BF93EF93FF938091B900887F8036AC
:1015100009F44CC008F03FC0883209F4A8C028F58F
:10152000803109F49CC0C8F4882309F4F8C08830DD
:1015300009F495C0FF91EF91BF91AF919F918F9169
:101540007F916F915F914F913F912F910F900BBEC3
:101550000F900FBE0F901F901895883109F487C027
:10156000803241F78093020514C0803409F49CC096
:1015700040F48033B9F38833E9F6809302058CDDBB
:10158000D9CF803509F484C0883509F495C08834F2
:1015900089F670DFCFCF883909F48CC038F58837E9
:1015A00029F050F4883611F0803721F683E08093DB
:1015B00075051092030557C0883809F47BC080393F
:1015C00019F0803809F0B6CF80910305803208F019
:1015D00071C0E091030581E08E0F80930305809137
:1015E000BB00F0E0EC5FFA4F80833DC0803B39F0F8
:1015F000E0F4803A09F479C0883A09F09BCF84E09E
:10160000809375051092250510922405E0916A05D6
:10161000F0916B0519958091240581110FC081E02F
:10162000809324051092260509C0803C09F475C0FA
:10163000883C09F472C0883B09F07CCFE091250515
:1016400081E08E0F80932505F0E0EA5DFA4F8081FE
:101650008093BB00909125058091240529C080913D
:1016600074058093BB0085EC8093BC0063CF9091A0
:10167000470580914605981758F5E091470581E0A8
:101680008E0F80934705F0E0E85BFA4F8081E9CF49
:10169000E091470581E08E0F809347058091BB0064
:1016A000F0E0E85BFA4F8083909147058091460512
:1016B0009817C8F285E8D8CFE091470581E08E0FF2
:1016C000809347058091BB00F0E0E85BFA4F808390
:1016D0008091730581115DCF81E08093720584EA6A
:1016E0008093BC001092750525CFD6DC8091030550
:1016F000803230F4E0910305F0E0EC5FFA4F1082A5
:101700006091030570E0E0916805F091690584E05F
:1017100095E01995109203050DCF85ECE1CF10925D
:10172000020537CFFF920F931F93CF93DF93C62FFE
:10173000042FF22E132F682F8CEA94E0C1DB6C2F5C
:101740008CEA94E054DBCF2DD12F0C0F1D2F111DEF
:10175000C017D10729F069918CEA94E048DBF8CFF3
:101760008CEA94E02ADC91E0811190E0892FDF91EE
:10177000CF911F910F91FF900895CF93DF931F9208
:10178000CDB7DEB749839E012F5F3F4F41E0CADFEF
:101790000F90DF91CF9108952F923F924F925F92D9
:1017A0006F927F928F929F92AF92BF92CF92DF9271
:1017B000EF92FF920F931F93CF93DF9300D0CDB79B
:1017C000DEB7E82E69834B8369010E94CE214B016D
:1017D0005C01F12C1A822B81222E312C2801712CD4
:1017E000612C8B81F81608F044C06E2D8CEA94E0D1
:1017F00067DB69818CEA94E0FADA8CEA94E0DDDB5D
:101800006E2D8CEA94E05CDBA1014F195109413245
:10181000510514F040E250E06E2D8CEA94E0CBDBF1
:101820008CEA94E084DA892BD9F00115110569F46A
:101830008CEA94E083DAF6019A81E90FF11D97FDB5
:10184000FA9580839F5F9A83EBCF0E94CE2168191F
:1018500079098A099B09641575058605970540F382
:101860008CEA94E0AADB8B81813208F080E2F80EEA
:10187000B8CF01151105C1F00E94CE216819790970
:101880008A099B0930E020E06017710782079307FF
:1018900058F02A81822F220F990B2B8128171906C5
:1018A00019F014F08FEF8A838A810F900F900F90B8
:1018B000DF91CF911F910F91FF90EF90DF90CF902C
:1018C000BF90AF909F908F907F906F905F904F9060
:1018D0003F902F9008950F931F9389019A0141E043
:1018E0005BDF1F910F910895EF92FF920F931F936B
:1018F000CF93DF931F92CDB7DEB7182F062FE42EBC
:10190000F22E2091000230910102AE014F5F5F4F35
:10191000E2DF81E090E001C0880FEA94EAF74981B4
:10192000FF2069F0482B4983602F812F26DF0F901D
:10193000DF91CF911F910F91FF90EF9008958095C7
:101940004823F1CFDF92EF92FF920F931F93CF9333
:10195000DF931F92CDB7DEB7F82EE62E142FD22ECE
:101960002091000230910102AE014F5F5F4FB3DF63
:10197000882351F1812F8D19990BAC014F5F5F4F77
:1019800081E090E002C0880F991FDA94E2F7019796
:10199000042E01C0880F0A94EAF701C0000F4A958F
:1019A000EAF7482F4095998149238023482B4983A2
:1019B0006E2D8F2DE2DE0F90DF91CF911F910F9151
:1019C000FF90EF90DF90089580E0F5CF28E6FC01CE
:1019D000208308950F93062F23E042E06AE1FC0183
:1019E0008081B0DF0F9108950F93062F22E044E02D
:1019F0006BE1FC018081A6DF0F9108950F93062F04
:101A000022E044E06CE1FC0180819CDF0F910895AD
:101A10000F931F93CF93DF93EC010091000210917D
:101A200001029C012F5F3F4F42E063E48881B4DEF6
:101A300089819A81982789279827DF91CF911F91D3
:101A40000F9108950F931F93CF93DF93EC010091B3
:101A50000002109101029C012F5F3F4F42E065E4BC
:101A600088819ADE89819A81982789279827DF9132
:101A7000CF911F910F9108950F931F93CF93DF93F1
:101A8000EC0100910002109101029C012F5F3F4F79
:101A900042E067E4888180DE89819A8198278927DE
:101AA0009827DF91CF911F910F910895262F46E03F
:101AB0006BE6FC01808118CF0F93062F23E042E0F4
:101AC0006BE6FC0180813EDF0F910895CF93DF9399
:101AD000EC0161E0F1DF60E0CE0186DF60E0CE0185
:101AE0008DDF60E0CE01DF91CF91E0CFCF93C82FA3
:101AF0008CEA94E0D6D96C2F86E795E06BDF86E719
:101B000095E0CF91E3CFCF93DF93EC0186E795E0AB
:101B10007FDF9983888386E795E094DF9B838A83C0
:101B200086E795E0A9DF9D838C83DF91CF910895AF
:101B300086E795E04BCF611102C00C949B23613086
:101B4000E1F362E0FACF662319F061E00C94D72349
:101B500060E0FCCFCF93282F8823E1F0CB01BA01BE
:101B6000CFEFC20FEC2FF0E0EB57FA4F208121307E
:101B700059F490580E94CB1D9B01AC016C2F70E072
:101B800090E080E0CF91A2C00E94C61D8C2FCF9123
:101B90000C946122CF9108950F931F938B019C01A8
:101BA00083E036952795179507958A95D1F70553C4
:101BB0001A4F462F477021E030E0F90102C0EE0FC6
:101BC000FF1F4A95E2F7AF01F80120812423CB01E2
:101BD0000196211102C090E080E01F910F910895BD
:101BE0000F931F938B019C0183E0369527951795E2
:101BF00007958A95D1F7677081E090E001C0880F62
:101C00006A95EAF7F801E553FA4F2081452B31F444
:101C10008095822380831F910F910895822BFACFA4
:101C20004F925F926F927F928F929F92AF92BF92EC
:101C3000CF92DF92EF92FF920F931F93CF93DF9398
:101C40004B015C0129013A01670161E0882D0E9486
:101C50009B23E4012196AE01C501B401C1DF20E060
:101C600030E0A901C801B6010E944A1F18168CF481
:101C7000F401EB57FA4F81E08083C801B6010E945E
:101C8000CB1D6B01C301B2010E94CB1DA601C40193
:101C900021D0CE01DF91CF911F910F91FF90EF9056
:101CA000DF90CF90BF90AF909F908F907F906F907C
:101CB0005F904F900895882341F08150682F70E025
:101CC00090E080E050E040E08BCF0895862FB9018E
:101CD0000C9461229C01FC01EC51FF4FE491E15016
:101CE000E231E0F4F0E08827E758F14F8F4F0C9491
:101CF000B6298B0E920E950EAC0EC10E8E0ED60E20
:101D0000E20EE60EFD0E120F270F3E0F530F8E0E42
:101D1000680F7F0F940F84B5806884BD60E0822FC8
:101D20000C94D72384B58062F8CF809180008C7F9B
:101D300082608093800080918100807E8061682B2A
:101D400060938100509387004093860080918000CB
:101D5000806880938000E2CF809180008C7F8260D9
:101D60008093800080918100807E8061682B6093E9
:101D700081005093870040938600809180008062AC
:101D8000E8CF809180008C7F82608093800080917A
:101D90008100807E8061682B609381005093870072
:101DA00040938600809180008860D3CF8091B000FE
:101DB00080688093B0008091B100887F682B609329
:101DC000B100ACCF8091B0008062F3CF80919000E1
:101DD0008C7F82608093900080919100807E8061F2
:101DE000682B6093910050939700409396008091E8
:101DF000900080688093900091CF809190008C7FBC
:101E000082608093900080919100807E8061682B39
:101E100060939100509397004093960080919000BA
:101E20008062E8CF809190008C7F826080939000E8
:101E300080919100807E8061682B60939100509327
:101E4000970040939600809190008860D3CF809156
:101E5000A0008C7F82608093A0008091A100807E92
:101E60008061682B6093A1005093A7004093A60067
:101E70008091A00080688093A00050CF8091A00046
:101E80008C7F82608093A0008091A100807E806121
:101E9000682B6093A1005093A7004093A600809107
:101EA000A0008062E8CF8091A0008C7F8260809348
:101EB000A0008091A100807E8061682B6093A100CA
:101EC0005093A7004093A6008091A0008860D3CFD4
:101ED000809120018C7F826080932001809121017C
:101EE000807E8061682B609321015093270140938D
:101EF0002601809120018068809320010FCF80917E
:101F000020018C7F82608093200180912101807E5E
:101F10008061682B60932101509327014093260133
:101F2000809120018062E8CF809120018C7F8260C7
:101F30008093200180912101807E8061682B6093D5
:101F40002101509327014093260180912001886050
:101F5000D3CF2F923F924F925F926F927F928F9248
:101F60009F92AF92BF92CF92DF92EF92FF920F9328
:101F70001F93CF93DF93CDB7DEB7E7970FB6F894F3
:101F8000DEBF0FBECDBF61E070E080E090E00E9458
:101F90008706609321097093220980932309909307
:101FA00024090E94F91D20914E0330914F03409166
:101FB0005003509151030E944E1F20913A033091DB
:101FC0003B0340913C0350913D030E944E1F162F4E
:101FD000072F382E292E862F902FA32DB22D8093D8
:101FE000110990931209A0931309B0931409209139
:101FF0005203309153034091540350915503612F84
:10200000702F832D922D0E944E1F6D837E838F83B0
:102010009887609315097093160980931709909318
:1020200018098091940890919508A0919608B09114
:10203000970889839A83AB83BC8320915E03309198
:102040005F034091600350916103BC01CD010E9488
:102050004E1F6EA37FA388A799A760931909709359
:102060001A0980931B0990931C0920919C083091B8
:102070009D0840919E0850919F0860916603709161
:10208000670380916803909169030E944E1F20E0CE
:1020900030E0A9010E945E1D20E030E0A9010E940D
:1020A0005E1D20E030E0A9010E945E1D69877D87EA
:1020B000898B9D8B2091A0083091A1084091A208A6
:1020C0005091A308609182037091830380918403EF
:1020D000909185030E944E1F20E030E0A9010E94EC
:1020E0005E1D20E030E0A9010E945E1D20E030E08E
:1020F000A9010E945E1D6B017C01C0921D09D09256
:102100001E09E0921F09F09220092091A408309145
:10211000A5084091A6085091A70860919E03709170
:102120009F038091A0039091A1030E944E1F20E085
:1021300030E0A9010E945E1D20E030E0A9010E946C
:102140005E1D698F7D8F89A39DA32091A808309182
:10215000A9084091AA085091AB086091BA03709108
:10216000BB038091BC039091BD030E944E1F8984E4
:102170009D84A988BD888092B8089092B908A092E1
:10218000BA08B092BB08C092BC08D092BD08E092D9
:10219000BE08F092BF08C98CDD8CE9A0FDA0C092FA
:1021A000C008D092C108E092C208F092C30820E0B3
:1021B00030E0A9010E945E1D6B017C01C092C40841
:1021C000D092C508E092C608F092C7082091AC08EA
:1021D0003091AD084091AE085091AF086091C603B0
:1021E0007091C7038091C8039091C9030E944E1F4C
:1021F00020E030E0A9010E945E1D2B013C012091EE
:10220000EA023091EB024091EC025091ED02612F15
:10221000702F832D922D0E944E1F4B015C0120E0F8
:1022200030E0A901C301B2010E945E1D9B01AC0117
:10223000C501B4010E945E1D6AA77BA78CA79DA75C
:102240002091B0083091B1084091B2085091B30884
:102250006091DE037091DF038091E0039091E103D0
:102260000E944E1F20E030E0A9010E945E1D20E088
:1022700030E0A9010E945E1D4B015C012091EE023D
:102280003091EF024091F0025091F102612F702FD6
:10229000832D922D0E944E1F9B01AC01C501B401FC
:1022A0000E945E1D6EA77FA788AB99AB2091B408F2
:1022B0003091B5084091B6085091B7086091F60387
:1022C0007091F7038091F8039091F9030E944E1FDB
:1022D00020E030E0A9010E945E1D4B015C012091CD
:1022E000F2023091F3024091F4025091F502612F15
:1022F000702F832D922D0E944E1F9B01AC01C501B2
:10230000B4010E945E1D6AAB7BAB8CAB9DAB46EF0C
:10231000442E42E0542E58EC652E58E0752EA2E073
:10232000B2E0BC8BAB8B5FAA4EAAB4E04B0E511C43
:10233000EEA9FFA920A131A142A153A16EA57FA5BD
:1023400088A999A90E944E1F4B015C01AEA9BFA9A3
:1023500050962D913D914D915C9153976AA57BA527
:102360008CA59DA50E944E1F9B01AC01C501B40127
:102370000E945E1D4B015C01EEA9FFA920A931A9B5
:1023800042A953A96AA97BA98CA99DA90E944E1FA5
:102390009B01AC01C501B4010E945E1D4B015C01B3
:1023A000AEA9BFA92D913D914D915C91612F702FE8
:1023B000832D922D0E944E1F9B01AC01C501B401DB
:1023C0000E945E1DF30161937193819391933F018C
:1023D00086E093E08415950509F0A5CF80910B0464
:1023E000813009F06BC7209190083091910840919D
:1023F0009208509193086D817E818F8198850E940B
:102400005D1D60931D0970931E0980931F099093B1
:102410002009209198083091990840919A0850918C
:102420009B086EA17FA188A599A50E945D1D6B01E7
:102430007C0189809A80AB80BC8020911D093091FD
:102440001E0940911F0950912009609176027091F8
:10245000770280917802909179020E944E1F2B01A1
:102460003C012091720230917302409174025091AC
:102470007502612F702F832D922D0E944E1F9B019C
:10248000AC01C301B2010E945E1D2B013C012091F1
:102490007A0230917B0240917C0250917D02B4011E
:1024A000C5010E944E1F9B01AC01C301B2010E94F5
:1024B0005E1D4B015C0120917E0230917F024091B4
:1024C000800250918102C701B6010E944E1F9B01FC
:1024D000AC01C501B4010E945E1D6B017C016981E4
:1024E0007A818B819C819F7720E030E040E45FE33C
:1024F0000E94C21D87FF18C760E070E080E89FE37C
:10250000A70196010E944E1F362E272E89839D8398
:1025100020E030E040E251E40E945E1D2DEC3CECF6
:102520004CE455E40E944E1F0E94341E60931D0926
:1025300070931E0980931F09909320090E94351CF7
:10254000882309F4F5C610921D0910921E091092F5
:102550001F0910922009C0901D09D0901E09E0901B
:102560001F09F090200920E030E0A901C701B60161
:102570000E94C21D87FFFDC6C701B60190580E9488
:10258000CB1D7195619571097093E9086093EA0814
:1025900020E030E040E251E46091110970911209AD
:1025A00080911309909114090E945E1D2DEC3CEC62
:1025B0004CE455E40E944E1F0E94341E60931D0996
:1025C00070931E0980931F09909320090E94351C67
:1025D000882309F4D2C610921D0910921E09109288
:1025E0001F0910922009C0901D09D0901E09E0908B
:1025F0001F09F090200920E030E0A901C701B601D1
:102600000E94C21D87FFDAC6C701B60190580E941A
:10261000CB1D7195619571097093EB086093EC087F
:1026200020E030E040E251E4609194087091950818
:1026300080919608909197080E945E1D2DEC3CECCD
:102640004CE455E40E944E1F0E94341E60931D0905
:1026500070931E0980931F09909320090E94351CD6
:10266000882309F4AFC610921D0910921E0910921A
:102670001F0910922009C0901D09D0901E09E090FA
:102680001F09F090200920E030E0A901C701B60140
:102690000E94C21D87FFB7C6C701B60190580E94AD
:1026A000CB1D7195619571097093ED086093EE08EB
:1026B00020E030E040E251E469857D8589899D898B
:1026C0000E945E1D2DEC3CEC4CE455E40E944E1F34
:1026D0000E94341E60931D0970931E0980931F0988
:1026E000909320090E94351C882309F490C610920B
:1026F0001D0910921E0910921F0910922009C09006
:102700001D09D0901E09E0901F09F090200920E0DB
:1027100030E0A901C701B6010E94C21D87FF98C61B
:10272000C701B60190580E94CB1D71956195710942
:102730007093EF086093F00820E030E040E251E44D
:10274000698D7D8D89A19DA10E945E1D2DEC3CECC3
:102750004CE455E40E944E1F0E94341E60931D09F4
:1027600070931E0980931F09909320090E94351CC5
:10277000882309F471C610921D0910921E09109247
:102780001F0910922009C0901D09D0901E09E090E9
:102790001F09F090200920E030E0A901C701B6012F
:1027A0000E94C21D87FF79C6C701B60190580E94DA
:1027B000CB1D7195619571097093F1086093F208D2
:1027C00020E030E040E251E46091C8087091C9080F
:1027D0008091CA089091CB080E945E1D2DEC3CECC4
:1027E0004CE455E40E944E1F0E94341E60931D0964
:1027F00070931E0980931F09909320090E94351C35
:10280000882309F44EC610921D0910921E091092D9
:102810001F0910922009C0901D09D0901E09E09058
:102820001F09F090200920E030E0A901C701B6019E
:102830000E94C21D87FF56C6C701B60190580E946C
:10284000CB1D7195619571097093F3086093F4083D
:1028500020E030E040E251E46091D0087091D1086E
:102860008091D2089091D3080E945E1D2DEC3CEC23
:102870004CE455E40E944E1F0E94341E60931D09D3
:1028800070931E0980931F0990932009EED7882327
:1028900009F42CC610921D0910921E0910921F09EE
:1028A00010922009C0901D09D0901E09E0901F09C8
:1028B000F090200920E030E0A901C701B6010E9494
:1028C000C21D87FF34C6C701B60190580E94CB1DB8
:1028D00071956195710980910C048093E80870935B
:1028E000F5086093F60860916E0870916F0880910A
:1028F0007008909171080E94CB1DC62E60916608E9
:102900007091670880916808909169080E94CB1DBA
:10291000E62E60916A0870916B0880916C08909126
:102920006D080E94CB1D062F6091620870916308AC
:1029300080916408909165080E94CB1D6987609121
:102940005E0870915F0880916008909161080E9414
:10295000CB1D862F1F921F921F921F921F921F92B4
:10296000912C812C92E0A92E29854FE050E068EE51
:1029700078E00E9452018091940890919508A0916E
:102980009608B091970889879A87AB87BC87809112
:10299000110990911209A0911309B09114098D8722
:1029A0009E87AF87B88B02EA12E027EF622E28E0FD
:1029B000722E3EEA432E32E0532E0F900F900F906E
:1029C0000F900F900F901A8B098B0C5F1F4FA989E6
:1029D000BA891C962D913D914D915C911F976EA5E2
:1029E0007FA588A999A90E944E1F6B017C01E989E6
:1029F000FA8920813181428153816AA57BA58CA50A
:102A00009DA50E944E1F9B01AC01C701B6010E940B
:102A10005E1D6B017C01D80154962D913D914D9125
:102A20005C9157976AA97BA98CA99DA90E944E1F0A
:102A30009B01AC01C701B6010E945E1D6B017C01C8
:102A4000F80120AD31AD42AD53AD69857A858B85F6
:102A50009C850E944E1F4B015C01D8019C962D91D4
:102A60003D914D915C919F976D857E858F8598896D
:102A70000E944E1F9B01AC01C501B4010E945E1D66
:102A80004B015C01F80120A131A142A153A1632DAA
:102A9000722D89819D810E944E1F9B01AC01C50151
:102AA000B4010E945E1D9B01AC01C701B6010E94EA
:102AB0005E1DD3016D937D938D939D933D014016D3
:102AC000510609F080CFE8EBF8E0FA8BE98B82E55C
:102AD00092E09E8B8D8B8F01C12CD12C760146010B
:102AE0005701D8014D905D906D907D908D01ED89DD
:102AF000FE892081318142815381C301B2010E944C
:102B00004E1F9B01AC01C501B401D8D74B015C013C
:102B1000AD89BE8914962D913D914D915C91179789
:102B2000C301B2010E944E1F9B01AC01C701B60157
:102B3000C5D76B017C01ED89FE893896FE8BED8B44
:102B400088EC98E08017910761F6A50194016D85E6
:102B50007E858F859889B1D74B015C0180920309EE
:102B600090920409A0920509B0920609A701960166
:102B700069857A858B859C85A0D76B017C01C09285
:102B80000709D0920809E0920909F0920A092091F8
:102B90008602309187024091880250918902C501D6
:102BA000B4010E944E1F20E030E0A90187D72B011D
:102BB0003C0120918A0230918B0240918C0250910D
:102BC0008D02C501B4010E944E1F20E030E0A90132
:102BD00075D769877A878B879C8720918E02309181
:102BE0008F024091900250919102C501B4010E9460
:102BF0004E1F20E030E0A90161D76D877E878F8767
:102C0000988B2091820230918302409184025091EE
:102C10008502C501B4010E944E1F20E030E0A901E9
:102C20004DD74B015C01209192023091930240916B
:102C3000940250919502C701B6010E944E1F9B015C
:102C4000AC01C501B4013AD76D8B7E8B8F8B988F09
:102C500020919602309197024091980250919902EA
:102C6000C701B6010E944E1FA301920127D7698FA9
:102C70007A8F8B8F9C8F20919A0230919B0240918A
:102C80009C0250919D02C701B6010E944E1F2985EA
:102C90003A854B855C8512D76D8F7E8F8F8F98A379
:102CA00020919E0230919F024091A0025091A1027A
:102CB000C701B6010E944E1F2D853E854F8558895C
:102CC000FDD669A37AA38BA39CA3C0921D09D092C1
:102CD0001E09E0921F09F09220098D899E89AF8913
:102CE000B88D8093110990931209A0931309B093A2
:102CF00014091D861E861F86188A19861A861B8649
:102D00001C86812C912C540124013501A989BA8992
:102D1000CD90DD90ED90FD90BA8BA98BEB89FC896D
:102D20002081318142815381C701B6010E944E1F2B
:102D30009B01AC01C301B201C1D62B013C01AB899F
:102D4000BC8914962D913D914D915C911797C701C7
:102D5000B6010E944E1F9B01AC01C501B401AED665
:102D60004B015C01EB89FC892085318542855385C7
:102D7000C701B6010E944E1F9B01AC0169857A858F
:102D80008B859C859BD669877A878B879C87AB8947
:102D9000BC891C962D913D914D915C911F97C70167
:102DA000B6010E944E1F9B01AC016D857E858F850B
:102DB000988984D66D877E878F87988BEB89FC896D
:102DC0007096FC8BEB8B89899A890817190709F093
:102DD0009DCFC0921D09D0921E09E0921F09F0926A
:102DE00020092091420230914302409144025091C7
:102DF0004502632D722D89819D810E944E1F2D8970
:102E00003E894F89588D5AD6A301920157D66093B7
:102E1000D8087093D9088093DA089093DB08209142
:102E20004602309147024091480250914902632D79
:102E3000722D89819D810E944E1F298D3A8D4B8D67
:102E40005C8D3CD6A501940139D66093DC08709363
:102E5000DD088093DE089093DF0820914A023091CC
:102E60004B0240914C0250914D02632D722D89818D
:102E70009D810E944E1F2D8D3E8D4F8D58A11ED6D7
:102E800029853A854B855C8519D66093E008709357
:102E9000E1088093E2089093E30820914E0230917C
:102EA0004F024091500250915102632D722D898141
:102EB0009D81F4D729A13AA14BA15CA1FFD52D8515
:102EC0003E854F855889FAD56093E4087093E508EC
:102ED0008093E6089093E7088BE099E00E94830DC9
:102EE00060910B0970910C09072E000C880B990B4F
:102EF00080D64B015C0191E09987232D322D4981C9
:102F00005D8160914A0370914B0380914C039091D5
:102F10004D03C0D718160CF01986698588E00E9409
:102F2000A30D0091460310914703A0914803AD877C
:102F3000B0914903B987232D322D49815D81B801B4
:102F4000CD0120D687FD19C0009102041091030421
:102F5000E0910404ED87F0910504F987232D322DCB
:102F600049815D81B801CF0195D7181634F0032D42
:102F7000122D89818D879D81998766E070E080E0C0
:102F800090E00E94CC0D90938F0880938E08209142
:102F90000604309107044091080450910904B801D7
:102FA0008D8599857BD760D660931D0970931E0926
:102FB00080931F099093200958D4882309F4BBC239
:102FC00010921D0910921E0910921F0910922009DB
:102FD000C0901D09D0901E09E0901F09F0902009B3
:102FE00020E030E0A901C701B601CCD587FFC4C2FB
:102FF000C701B6019058CFD5619570E090E080E0B0
:10300000F8D5AB01BC0180918E0890918F080E9489
:10301000AA0D8091150990911609A0911709B091F8
:1030200018098093900890939108A0939208B09308
:103030009308209136033091370340913803509123
:103040003903C501B40139D52091FE033091FF0346
:10305000409100045091010421D7209156033091F2
:103060005703409158035091590318D72091940861
:103070003091950840919608509197081FD560931C
:103080009408709395088093960890939708809180
:10309000190990911A09A0911B09B0911C098093FC
:1030A000980890939908A0939A08B0939B08209150
:1030B0009C0830919D0840919E0850919F08609116
:1030C0006203709163038091640390916503E6D677
:1030D0002091D8083091D9084091DA085091DB0846
:1030E000EDD460939C0870939D0880939E08909304
:1030F0009F082091A0083091A1084091A20850910A
:10310000A30860917E0370917F038091800390916A
:103110008103C4D62091DC083091DD084091DE089F
:103120005091DF08CBD46093A0087093A1088093DE
:10313000A2089093A3082091A4083091A50840917B
:10314000A6085091A70860919A0370919B03809103
:103150009C0390919D03A2D62091E0083091E10854
:103160004091E2085091E308A9D46093A4087093B9
:10317000A5088093A6089093A7082091A8083091ED
:10318000A9084091AA085091AB086091B6037091CC
:10319000B7038091B8039091B90380D62091E408D9
:1031A0003091E5084091E6085091E70887D4609394
:1031B000A8087093A9088093AA089093AB0820915F
:1031C000AC083091AD084091AE085091AF086091C5
:1031D000C2037091C3038091C4039091C5035ED66E
:1031E0002091F7083091F8084091F9085091FA08B9
:1031F00065D46093AC087093AD088093AE0890934B
:10320000AF082091B0083091B1084091B2085091B8
:10321000B3086091DA037091DB038091DC03909135
:10322000DD033CD62091FB083091FC084091FD085D
:103230005091FE0843D46093B0087093B108809316
:10324000B2089093B3082091B4083091B50840912A
:10325000B6085091B7086091F2037091F303809122
:10326000F4039091F5031AD62091FF0830910009DC
:10327000409101095091020921D46093B4087093E0
:10328000B5088093B6089093B708E7960FB6F89400
:10329000DEBF0FBECDBFDF91CF911F910F91FF9089
:1032A000EF90DF90CF90BF90AF909F908F907F90E6
:1032B0006F905F904F903F902F90089580910A04F7
:1032C000813049F11091C8080091C9083090CA08AE
:1032D0002090CB088091CC089091CD08A091CE0889
:1032E000B091CF0880931D0990931E09A0931F09E8
:1032F000B09320098090D0089090D108A090D20877
:10330000B090D308C090D408D090D508E090D608EB
:10331000F090D70892C8898C9D8CA9A0BDA0198572
:103320000D8539882D8889C860E070E0CB01E8C838
:1033300060911D0970911E0980911F0990912009CB
:103340006BD2811100C960911D0970911E09809195
:103350001F099091200920E030E040E857E49ED416
:1033600060931D0970931E0980931F099093200993
:10337000F2C8C701B6010FD407C960911D09709149
:103380001E0980911F099091200946D2811123C9FD
:1033900060911D0970911E0980911F09909120096B
:1033A00020E030E040E857E479D460931D09709341
:1033B0001E0980931F099093200915C9C701B60102
:1033C000EAD32AC960911D0970911E0980911F09D5
:1033D0009091200921D2811146C960911D097091F7
:1033E0001E0980911F099091200920E030E040E8FB
:1033F00057E454D460931D0970931E0980931F09EC
:103400009093200938C9C701B601C5D34DC9609151
:103410001D0970911E0980911F0990912009FCD10E
:10342000811165C960911D0970911E0980911F0964
:103430009091200920E030E040E857E42FD46093D9
:103440001D0970931E0980931F099093200957C985
:10345000C701B601A0D36CC960911D0970911E0906
:1034600080911F0990912009D7D1811184C9609161
:103470001D0970911E0980911F099091200920E07B
:1034800030E040E857E40AD460931D0970931E09A8
:1034900080931F099093200976C9C701B6017BD399
:1034A0008BC960911D0970911E0980911F0990912F
:1034B0002009B2D18111A7C960911D0970911E091F
:1034C00080911F099091200920E030E040E857E406
:1034D000E5D360931D0970931E0980931F09909393
:1034E000200999C9C701B60156D3AEC960911D091B
:1034F00070911E0980911F09909120098DD1811131
:10350000C9C960911D0970911E0980911F09909190
:10351000200920E030E040E857E4C0D360931D0963
:1035200070931E0980931F0990932009BBC9C7019E
:10353000B60131D3D0C960911D0970911E098091E7
:103540001F099091200968D181113ACD60911D0920
:1035500070911E0980911F099091200920E030E0B0
:1035600040E853E49BD360931D0970931E09809338
:103570001F09909320092CCDC701B6010CD33DCD76
:103580008F929F92AF92BF92DF92EF92FF920F9332
:103590001F93CF93DF9384E090E007D11092D5057D
:1035A0001092D405C8E5D8E080E6FE0111928A9514
:1035B000E9F7812C912C540183948D8E9E8EAF8ED1
:1035C000B8A242E150E063E170E081E090E00E9447
:1035D0009305DD24D394D9A2188289829A82AB8282
:1035E000BC821E821F821886198680E090E0A0E8C7
:1035F000BFE38A879B87AC87BD871E861F86188A94
:10360000198A1A8A1B8A1C8A1D8A1E8A1F8A188E8A
:10361000198E80E00E942D01DD821AA28BA29CA24D
:10362000ADA2BEA290E080E00E94760DDFA218A6B7
:1036300089A69AA6ABA6BCA661E088E00E949B0D75
:10364000DDA618AA89AA9AAAABAABCAAE12CF12CD9
:103650008701A801970166E070E080E090E00E9499
:10366000100E9FAB8EABDDAA80913E0390913F037D
:10367000A0914003B091410388AF99AFAAAFBBAF0F
:1036800080915A0390915B03A0915C03B0915D031C
:103690008CAF9DAFAEAFBFAF80914203909143031B
:1036A000A0914403B09145038093980890939908A2
:1036B000A0939A08B0939B08DF91CF911F910F912F
:1036C000FF90EF90DF90BF90AF909F908F90089504
:1036D00080917408811103C081E080937408809107
:1036E0005808811103C081E08093580880917A08BE
:1036F000811103C081E080937A0880918008811154
:1037000003C081E0809380088091880881112EC0D9
:1037100081E0809388088091890890918A08A0911F
:103720008B08B0918C080197A105B105F9F480913F
:103730008D088823D9F066E070E080E090E00E9478
:10374000CC0D90938F0880938E0840E050E0BA0132
:103750000E94AA0D66E070E080E090E00E94CC0D2F
:1037600090938F0880938E080C945B0E089560E010
:1037700070E080E89FE7089560E070E080E89FE7F0
:10378000089560E070E080E89FEF089560E070E0E9
:1037900080E89FEF089560E070E080EC9FEF08956F
:1037A00060E070E080EC9FEF0895F5DF60933109F1
:1037B000709332098093330990933409F1DF609359
:1037C0002509709326098093270990932809CFDF54
:1037D00060932D0970932E0980932F0990933009DF
:1037E000CBDF6093290970932A0980932B0990936A
:1037F0002C09C7DF60933509709336098093370928
:1038000090933809C3DF6093390970933A09809324
:103810003B0990933C090895CF92DF92EF92FF927B
:10382000CF936B017C01AC019B01609129097091E0
:103830002A0980912B0990912C09A4D1C1E08823F9
:1038400069F0A70196016091390970913A09809158
:103850003B0990913C0996D18111C0E08C2FCF910A
:10386000FF90EF90DF90CF9008950F931F938B01FF
:103870009C010027112720783F770115110520486A
:103880003F4749F4AB01BC016F77772781E0452BB7
:10389000462B472B09F480E01F910F91089508955E
:1038A00026E030E040E052EC61E070E090E080E043
:1038B00006D061E08DE03FD760E08DE078C71092E0
:1038C000D7051092D6058930910508F03BC0FC0160
:1038D0008827E259F34E8F4F0C94B629771C811C30
:1038E0008A1C931C9C1CA31CA61CA91CAF1C81E059
:1038F00090E09093D7058093D60584EE95E00C94E4
:10390000CE2482E090E09093D7058093D60581E89D
:1039100096E0F5CF84E090E09093D7058093D605AC
:103920008EE197E0ECCF88E090E09093D70580930C
:10393000D6058BEB97E0E3CF80E190E09093D7053D
:103940008093D605089580E290E0F8CF80E490E07F
:10395000F5CF80E890E09093D7058093D6058091CD
:10396000D6059091D7059160E9CF1F920F920FB6BF
:103970000F9211240BB60F922F933F934F935F93A7
:103980006F937F938F939F93AF93BF93EF93FF9327
:103990008EE19BEF90932501809324018091D905BE
:1039A0009091DA05019719F461E08DE000D734D0E9
:1039B000FF91EF91BF91AF919F918F917F916F9107
:1039C0005F914F913F912F910F900BBE0F900FBEC3
:1039D0000F901F9018958EE19BEF90932501809397
:1039E0002401A3E7B0E08C918E7F8C93E0E2F1E0BC
:1039F00080818C7F8083E1E2F1E08081877E80831B
:103A000080818360808380818B7F80838C918160C3
:103A10008C93089581E008958091D80591E0980FE6
:103A20009093D805882349F021E030E03093DA05FF
:103A30002093D9058093D805089578940E94A90F02
:103A4000F8948091D8058150F5CFCF93DF931092F1
:103A50003E0910923D09D3D423DFC0914304D09195
:103A60004404198218828CDDF894B5DF28813981ED
:103A700081E0232B09F080E080933D0978947894CD
:103A800080913D09811107C023DEF89490E080E029
:103A9000DF91CF9108952881398181E0232B09F4AA
:103AA00080E080933E0990913E0981E0911180E091
:103AB00080933D09AFDFF3DEE3CF5058BB27AA2741
:103AC0000ED097C188D130F08DD120F031F49F3FD6
:103AD00011F41EF47DC10EF4E095E7FB4AC1E92F15
:103AE00099D180F3BA17620773078407950718F016
:103AF00071F49EF5C8C10EF4E0950B2EBA2FA02DDF
:103B00000B01B90190010C01CA01A0011124FF278A
:103B1000591B99F0593F50F4503E68F11A16F04085
:103B2000A22F232F342F4427585FF3CF4695379584
:103B30002795A795F0405395C9F77EF41F16BA0B49
:103B4000620B730B840BBAF09150A1F0FF0FBB1FF7
:103B5000661F771F881FC2F70EC0BA0F621F731F40
:103B6000841F48F4879577956795B795F7959E3F9D
:103B700008F0B3CF9395880F08F09927EE0F97952B
:103B800087950895D2D008F481E0089504D0689410
:103B9000B1117AC1089546D188F09F5790F0B92F9E
:103BA0009927B751A0F0D1F0660F771F881F991F92
:103BB0001AF0BA95C9F712C0B13081F064D1B1E002
:103BC000089561C1672F782F8827B85F39F0B93F12
:103BD000CCF3869577956795B395D9F73EF4909594
:103BE0008095709561957F4F8F4F9F4F0895E89412
:103BF00009C097FB3EF490958095709561957F4F35
:103C00008F4F9F4F9923A9F0F92F96E9BB279395E2
:103C1000F695879577956795B795F111F8CFFAF4F2
:103C2000BB0F11F460FF1BC06F5F7F4F8F4F9F4F23
:103C300016C0882311F096E911C0772321F09EE881
:103C4000872F762F05C0662371F096E8862F70E0E7
:103C500060E02AF09A95660F771F881FDAF7880FC1
:103C60009695879597F90895F7D080F09F3740F49F
:103C700091110EF009C160E070E080E89FEB0895BB
:103C800026F41B16611D711D811D79C093C0A3D040
:103C900018F011F0A7D038F49BC0F6C0E92FBAD0C5
:103CA000B0F35523C9F3E7FB621773078407950741
:103CB000A8F199F3E92FFF2788232AF03197660F9F
:103CC000771F881FDAF7952F5527442332F091503C
:103CD0005040220F331F441FD2F7BB27E91BF50BBF
:103CE000621B730B840BB109C1F222F4620F731FC4
:103CF000841FB11D31972AF0660F771F881FBB1FE5
:103D0000EFCF915050405AF041F0882332F0660FC7
:103D1000771F881F91505040C1F793954BC08695EF
:103D2000779567959F5FD9F7F8CF990F0008550FE2
:103D3000AA0BE0E8FEEF16161706E807F907C0F031
:103D400012161306E407F50798F0621B730B840B39
:103D5000950B39F40A2661F0232B242B252B21F413
:103D600008950A2609F4A140A6958FEF811D811DB3
:103D7000089597F99F6780E870E060E008958823D0
:103D800071F4772321F09850872B762F07C0662394
:103D900011F499270DC09051862B70E060E02AF055
:103DA0009A95660F771F881FDAF7880F9695879583
:103DB00097F908959F3F31F0915020F487957795BA
:103DC0006795B795880F911D9695879597F90895F2
:103DD0009FEF80EC089500240A9416161706180623
:103DE0000906089500240A941216130614060506FF
:103DF0000895092E0394000C11F4882352F0BB0F90
:103E000040F4BF2B11F460FF04C06F5F7F4F8F4FF2
:103E10009F4F089557FD9058440F551F59F05F3F2D
:103E200071F04795880F97FB991F61F09F3F79F0DC
:103E300087950895121613061406551FF2CF46955E
:103E4000F1DF08C0161617061806991FF1CF8695E0
:103E50007105610508940895E5DFA0F0BEE7B91784
:103E600088F4BB279F3860F41616B11D672F782F92
:103E70008827985FF7CF869577956795B11D9395BD
:103E80009639C8F30895E894BB2766277727CB01B6
:103E900097F908954ADF08F48FEF08950BD0A9CF62
:103EA0009ADF28F09FDF18F0952309F062CF90CFBA
:103EB0001124EACFAFDFA0F3959FD1F3950F50E027
:103EC000551F629FF001729FBB27F00DB11D639FCC
:103ED000AA27F00DB11DAA1F649F6627B00DA11D72
:103EE000661F829F2227B00DA11D621F739FB00D18
:103EF000A11D621F839FA00D611D221F749F332788
:103F0000A00D611D231F849F600D211D822F762F20
:103F10006A2F11249F5750408AF0E1F088234AF01D
:103F2000EE0FFF1FBB1F661F771F881F9150504069
:103F3000A9F79E3F510570F01CCFA6CF5F3FECF371
:103F4000983EDCF3869577956795B795F795E79555
:103F50009F5FC1F7FE2B880F911D9695879597F966
:103F600008950895883008F076C0E82FF0E0EE0F4D
:103F7000FF1FE35FFB4F718360838150873008F040
:103F80003DC0E82FF0E08827E753F04E8F4F0C94A8
:103F9000B6290620D01FD81FE41FF11F12201F20B2
:103FA000809169008C7F482B40936900E89A0895BE
:103FB00080916900837F440F551F440F551F482B84
:103FC00040936900E99A0895809169008F7C74E0BC
:103FD000440F551F7A95E1F7482B40936900EA9A00
:103FE0000895809169008F7366E0440F551F6A95AC
:103FF000E1F7482B40936900EB9A089580916A009D
:104000008C7F482B40936A00EC9A089580916A0057
:10401000837F440F551F440F551F482B40936A0060
:10402000ED9A089580916A008F7C24E0440F551F1B
:104030002A95E1F7482B40936A00EE9A0895809103
:104040006A008F7396E0440F551F9A95E1F7482B4D
:1040500040936A00EF9A08951F920F920FB60F9245
:1040600011240BB60F922F933F934F935F936F934F
:104070007F938F939F93AF93BF93EF93FF93E091C1
:104080001104F09112041995FF91EF91BF91AF9136
:104090009F918F917F916F915F914F913F912F9160
:1040A0000F900BBE0F900FBE0F901F9018951F9290
:1040B0000F920FB60F9211240BB60F922F933F93CE
:1040C0004F935F936F937F938F939F93AF93BF9320
:1040D000EF93FF93E0911304F09114041995FF916D
:1040E000EF91BF91AF919F918F917F916F915F9170
:1040F0004F913F912F910F900BBE0F900FBE0F90DD
:104100001F9018951F920F920FB60F9211240BB6A5
:104110000F922F933F934F935F936F937F938F9360
:104120009F93AF93BF93EF93FF93E0911504F091AA
:1041300016041995FF91EF91BF91AF919F918F91C7
:104140007F916F915F914F913F912F910F900BBE97
:104150000F900FBE0F901F9018951F920F920FB6E1
:104160000F9211240BB60F922F933F934F935F93AF
:104170006F937F938F939F93AF93BF93EF93FF932F
:10418000E0911704F09118041995FF91EF91BF91F8
:10419000AF919F918F917F916F915F914F913F91DF
:1041A0002F910F900BBE0F900FBE0F901F90189580
:1041B0001F920F920FB60F9211240BB60F922F93EE
:1041C0003F934F935F936F937F938F939F93AF939F
:1041D000BF93EF93FF93E0910D04F0910E041995B6
:1041E000FF91EF91BF91AF919F918F917F916F91CF
:1041F0005F914F913F912F910F900BBE0F900FBE8B
:104200000F901F9018951F920F920FB60F921124C6
:104210000BB60F922F933F934F935F936F937F93C0
:104220008F939F93AF93BF93EF93FF93E0910F040E
:10423000F09110041995FF91EF91BF91AF919F916B
:104240008F917F916F915F914F913F912F910F903F
:104250000BBE0F900FBE0F901F9018951F920F92DC
:104260000FB60F9211240BB60F922F933F934F93DB
:104270005F936F937F938F939F93AF93BF93EF93CE
:10428000FF93E0911904F0911A041995FF91EF91B1
:10429000BF91AF919F918F917F916F915F914F915E
:1042A0003F912F910F900BBE0F900FBE0F901F905C
:1042B00018951F920F920FB60F9211240BB60F9202
:1042C0002F933F934F935F936F937F938F939F931E
:1042D000AF93BF93EF93FF93E0911B04F0911C0405
:1042E0001995FF91EF91BF91AF919F918F917F9120
:1042F0006F915F914F913F912F910F900BBE0F9057
:104300000FBE0F901F9018951F920F920FB60F922D
:1043100011242F933F938F939F93AF93BF938091DB
:10432000DC059091DD05A091DE05B091DF053091AF
:10433000DB0523E0230F2D3758F50196A11DB11D94
:104340002093DB058093DC059093DD05A093DE05CB
:10435000B093DF058091E0059091E105A091E20521
:10436000B091E3050196A11DB11D8093E0059093E6
:10437000E105A093E205B093E305BF91AF919F9152
:104380008F913F912F910F900FBE0F901F90189516
:1043900026E8230F0296A11DB11DD2CF2FB7F894A6
:1043A0006091DC057091DD058091DE059091DF055F
:1043B0002FBF08953FB7F8948091E0059091E105F3
:1043C000A091E205B091E30526B5A89B05C02F3F5B
:1043D00019F00196A11DB11D3FBFBA2FA92F982F2B
:1043E0008827BC01CD01620F711D811D911D42E026
:1043F000660F771F881F991F4A95D1F70895789403
:1044000084B5826084BD84B5816084BD85B58260D9
:1044100085BD85B5816085BDEEE6F0E08081816077
:104420008083E1E8F0E01082808182608083808177
:1044300081608083E0E8F0E0808181608083E1EB4F
:10444000F0E0808184608083E0EBF0E08081816037
:104450008083E1E9F0E080818260808380818160F7
:104460008083E0E9F0E0808181608083E1EAF0E030
:10447000808182608083808181608083E0EAF0E0D7
:10448000808181608083E1E2F1E0808182608083CD
:10449000808181608083E0E2F1E0808181608083BF
:1044A000EAE7F0E08081846080838081826080839D
:1044B0008081816080838081806880831092C100C8
:1044C00008951F93CF93DF93182FEB0161E033D151
:1044D000209731F460E0812FDF91CF911F9167C168
:1044E000CF3FD10511F461E0F6CFE12FF0E0EC51C0
:1044F000FF4FE491E150E23108F0B2C0F0E08827CC
:10450000EC57FD4D8F4F32C796229E22A322AD223B
:10451000B7223023C122C922D122DB22E522EF2299
:10452000FE220823302312231C23262384B580680F
:1045300084BDC7BDDF91CF911F91089584B580627E
:1045400084BDC8BDF7CF80918000806880938000D3
:10455000D0938900C0938800EDCF80918000806265
:1045600080938000D0938B00C0938A00E3CF80912A
:104570008000886080938000D0938D00C0938C0071
:10458000D9CF8091B00080688093B000C093B30011
:10459000D1CF8091B00080628093B000C093B4000E
:1045A000C9CF80919000806880939000D09399004B
:1045B000C0939800BFCF809190008062809390005C
:1045C000D0939B00C0939A00B5CF809190008860F3
:1045D00080939000D0939D00C0939C00ABCF8091BE
:1045E000A00080688093A0008091A0008F7B8093C2
:1045F000A000D093A900C093A8009CCF8091A000F8
:1046000080628093A000D093AB00C093AA0092CFA9
:104610008091A00088608093A000D093AD00C093EB
:10462000AC0088CF80912001806880932001D093D6
:104630002901C09328017ECF809120018062809360
:104640002001D0932B01C0932A0174CF80912001C7
:10465000886080932001D0932D01C0932C016ACFF4
:10466000C038D1050CF03FCF35CF8150823108F0F2
:1046700059C0E82FF0E08827E05CFC4D8F4F76C6EC
:1046800060236423522358235C23922367236D23E2
:10469000712377237B237F238523892392238D23F3
:1046A00093239723809180008F77809380000895D3
:1046B000809180008F7DF9CF80918000877FF5CF3A
:1046C00084B58F7784BD089584B58F7DFBCF8091AD
:1046D000B0008F778093B00008958091B0008F7DF7
:1046E000F9CF809190008F7780939000089580910A
:1046F00090008F7DF9CF80919000877FF5CF8091DA
:10470000A0008F778093A00008958091A0008F7DF6
:10471000F9CF8091A000877FF5CF809120018F771E
:10472000809320010895809120018F7DF9CF8091A1
:104730002001877FF5CFCF93DF9390E0FC01E65D0A
:10474000FE4F249180599E4FFC0184918823C9F02B
:1047500090E0880F991FFC01E053FE4FA591B491A2
:10476000FC01EA54FE4FC591D49161110DC09FB771
:10477000F8948C91209582238C9388812823288318
:104780009FBFDF91CF910895623051F49FB7F894A5
:104790003C91822F809583238C93E8812E2BEFCF41
:1047A0008FB7F894EC912E2B2C938FBFEACF1F93E9
:1047B000CF93DF93282F30E0F901EC51FF4F849124
:1047C000F901E65DFE4FD491F901E059FE4FC49125
:1047D000CC23A1F0162F811148DFEC2FF0E0EE0F73
:1047E000FF1FEA54FE4FA591B4918FB7F894EC9156
:1047F000111108C0D095DE23DC938FBFDF91CF91DC
:104800001F910895DE2BF8CFFC01918D228D892F09
:1048100090E0805C9F4F821B91098F7399270895C8
:10482000FC01918D828D981731F0828DE80FF11D7A
:10483000858D90E008958FEF9FEF0895FC01918D95
:10484000828D981761F0A28DAE0FBF2FB11D5D96BE
:104850008C91928D9F5F9F73928F90E008958FEF60
:104860009FEF0895FC01538D448D252F30E0842F58
:1048700090E0821B930B541710F0CF960895019788
:104880000895FC01A48DA80FB92FB11DA35ABF4FE5
:104890002C91848D90E001968F739927848FA6893F
:1048A000B7892C93A089B1898C91837080648C9393
:1048B000938D848D981306C00288F389E02D808142
:1048C0008F7D80830895CF93DF93EC01888D8823BB
:1048D000B1F0AA89BB89E889F9898C9185FD03C06B
:1048E000808186FD0CC00FB607FCF7CF8C9185FF49
:1048F000F2CF808185FFEDCFCE01C3DFEACFDF911C
:10490000CF910895EF92FF920F931F93CF93DF9370
:10491000EC0181E0888F9B8D8C8D98131AC0E889FB
:10492000F989808185FF15C09FB7F894EE89FF89CA
:104930006083E889F98980818370806480839FBF68
:1049400081E090E0DF91CF911F910F91FF90EF9068
:104950000895F62E0B8D10E00F5F1F4F0F73112778
:10496000E02E8C8D8E110BC00FB607FCFACFE889B4
:10497000F989808185FFF5CFCE0183DFF2CFEB8D02
:10498000EC0FFD2FF11DE35AFF4FF0829FB7F89413
:104990000B8FEA89FB8980818062D0CFCF92DF9232
:1049A000EF92FF921F93CF93DF93EC016A017B019B
:1049B000122FE889F98982E08083C11481EED8063C
:1049C000E104F10499F060E079E08DE390E0A70163
:1049D0009601AAD4215031094109510956954795AC
:1049E00037952795211580E1380790F0E889F989F6
:1049F000108260E874E88EE190E0A701960194D4FB
:104A00002150310941095109569547953795279508
:104A1000EC85FD853083EE85FF852083188EEC893B
:104A2000FD891083EA89FB89808180618083EA891E
:104A3000FB89808188608083EA89FB898081806826
:104A40008083EA89FB8980818F7D8083DF91CF918C
:104A50001F91FF90EF90DF90CF9008951F920F92DB
:104A60000FB60F9211240BB60F922F938F939F9333
:104A7000EF93FF93E091F405F091F5058081E091CB
:104A8000FA05F091FB0582FD1DC090818091FD0526
:104A90008F5F8F732091FE05821741F0E091FD0535
:104AA000F0E0EC51FA4F958F8093FD05FF91EF9167
:104AB0009F918F912F910F900BBE0F900FBE0F9073
:104AC0001F9018958081F2CF1F920F920FB60F9210
:104AD00011240BB60F922F933F934F935F936F93D5
:104AE0007F938F939F93AF93BF93EF93FF9384EE46
:104AF00095E0C7DEFF91EF91BF91AF919F918F91AC
:104B00007F916F915F914F913F912F910F900BBECD
:104B10000F900FBE0F901F901895E4EEF5E01382F2
:104B2000128288EE93E0A0E0B0E084839583A683B0
:104B3000B78389E494E09183808385EC90E0958746
:104B4000848784EC90E09787868780EC90E0918B57
:104B5000808B81EC90E0938B828B82EC90E0958B44
:104B6000848B86EC90E0978B868B118E128E138E41
:104B7000148E08951F920F920FB60F9211240BB648
:104B80000F922F938F939F93EF93FF93E091910652
:104B9000F09192068081E0919706F091980682FD4F
:104BA0001DC0908180919A068F5F8F7320919B0624
:104BB000821741F0E0919A06F0E0EF57F94F958F98
:104BC00080939A06FF91EF919F918F912F910F9073
:104BD0000BBE0F900FBE0F901F9018958081F2CFE3
:104BE0001F920F920FB60F9211240BB60F922F93B4
:104BF0003F934F935F936F937F938F939F93AF9365
:104C0000BF93EF93FF9381E896E03BDEFF91EF9136
:104C1000BF91AF919F918F917F916F915F914F91D4
:104C20003F912F910F900BBE0F900FBE0F901F90D2
:104C30001895E1E8F6E01382128288EE93E0A0E096
:104C4000B0E084839583A683B78389E494E091835D
:104C500080838DEC90E0958784878CEC90E097873B
:104C6000868788EC90E0918B808B89EC90E0938B29
:104C7000828B8AEC90E0958B848B8EEC90E0978B06
:104C8000868B118E128E138E148E08951F920F92A2
:104C90000FB60F9211240BB60F922F938F939F9301
:104CA000EF93FF93E0912E07F0912F078081E09121
:104CB0003407F091350782FD1DC090818091370740
:104CC0008F5F8F7320913807821741F0E09137078B
:104CD000F0E0E25EF84F958F80933707FF91EF91F8
:104CE0009F918F912F910F900BBE0F900FBE0F9041
:104CF0001F9018958081F2CF1F920F920FB60F92DE
:104D000011240BB60F922F933F934F935F936F93A2
:104D10007F938F939F93AF93BF93EF93FF938EE116
:104D200097E0AFDDFF91EF91BF91AF919F918F9190
:104D30007F916F915F914F913F912F910F900BBE9B
:104D40000F900FBE0F901F901895EEE1F7E01382C1
:104D5000128288EE93E0A0E0B0E084839583A6837E
:104D6000B78389E494E09183808385ED90E0958713
:104D7000848784ED90E09787868780ED90E0918B23
:104D8000808B81ED90E0938B828B82ED90E0958B10
:104D9000848B86ED90E0978B868B118E128E138E0E
:104DA000148E08951F920F920FB60F9211240BB616
:104DB0000F922F938F939F93EF93FF93E091CB07E5
:104DC000F091CC078081E091D107F091D20782FD6C
:104DD0001DC090818091D4078F5F8F732091D5077C
:104DE000821741F0E091D407F0E0E554F84F958F39
:104DF0008093D407FF91EF919F918F912F910F9006
:104E00000BBE0F900FBE0F901F9018958081F2CFB0
:104E10001F920F920FB60F9211240BB60F922F9381
:104E20003F934F935F936F937F938F939F93AF9332
:104E3000BF93EF93FF938BEB97E023DDFF91EF910F
:104E4000BF91AF919F918F917F916F915F914F91A2
:104E50003F912F910F900BBE0F900FBE0F901F90A0
:104E60001895EBEBF7E01382128288EE93E0A0E056
:104E7000B0E084839583A683B78389E494E091832B
:104E8000808385E391E09587848784E391E0978729
:104E9000868780E391E0918B808B81E391E0938B17
:104EA000828B82E391E0958B848B86E391E0978BF4
:104EB000868B118E128E138E148E0895AF92BF9230
:104EC000CF92DF92EF92FF920F931F93CF93DF93D6
:104ED0006C017B018B01040F151FEB015E01AE1805
:104EE000BF08C017D10759F06991D601ED91FC9127
:104EF0000190F081E02DC6011995892B79F7C50144
:104F0000DF91CF911F910F91FF90EF90DF90CF90A5
:104F1000BF90AF900895FB0101900020E9F7319711
:104F2000AF01461B570BDC01ED91FC910280F38130
:104F3000E02D19946115710509F0EDCF90E080E046
:104F40000895DC01ED91FC910190F081E02D199420
:104F500067E574E0E0CF8F929F92AF92BF92EF929D
:104F6000FF920F931F93CF93DF93CDB7DEB7A19737
:104F70000FB6F894DEBF0FBECDBF7C01FA01CB01A6
:104F800019A2223008F42AE08E010F5D1F4F822EF5
:104F9000912CB12CA12CBF01A5019401C5D1F9011F
:104FA000CA016A3004F5605DD8016E938D01232B30
:104FB000242B252B81F790E080E0109719F0BD019C
:104FC000C701A9DFA1960FB6F894DEBF0FBECDBF13
:104FD000DF91CF911F910F91FF90EF90BF90AF9015
:104FE0009F908F900895695CDFCFCF92DF92EF9210
:104FF000FF920F931F93CF93DF932115310581F417
:10500000DC01ED91FC910190F081E02D642FDF91A6
:10501000CF911F910F91FF90EF90DF90CF90199457
:105020002A303105F1F42AE077FF1BC06A017B01C9
:10503000EC016DE286DF8C0144275527BA014C193B
:105040005D096E097F092AE0CE0185DF800F911F7F
:10505000DF91CF911F910F91FF90EF90DF90CF9054
:105060000895DF91CF911F910F91FF90EF90DF9006
:10507000CF9071CF9A01AB01770F660B770BB5CF4D
:105080000F931F93CF93DF93EC01F4DF8C01CE01DC
:105090005FDF800F911FDF91CF911F910F910895D6
:1050A0000F931F93CF93DF93EC019FDF8C01CE0111
:1050B0004FDF800F911FDF91CF911F910F910895C6
:1050C0002115310541F4DC01ED91FC910190F08155
:1050D000E02D642F19943FCF9A01462F50E070E0E5
:1050E00060E0EECF0F931F93CF93DF93EC01F4DFDB
:1050F0008C01CE012DDF800F911FDF91CF911F9189
:105100000F9108959A01AB0170E060E0D9CF0F9341
:105110001F93CF93DF93EC01F5DF8C01CE0118DFF5
:10512000800F911FDF91CF911F910F9108950F93E1
:105130001F93CF93DF93EC01C3DF8C01CE0108DF17
:10514000800F911FDF91CF911F910F9108952F92A2
:105150003F924F925F926F927F928F929F92AF9207
:10516000BF92CF92DF92EF92FF921F93CF93DF9384
:10517000EC016A017B01722EAB019601CB01B601F5
:105180006ED16AE574E0811125C046015701E894AB
:10519000B7F82FEF3FEF4FE75FE7C501B4015FD1ED
:1051A00081110CC02FEF3FEF4FE75FE7C501B4015E
:1051B0000E94C21D6EE574E0181664F02FEF3FEFF9
:1051C0004FE75FE4C701B6010E944A1F1816ACF40E
:1051D00062E674E0CE01DF91CF911F91FF90EF90D6
:1051E000DF90CF90BF90AF909F908F907F906F9007
:1051F0005F904F903F902F908ECE2FEF3FEF4FE775
:105200005FECC701B6010E94C21D87FDE1CF20E01F
:1052100030E0A901C701B6010E94C21D312C212C2A
:1052200087FF08C06DE2CE018CDE1C01F7FAF09416
:10523000F7F8F09410E060E070E080E09FE3711612
:1052400039F020E030E040E251E498D01F5FF7CF22
:10525000A70196010E945E1D2B013C010E94CB1DFF
:105260004B015C012AE0BC01A401CE0174DE7C018B
:10527000E20CF31C1123A1F1C501B4010E94F71D3A
:105280009B01AC01C301B2010E945D1D4B015C0199
:105290006EE2CE0156DEE80EF91E115008F120E054
:1052A00030E040E251E4C501B4010E944E1F2B01E1
:1052B0003C010E94CB1D4B014AE050E0CE0122DFB1
:1052C000E80EF91EB40190E080E00E94F71D9B01FA
:1052D000AC01C301B2010E945D1D4B015C01DDCF39
:1052E000C701DF91CF911F91FF90EF90DF90CF909A
:1052F000BF90AF909F908F907F906F905F904F90F6
:105300003F902F90089523CF0F931F93CF93DF9358
:10531000EC011DDF8C01CE011BDE800F911FDF91A0
:10532000CF911F910F910895A1E21A2EAA1BBB1BCA
:10533000FD010DC0AA1FBB1FEE1FFF1FA217B30761
:10534000E407F50720F0A21BB30BE40BF50B661F77
:10535000771F881F991F1A9469F76095709580953B
:1053600090959B01AC01BD01CF010895EE0FFF1F89
:10537000881F8BBF0790F691E02D199412D00C94E2
:10538000F91E0E94F21E58F00E94EB1E40F029F414
:105390005F3F29F00C94B91E51110C94441F0C94DA
:1053A000E81E0E940A1F68F39923B1F3552391F375
:1053B000951B550BBB27AA2762177307840738F084
:1053C0009F5F5F4F220F331F441FAA1FA9F335D0E1
:1053D0000E2E3AF0E0E832D091505040E695001C95
:1053E000CAF72BD0FE2F29D0660F771F881FBB1F4F
:1053F000261737074807AB07B0E809F0BB0B802D2D
:10540000BF01FF2793585F4F3AF09E3F510578F058
:105410000C94B91E0C94441F5F3FE4F3983ED4F300
:10542000869577956795B795F7959F5FC9F7880F2C
:10543000911D9695879597F90895E1E0660F771F7E
:10544000881FBB1F621773078407BA0720F0621B0F
:10545000730B840BBA0BEE1F88F7E09508950E943A
:0C546000951E880B990B0895F894FFCF5F
:10546C00E8030000803F0000000000000000000086
:10547C000000162C0E3BD7512D3E8BEF4A3CAAAEAA
:10548C006840596115B863731CBC9513803F92BA80
:10549C005F3EE80579385E9F8E3CDF599B3B909BC5
:1054AC006C3F60620C3984F0203DAE9219BA7A15CB
:1054BC0030BE0000803F0000000000000000000033
:1054CC000000000000000000803F00000000000011
:1054DC00000056E3EBC1E62E41C2F72593C28FC301
:1054EC0033C1F0AF7EC09A04A342E4E1A13ECEA644
:1054FC0002C4C6C3A03E131B5EC4877800C1614CB6
:10550C00BC4586D0543F441AD2BDBE49603D0120F3
:10551C00CFBDB45BA13C8D3DE13E442ED63AAA2EC4
:10552C005A3CB237563FCAC3F8BB5F44F63CFE0444
:10553C00BDBEFE5051C227E289C2A623B8C41A438D
:10554C002F3E2893C33D85615D3EFE50514227E2BC
:10555C008942A623B8440000803F000000000000F0
:10556C0000000000008000000000000000000000AF
:10557C00803F00000080000000000000803F000021
:10558C00000000000000000000800000008000000F
:10559C0000000000803FFE5980C37CF2B03C00004C
:1055AC00000000000000000010410000000035FA6F
:1055BC000EBC000048430AD7A33B000000000000CB
:1055CC004843000000800000803F00000000000005
:1055DC0000000000000000000000000000000000BF
:1055EC0000800000803F0000000000000000000070
:1055FC00000000000000000000000000008000001F
:10560C00803F0000000000000000000000000000CF
:10561C00000000000000000000800000803F00003F
:10562C000000000000800000803F0000000000002F
:10563C0000000000000000000000000000800000DE
:10564C00803F00000000000000000000000000008F
:10565C000000000000800000803F0000000058A007
:10566C000B39000010C1ABAAE241010001B11FB11E
:10567C001FB11FB11FB11FB11FB11FB11F0001FF1F
:10568C00FF0607FFFFFFFFFFFFFFFFFFFF05040300
:10569C000200000000F70625079406C00697069E38
:1056AC0006B106D4050000000082245E2732246374
:1056BC002404241E2410240D0A006E616E00696EF1
:0656CC0066006F76660027
:00000001FF
